{"abi":[{"type":"function","name":"FEE_DENOMINATOR","inputs":[],"outputs":[{"name":"","type":"uint256","internalType":"uint256"}],"stateMutability":"view"},{"type":"function","name":"N_COINS","inputs":[],"outputs":[{"name":"","type":"uint256","internalType":"uint256"}],"stateMutability":"view"},{"type":"function","name":"PRECISION","inputs":[],"outputs":[{"name":"","type":"uint256","internalType":"uint256"}],"stateMutability":"view"},{"type":"function","name":"PRECISION_MUL","inputs":[{"name":"_swap","type":"address","internalType":"address"}],"outputs":[{"name":"swapPRECISION_MUL","type":"uint256[3]","internalType":"uint256[3]"}],"stateMutability":"view"},{"type":"function","name":"RATES","inputs":[{"name":"_swap","type":"address","internalType":"address"}],"outputs":[{"name":"swapRATES","type":"uint256[3]","internalType":"uint256[3]"}],"stateMutability":"view"},{"type":"function","name":"_xp_mem","inputs":[{"name":"_swap","type":"address","internalType":"address"},{"name":"_balances","type":"uint256[3]","internalType":"uint256[3]"}],"outputs":[{"name":"result","type":"uint256[3]","internalType":"uint256[3]"}],"stateMutability":"view"},{"type":"function","name":"balances","inputs":[{"name":"_swap","type":"address","internalType":"address"}],"outputs":[{"name":"swapBalances","type":"uint256[3]","internalType":"uint256[3]"}],"stateMutability":"view"},{"type":"function","name":"calc_coins_amount","inputs":[{"name":"_swap","type":"address","internalType":"address"},{"name":"_amount","type":"uint256","internalType":"uint256"}],"outputs":[{"name":"","type":"uint256[3]","internalType":"uint256[3]"}],"stateMutability":"view"},{"type":"function","name":"get_D_mem","inputs":[{"name":"_swap","type":"address","internalType":"address"},{"name":"_balances","type":"uint256[3]","internalType":"uint256[3]"},{"name":"amp","type":"uint256","internalType":"uint256"}],"outputs":[{"name":"","type":"uint256","internalType":"uint256"}],"stateMutability":"view"},{"type":"function","name":"get_add_liquidity_fee","inputs":[{"name":"_swap","type":"address","internalType":"address"},{"name":"amounts","type":"uint256[3]","internalType":"uint256[3]"}],"outputs":[{"name":"liquidityFee","type":"uint256[3]","internalType":"uint256[3]"}],"stateMutability":"view"},{"type":"function","name":"get_add_liquidity_mint_amount","inputs":[{"name":"_swap","type":"address","internalType":"address"},{"name":"amounts","type":"uint256[3]","internalType":"uint256[3]"}],"outputs":[{"name":"","type":"uint256","internalType":"uint256"}],"stateMutability":"view"},{"type":"function","name":"get_dx","inputs":[{"name":"_swap","type":"address","internalType":"address"},{"name":"i","type":"uint256","internalType":"uint256"},{"name":"j","type":"uint256","internalType":"uint256"},{"name":"dy","type":"uint256","internalType":"uint256"},{"name":"max_dx","type":"uint256","internalType":"uint256"}],"outputs":[{"name":"","type":"uint256","internalType":"uint256"}],"stateMutability":"view"},{"type":"function","name":"get_exchange_fee","inputs":[{"name":"_swap","type":"address","internalType":"address"},{"name":"i","type":"uint256","internalType":"uint256"},{"name":"j","type":"uint256","internalType":"uint256"},{"name":"dx","type":"uint256","internalType":"uint256"}],"outputs":[{"name":"exFee","type":"uint256","internalType":"uint256"},{"name":"exAdminFee","type":"uint256","internalType":"uint256"}],"stateMutability":"view"},{"type":"function","name":"get_remove_liquidity_imbalance_fee","inputs":[{"name":"_swap","type":"address","internalType":"address"},{"name":"amounts","type":"uint256[3]","internalType":"uint256[3]"}],"outputs":[{"name":"liquidityFee","type":"uint256[3]","internalType":"uint256[3]"}],"stateMutability":"view"},{"type":"function","name":"get_remove_liquidity_one_coin_fee","inputs":[{"name":"_swap","type":"address","internalType":"address"},{"name":"_token_amount","type":"uint256","internalType":"uint256"},{"name":"i","type":"uint256","internalType":"uint256"}],"outputs":[{"name":"adminFee","type":"uint256","internalType":"uint256"}],"stateMutability":"view"},{"type":"function","name":"token","inputs":[{"name":"_swap","type":"address","internalType":"address"}],"outputs":[{"name":"","type":"address","internalType":"contract IERC20"}],"stateMutability":"view"}],"bytecode":{"object":"0x6080604052348015600f57600080fd5b506124f28061001f6000396000f3fe608060405234801561001057600080fd5b50600436106101005760003560e01c80635779dcd81161009757806382abb1a31161006657806382abb1a31461022f578063aaf5eb6814610242578063ca4bc71414610251578063d73792a91461026457600080fd5b80635779dcd8146101cb5780636d46a1db146101de5780637619153d14610209578063789787ac1461021c57600080fd5b806327e235e3116100d357806327e235e31461017c578063293577501461018f578063437fe6f9146101a557806346f57d45146101b857600080fd5b806315a4d7fe146101055780631f38b0c71461012e5780632494acbd14610156578063279a07cc14610169575b600080fd5b610118610113366004612192565b610270565b60405161012591906121be565b60405180910390f35b61014161013c3660046121ef565b6103af565b60408051928352602083019190915201610125565b61011861016436600461222a565b6105f4565b61011861017736600461222a565b610696565b61011861018a36600461222a565b610732565b610197600381565b604051908152602001610125565b6101186101b33660046122ca565b6107ce565b6101976101c63660046122ca565b610b28565b6101976101d9366004612300565b610fa3565b6101f16101ec36600461222a565b61103b565b6040516001600160a01b039091168152602001610125565b610197610217366004612335565b61109f565b61011861022a3660046122ca565b6110bc565b61011861023d3660046122ca565b611530565b610197670de0b6b3a764000081565b61019761025f366004612375565b6115c0565b6101976402540be40081565b61027861215c565b60006102838461103b565b6001600160a01b03166318160ddd6040518163ffffffff1660e01b8152600401602060405180830381865afa1580156102c0573d6000803e3d6000fd5b505050506040513d601f19601f820116820180604052508101906102e491906123b9565b90506102ee61215c565b60005b60038110156103a45760008386886001600160a01b0316634903b0d1856040518263ffffffff1660e01b815260040161032c91815260200190565b602060405180830381865afa158015610349573d6000803e3d6000fd5b505050506040513d601f19601f8201168201806040525081019061036d91906123b9565b61037791906123e8565b61038191906123ff565b90508083836003811061039657610396612421565b6020020152506001016102f1565b509150505b92915050565b60008085816103bd82610732565b905060006103cb8983611530565b905060006103d88a6105f4565b90506000670de0b6b3a7640000828b600381106103f7576103f7612421565b6020020151610406908a6123e8565b61041091906123ff565b838b6003811061042257610422612421565b60200201516104319190612437565b905060006104428c8c8c8588611804565b90506000600182868d6003811061045b5761045b612421565b602002015161046a919061244a565b610474919061244a565b905060006402540be400886001600160a01b031663ddca3f436040518163ffffffff1660e01b8152600401602060405180830381865afa1580156104bc573d6000803e3d6000fd5b505050506040513d601f19601f820116820180604052508101906104e091906123b9565b6104ea90846123e8565b6104f491906123ff565b905060006402540be400896001600160a01b031663fee3f7f96040518163ffffffff1660e01b8152600401602060405180830381865afa15801561053c573d6000803e3d6000fd5b505050506040513d601f19601f8201168201806040525081019061056091906123b9565b61056a90846123e8565b61057491906123ff565b9050858d6003811061058857610588612421565b602002015161059f670de0b6b3a7640000846123e8565b6105a991906123ff565b9150858d600381106105bd576105bd612421565b60200201516105d4670de0b6b3a7640000836123e8565b6105de91906123ff565b919f919e50909c50505050505050505050505050565b6105fc61215c565b60005b6003811015610690576040516318880f5d60e21b8152600481018290526001600160a01b038416906362203d7490602401602060405180830381865afa15801561064d573d6000803e3d6000fd5b505050506040513d601f19601f8201168201806040525081019061067191906123b9565b82826003811061068357610683612421565b60200201526001016105ff565b50919050565b61069e61215c565b60005b600381101561069057604051631f6be8d960e21b8152600481018290526001600160a01b03841690637dafa36490602401602060405180830381865afa1580156106ef573d6000803e3d6000fd5b505050506040513d601f19601f8201168201806040525081019061071391906123b9565b82826003811061072557610725612421565b60200201526001016106a1565b61073a61215c565b60005b600381101561069057604051634903b0d160e01b8152600481018290526001600160a01b03841690634903b0d190602401602060405180830381865afa15801561078b573d6000803e3d6000fd5b505050506040513d601f19601f820116820180604052508101906107af91906123b9565b8282600381106107c1576107c1612421565b602002015260010161073d565b6107d661215c565b8260006107e56001600361244a565b6107f09060046123e8565b6003836001600160a01b031663ddca3f436040518163ffffffff1660e01b8152600401602060405180830381865afa158015610830573d6000803e3d6000fd5b505050506040513d601f19601f8201168201806040525081019061085491906123b9565b61085e91906123e8565b61086891906123ff565b90506000826001600160a01b031663fee3f7f96040518163ffffffff1660e01b8152600401602060405180830381865afa1580156108aa573d6000803e3d6000fd5b505050506040513d601f19601f820116820180604052508101906108ce91906123b9565b90506000836001600160a01b031663f446c1d06040518163ffffffff1660e01b8152600401602060405180830381865afa158015610910573d6000803e3d6000fd5b505050506040513d601f19601f8201168201806040525081019061093491906123b9565b9050600061094188610732565b9050600060405180606001604052808360006003811061096357610963612421565b602002015181526020018360016003811061098057610980612421565b602002015181526020018360026003811061099d5761099d612421565b60200201519052905060006109b38a848661109f565b905060005b6003811015610a06578981600381106109d3576109d3612421565b60200201518382600381106109ea576109ea612421565b602002018181516109fb919061244a565b9052506001016109b8565b506000610a148b848761109f565b905060005b6003811015610b1957600083868360038110610a3757610a37612421565b6020020151610a4690856123e8565b610a5091906123ff565b90506000858360038110610a6657610a66612421565b6020020151821115610a9a57858360038110610a8457610a84612421565b6020020151610a93908361244a565b9050610abf565b81868460038110610aad57610aad612421565b6020020151610abc919061244a565b90505b60006402540be400610ad1838d6123e8565b610adb91906123ff565b90506402540be400610aed8b836123e8565b610af791906123ff565b8d8560038110610b0957610b09612421565b6020020152505050600101610a19565b50505050505050505092915050565b600082610b3361215c565b6000610b416001600361244a565b610b4c9060046123e8565b6003846001600160a01b031663ddca3f436040518163ffffffff1660e01b8152600401602060405180830381865afa158015610b8c573d6000803e3d6000fd5b505050506040513d601f19601f82011682018060405250810190610bb091906123b9565b610bba91906123e8565b610bc491906123ff565b90506000836001600160a01b031663f446c1d06040518163ffffffff1660e01b8152600401602060405180830381865afa158015610c06573d6000803e3d6000fd5b505050506040513d601f19601f82011682018060405250810190610c2a91906123b9565b90506000610c378861103b565b6001600160a01b03166318160ddd6040518163ffffffff1660e01b8152600401602060405180830381865afa158015610c74573d6000803e3d6000fd5b505050506040513d601f19601f82011682018060405250810190610c9891906123b9565b9050600080610ca68a610732565b90508215610cbc57610cb98a828661109f565b91505b6000604051806060016040528083600060038110610cdc57610cdc612421565b6020020151815260200183600160038110610cf957610cf9612421565b6020020151815260200183600260038110610d1657610d16612421565b60200201519052905060005b6003811015610dc95784600003610d725760008b8260038110610d4757610d47612421565b602002015111610d725760405162461bcd60e51b8152600401610d699061245d565b60405180910390fd5b8a8160038110610d8457610d84612421565b6020020151838260038110610d9b57610d9b612421565b6020020151610daa9190612437565b828260038110610dbc57610dbc612421565b6020020152600101610d22565b506000610dd78c838861109f565b9050838111610e285760405162461bcd60e51b815260206004820152601a60248201527f4431206d7573742062652067726561746572207468616e2044300000000000006044820152606401610d69565b808515610f5f5760005b6003811015610f5057600086868360038110610e5057610e50612421565b6020020151610e5f90866123e8565b610e6991906123ff565b90506000858360038110610e7f57610e7f612421565b6020020151821115610eb357858360038110610e9d57610e9d612421565b6020020151610eac908361244a565b9050610ed8565b81868460038110610ec657610ec6612421565b6020020151610ed5919061244a565b90505b6402540be400610ee8828d6123e8565b610ef291906123ff565b8c8460038110610f0457610f04612421565b60200201528b8360038110610f1b57610f1b612421565b6020020151868460038110610f3257610f32612421565b60200201818151610f43919061244a565b9052505050600101610e32565b50610f5c8d848961109f565b90505b600086600003610f70575081610f92565b85610f7b818461244a565b610f8590896123e8565b610f8f91906123ff565b90505b9d9c50505050505050505050505050565b60008381610fb28286866119e8565b9150506402540be400826001600160a01b031663fee3f7f96040518163ffffffff1660e01b8152600401602060405180830381865afa158015610ff9573d6000803e3d6000fd5b505050506040513d601f19601f8201168201806040525081019061101d91906123b9565b61102790836123e8565b61103191906123ff565b9695505050505050565b6000816001600160a01b031663fc0c546a6040518163ffffffff1660e01b8152600401602060405180830381865afa15801561107b573d6000803e3d6000fd5b505050506040513d601f19601f820116820180604052508101906103a9919061249f565b60006110b46110ae8585611530565b83611d65565b949350505050565b6110c461215c565b8260006110d36001600361244a565b6110de9060046123e8565b6003836001600160a01b031663ddca3f436040518163ffffffff1660e01b8152600401602060405180830381865afa15801561111e573d6000803e3d6000fd5b505050506040513d601f19601f8201168201806040525081019061114291906123b9565b61114c91906123e8565b61115691906123ff565b90506000826001600160a01b031663fee3f7f96040518163ffffffff1660e01b8152600401602060405180830381865afa158015611198573d6000803e3d6000fd5b505050506040513d601f19601f820116820180604052508101906111bc91906123b9565b90506000836001600160a01b031663f446c1d06040518163ffffffff1660e01b8152600401602060405180830381865afa1580156111fe573d6000803e3d6000fd5b505050506040513d601f19601f8201168201806040525081019061122291906123b9565b9050600061122f8861103b565b6001600160a01b03166318160ddd6040518163ffffffff1660e01b8152600401602060405180830381865afa15801561126c573d6000803e3d6000fd5b505050506040513d601f19601f8201168201806040525081019061129091906123b9565b905060008061129e8a610732565b905082156112b4576112b18a828661109f565b91505b60006040518060600160405280836000600381106112d4576112d4612421565b60200201518152602001836001600381106112f1576112f1612421565b602002015181526020018360026003811061130e5761130e612421565b60200201519052905060005b60038110156113b857846000036113615760008b826003811061133f5761133f612421565b6020020151116113615760405162461bcd60e51b8152600401610d699061245d565b8a816003811061137357611373612421565b602002015183826003811061138a5761138a612421565b60200201516113999190612437565b8282600381106113ab576113ab612421565b602002015260010161131a565b5060006113c68c838861109f565b90508381116114175760405162461bcd60e51b815260206004820152601a60248201527f4431206d7573742062652067726561746572207468616e2044300000000000006044820152606401610d69565b8415610b195760005b60038110156115205760008585836003811061143e5761143e612421565b602002015161144d90856123e8565b61145791906123ff565b9050600084836003811061146d5761146d612421565b60200201518211156114a15784836003811061148b5761148b612421565b602002015161149a908361244a565b90506114c6565b818584600381106114b4576114b4612421565b60200201516114c3919061244a565b90505b60006402540be4006114d8838e6123e8565b6114e291906123ff565b90506402540be4006114f48c836123e8565b6114fe91906123ff565b8e856003811061151057611510612421565b6020020152505050600101611420565b5050505050505050505092915050565b61153861215c565b611541836105f4565b905060005b60038110156115b957670de0b6b3a764000083826003811061156a5761156a612421565b602002015183836003811061158157611581612421565b602002015161159091906123e8565b61159a91906123ff565b8282600381106115ac576115ac612421565b6020020152600101611546565b5092915050565b600085816115cd82610732565b905060006115db8983611530565b90506000836001600160a01b031663ddca3f436040518163ffffffff1660e01b8152600401602060405180830381865afa15801561161d573d6000803e3d6000fd5b505050506040513d601f19601f8201168201806040525081019061164191906123b9565b611650906402540be40061244a565b61165f6402540be400896123e8565b61166991906123ff565b905082886003811061167d5761167d612421565b602002015181106116c15760405162461bcd60e51b815260206004820152600e60248201526d4578636573732062616c616e636560901b6044820152606401610d69565b60006116cc8b6105f4565b90506000670de0b6b3a7640000828b600381106116eb576116eb612421565b60200201516116fa90856123e8565b61170491906123ff565b848b6003811061171657611716612421565b6020020151611725919061244a565b905060006117368d8c8e8589611804565b90506000858d6003811061174c5761174c612421565b602002015161175b908361244a565b9050838d6003811061176f5761176f612421565b6020020151611786670de0b6b3a7640000836123e8565b61179091906123ff565b61179b906001612437565b905089811115610f925760405162461bcd60e51b815260206004820152602e60248201527f45786368616e676520726573756c74656420696e20666577657220636f696e7360448201526d081d1a185b88195e1c1958dd195960921b6064820152608401610d69565b6000808690506000816001600160a01b031663f446c1d06040518163ffffffff1660e01b8152600401602060405180830381865afa15801561184a573d6000803e3d6000fd5b505050506040513d601f19601f8201168201806040525081019061186e91906123b9565b9050600061187c8583611d65565b90508060008061188d6003866123e8565b90506000805b600381101561190b578c81036118ab578a91506118d5565b8b81146118d0578981600381106118c4576118c4612421565b602002015191506118d5565b611903565b6118df8285612437565b93506118ec6003836123e8565b6118f687876123e8565b61190091906123ff565b94505b600101611893565b506119176003836123e8565b61192186866123e8565b61192b91906123ff565b9350600061193983876123ff565b6119439085612437565b9050600086815b60ff8110156119d457819250888483600261196591906123e8565b61196f9190612437565b611979919061244a565b8861198484806123e8565b61198e9190612437565b61199891906123ff565b9150828211156119b95760016119ae848461244a565b11156119d4576119cc565b60016119c5838561244a565b11156119d4575b60010161194a565b509f9e505050505050505050505050505050565b60008060008590506000816001600160a01b031663f446c1d06040518163ffffffff1660e01b8152600401602060405180830381865afa158015611a30573d6000803e3d6000fd5b505050506040513d601f19601f82011682018060405250810190611a5491906123b9565b90506000611a646001600361244a565b611a6f9060046123e8565b6003846001600160a01b031663ddca3f436040518163ffffffff1660e01b8152600401602060405180830381865afa158015611aaf573d6000803e3d6000fd5b505050506040513d601f19601f82011682018060405250810190611ad391906123b9565b611add91906123e8565b611ae791906123ff565b90506000611af489610696565b90506000611b018a611ee0565b90506000611b0f8286611d65565b90506000611b1c8c61103b565b6001600160a01b03166318160ddd6040518163ffffffff1660e01b8152600401602060405180830381865afa158015611b59573d6000803e3d6000fd5b505050506040513d601f19601f82011682018060405250810190611b7d91906123b9565b611b87838d6123e8565b611b9191906123ff565b611b9b908361244a565b9050826000611bac888d8486611fbc565b90506000868d60038110611bc257611bc2612421565b602002015182878f60038110611bda57611bda612421565b6020020151611be9919061244a565b611bf391906123ff565b905060005b6003811015611ce35760008e8203611c49578387878a8560038110611c1f57611c1f612421565b6020020151611c2e91906123e8565b611c3891906123ff565b611c42919061244a565b9050611c9a565b8686898460038110611c5d57611c5d612421565b6020020151611c6c91906123e8565b611c7691906123ff565b888360038110611c8857611c88612421565b6020020151611c97919061244a565b90505b6402540be400611caa828c6123e8565b611cb491906123ff565b858360038110611cc657611cc6612421565b60200201818151611cd7919061244a565b90525050600101611bf8565b506000611cf28a8f8688611fbc565b848f60038110611d0457611d04612421565b6020020151611d13919061244a565b9050878e60038110611d2757611d27612421565b6020020151611d3760018361244a565b611d4191906123ff565b905080611d4e818461244a565b9c509c505050505050505050505050935093915050565b60008060005b6003811015611d9f57848160038110611d8657611d86612421565b6020020151611d959083612437565b9150600101611d6b565b5080600003611db25760009150506103a9565b60008181611dc16003876123e8565b905060005b60ff811015611ed4578260005b6003811015611e1d5760038a8260038110611df057611df0612421565b6020020151611dff91906123e8565b611e0986846123e8565b611e1391906123ff565b9150600101611dd3565b508394508060036001611e309190612437565b611e3a91906123e8565b84611e4660018661244a565b611e5091906123e8565b611e5a9190612437565b84611e666003846123e8565b611e7089876123e8565b611e7a9190612437565b611e8491906123e8565b611e8e91906123ff565b935084841115611eb4576001611ea4868661244a565b11611eaf5750611ed4565b611ecb565b6001611ec0858761244a565b11611ecb5750611ed4565b50600101611dc6565b50909695505050505050565b611ee861215c565b611ef1826105f4565b905060005b600381101561069057604051634903b0d160e01b815260048101829052670de0b6b3a7640000906001600160a01b03851690634903b0d190602401602060405180830381865afa158015611f4e573d6000803e3d6000fd5b505050506040513d601f19601f82011682018060405250810190611f7291906123b9565b838360038110611f8457611f84612421565b6020020151611f9391906123e8565b611f9d91906123ff565b828260038110611faf57611faf612421565b6020020152600101611ef6565b6000600384106120055760405162461bcd60e51b81526020600482015260146024820152736465763a20692061626f7665204e5f434f494e5360601b6044820152606401610d69565b816000806120146003896123e8565b90506000805b6003811015612083578881146120485787816003811061203c5761203c612421565b6020020151915061204d565b61207b565b6120578285612437565b93506120646003836123e8565b61206e88876123e8565b61207891906123ff565b94505b60010161201a565b5061208f6003836123e8565b61209987866123e8565b6120a391906123ff565b935060006120b183886123ff565b6120bb9085612437565b9050600087815b60ff81101561214c5781925089848360026120dd91906123e8565b6120e79190612437565b6120f1919061244a565b886120fc84806123e8565b6121069190612437565b61211091906123ff565b915082821115612131576001612126848461244a565b111561214c57612144565b600161213d838561244a565b111561214c575b6001016120c2565b509b9a5050505050505050505050565b60405180606001604052806003906020820280368337509192915050565b6001600160a01b038116811461218f57600080fd5b50565b600080604083850312156121a557600080fd5b82356121b08161217a565b946020939093013593505050565b60608101818360005b60038110156121e65781518352602092830192909101906001016121c7565b50505092915050565b6000806000806080858703121561220557600080fd5b84356122108161217a565b966020860135965060408601359560600135945092505050565b60006020828403121561223c57600080fd5b81356122478161217a565b9392505050565b600082601f83011261225f57600080fd5b6040516060810181811067ffffffffffffffff8211171561229057634e487b7160e01b600052604160045260246000fd5b6040528060608401858111156122a557600080fd5b845b818110156122bf5780358352602092830192016122a7565b509195945050505050565b600080608083850312156122dd57600080fd5b82356122e88161217a565b91506122f7846020850161224e565b90509250929050565b60008060006060848603121561231557600080fd5b83356123208161217a565b95602085013595506040909401359392505050565b600080600060a0848603121561234a57600080fd5b83356123558161217a565b9250612364856020860161224e565b929592945050506080919091013590565b600080600080600060a0868803121561238d57600080fd5b85356123988161217a565b97602087013597506040870135966060810135965060800135945092505050565b6000602082840312156123cb57600080fd5b5051919050565b634e487b7160e01b600052601160045260246000fd5b80820281158282048414176103a9576103a96123d2565b60008261241c57634e487b7160e01b600052601260045260246000fd5b500490565b634e487b7160e01b600052603260045260246000fd5b808201808211156103a9576103a96123d2565b818103818111156103a9576103a96123d2565b60208082526022908201527f496e697469616c206465706f73697420726571756972657320616c6c20636f696040820152616e7360f01b606082015260800190565b6000602082840312156124b157600080fd5b81516122478161217a56fea2646970667358221220dc810adae069d9b1be2966cb680a2953434ead2a4a86acc93cae6995d041463064736f6c634300081a0033","linkReferences":{}},"methodIdentifiers":{"FEE_DENOMINATOR()":"d73792a9","N_COINS()":"29357750","PRECISION()":"aaf5eb68","PRECISION_MUL(address)":"279a07cc","RATES(address)":"2494acbd","_xp_mem(address,uint256[3])":"82abb1a3","balances(address)":"27e235e3","calc_coins_amount(address,uint256)":"15a4d7fe","get_D_mem(address,uint256[3],uint256)":"7619153d","get_add_liquidity_fee(address,uint256[3])":"789787ac","get_add_liquidity_mint_amount(address,uint256[3])":"46f57d45","get_dx(address,uint256,uint256,uint256,uint256)":"ca4bc714","get_exchange_fee(address,uint256,uint256,uint256)":"1f38b0c7","get_remove_liquidity_imbalance_fee(address,uint256[3])":"437fe6f9","get_remove_liquidity_one_coin_fee(address,uint256,uint256)":"5779dcd8","token(address)":"6d46a1db"},"id":21}