{"abi":[{"type":"function","name":"LPFactory","inputs":[],"outputs":[{"name":"","type":"address","internalType":"contract IStableSwapLPFactory"}],"stateMutability":"view"},{"type":"function","name":"SwapThreePoolDeployer","inputs":[],"outputs":[{"name":"","type":"address","internalType":"contract IStableSwapDeployer"}],"stateMutability":"view"},{"type":"function","name":"SwapTwoPoolDeployer","inputs":[],"outputs":[{"name":"","type":"address","internalType":"contract IStableSwapDeployer"}],"stateMutability":"view"},{"type":"function","name":"addPairInfo","inputs":[{"name":"_swapContract","type":"address","internalType":"address"}],"outputs":[],"stateMutability":"nonpayable"},{"type":"function","name":"admin","inputs":[],"outputs":[{"name":"","type":"address","internalType":"address"}],"stateMutability":"view"},{"type":"function","name":"createSwapPair","inputs":[{"name":"_tokenA","type":"address","internalType":"address"},{"name":"_tokenB","type":"address","internalType":"address"},{"name":"_A","type":"uint256","internalType":"uint256"},{"name":"_fee","type":"uint256","internalType":"uint256"},{"name":"_admin_fee","type":"uint256","internalType":"uint256"}],"outputs":[],"stateMutability":"nonpayable"},{"type":"function","name":"createThreePoolPair","inputs":[{"name":"_tokenA","type":"address","internalType":"address"},{"name":"_tokenB","type":"address","internalType":"address"},{"name":"_tokenC","type":"address","internalType":"address"},{"name":"_A","type":"uint256","internalType":"uint256"},{"name":"_fee","type":"uint256","internalType":"uint256"},{"name":"_admin_fee","type":"uint256","internalType":"uint256"}],"outputs":[],"stateMutability":"nonpayable"},{"type":"function","name":"getPairInfo","inputs":[{"name":"_tokenA","type":"address","internalType":"address"},{"name":"_tokenB","type":"address","internalType":"address"}],"outputs":[{"name":"info","type":"tuple","internalType":"struct StableSwapFactory.StableSwapPairInfo","components":[{"name":"swapContract","type":"address","internalType":"address"},{"name":"token0","type":"address","internalType":"address"},{"name":"token1","type":"address","internalType":"address"},{"name":"LPContract","type":"address","internalType":"address"}]}],"stateMutability":"view"},{"type":"function","name":"getThreePoolPairInfo","inputs":[{"name":"_tokenA","type":"address","internalType":"address"},{"name":"_tokenB","type":"address","internalType":"address"}],"outputs":[{"name":"info","type":"tuple","internalType":"struct StableSwapFactory.StableSwapThreePoolPairInfo","components":[{"name":"swapContract","type":"address","internalType":"address"},{"name":"token0","type":"address","internalType":"address"},{"name":"token1","type":"address","internalType":"address"},{"name":"token2","type":"address","internalType":"address"},{"name":"LPContract","type":"address","internalType":"address"}]}],"stateMutability":"view"},{"type":"function","name":"initialize","inputs":[{"name":"_LPFactory","type":"address","internalType":"contract IStableSwapLPFactory"},{"name":"_SwapTwoPoolDeployer","type":"address","internalType":"contract IStableSwapDeployer"},{"name":"_SwapThreePoolDeployer","type":"address","internalType":"contract IStableSwapDeployer"},{"name":"_admin","type":"address","internalType":"address"}],"outputs":[],"stateMutability":"nonpayable"},{"type":"function","name":"pairLength","inputs":[],"outputs":[{"name":"","type":"uint256","internalType":"uint256"}],"stateMutability":"view"},{"type":"function","name":"stableSwapPairInfo","inputs":[{"name":"","type":"address","internalType":"address"},{"name":"","type":"address","internalType":"address"},{"name":"","type":"address","internalType":"address"}],"outputs":[{"name":"swapContract","type":"address","internalType":"address"},{"name":"token0","type":"address","internalType":"address"},{"name":"token1","type":"address","internalType":"address"},{"name":"token2","type":"address","internalType":"address"},{"name":"LPContract","type":"address","internalType":"address"}],"stateMutability":"view"},{"type":"function","name":"swapPairContract","inputs":[{"name":"","type":"uint256","internalType":"uint256"}],"outputs":[{"name":"","type":"address","internalType":"address"}],"stateMutability":"view"},{"type":"function","name":"transferAdminship","inputs":[{"name":"newAdmin","type":"address","internalType":"address"}],"outputs":[],"stateMutability":"nonpayable"},{"type":"event","name":"AdminshipTransferred","inputs":[{"name":"previousAdminr","type":"address","indexed":true,"internalType":"address"},{"name":"newAdmin","type":"address","indexed":true,"internalType":"address"}],"anonymous":false},{"type":"event","name":"ApplyOwnership","inputs":[{"name":"admin","type":"address","indexed":false,"internalType":"address"}],"anonymous":false},{"type":"event","name":"CommitOwnership","inputs":[{"name":"admin","type":"address","indexed":false,"internalType":"address"}],"anonymous":false},{"type":"event","name":"NewStableSwapPair","inputs":[{"name":"swapContract","type":"address","indexed":true,"internalType":"address"},{"name":"tokenA","type":"address","indexed":false,"internalType":"address"},{"name":"tokenB","type":"address","indexed":false,"internalType":"address"},{"name":"tokenC","type":"address","indexed":false,"internalType":"address"},{"name":"LP","type":"address","indexed":false,"internalType":"address"}],"anonymous":false}],"bytecode":{"object":"0x6080604052348015600f57600080fd5b506117ac8061001f6000396000f3fe608060405234801561001057600080fd5b50600436106100ea5760003560e01c806368fae3f31161008c578063ec69a02411610066578063ec69a024146102f9578063f851a4401461030c578063f8c8765e1461031f578063fcc9136c1461037d57600080fd5b806368fae3f314610271578063923093cb14610284578063b3c0e846146102e657600080fd5b8063400f7a1e116100c8578063400f7a1e146101ca5780634205381b146102205780635be7cc1614610235578063636e66a01461024857600080fd5b806314c77a6d146100ef57806321420c4b1461011f57806338802f1a14610132575b600080fd5b600354610102906001600160a01b031681565b6040516001600160a01b0390911681526020015b60405180910390f35b600554610102906001600160a01b031681565b6101906101403660046114f7565b60006020818152938152604080822085529281528281209093528252902080546001820154600283015460038401546004909401546001600160a01b039384169492841693918216928216911685565b604080516001600160a01b03968716815294861660208601529285169284019290925283166060830152909116608082015260a001610116565b6101dd6101d8366004611542565b610394565b604051610116919081516001600160a01b039081168252602080840151821690830152604080840151821690830152606092830151169181019190915260800190565b61023361022e36600461157b565b610463565b005b6102336102433660046115e0565b610717565b610102610256366004611604565b6002602052600090815260409020546001600160a01b031681565b600454610102906001600160a01b031681565b610297610292366004611542565b6107b2565b604051610116919081516001600160a01b039081168252602080840151821690830152604080840151821690830152606080840151821690830152608092830151169181019190915260a00190565b6102336102f43660046115e0565b61085a565b61023361030736600461161d565b610bc4565b600654610102906001600160a01b031681565b61023361032d36600461166e565b600380546001600160a01b039586166001600160a01b0319918216179091556004805494861694821694909417909355600580549285169284169290921790915560068054919093169116179055565b61038660075481565b604051908152602001610116565b604080516080810182526000808252602082018190529181018290526060810182905290806103c38585610e12565b6001600160a01b039182166000908152602081815260408083209385168352928152828220828052815290829020825160a0810184528154851680825260018301548616828501908152600284015487168387019081526003850154881660608086019190915260049095015488166080909401938452918a52518616938901939093529151841692870192909252519091169084015250909392505050565b6006546001600160a01b031633146104965760405162461bcd60e51b815260040161048d906116ca565b60405180910390fd5b6001600160a01b038616158015906104b657506001600160a01b03851615155b80156104ca57506001600160a01b03841615155b80156104e85750846001600160a01b0316866001600160a01b031614155b80156105065750836001600160a01b0316866001600160a01b031614155b80156105245750836001600160a01b0316856001600160a01b031614155b6105605760405162461bcd60e51b815260206004820152600d60248201526c24b63632b3b0b6103a37b5b2b760991b604482015260640161048d565b6000806000610570898989610e9a565b600354604051635920110d60e11b815293965091945092506000916001600160a01b039091169063b240221a906105b19087908790879030906004016116ee565b6020604051808303816000875af11580156105d0573d6000803e3d6000fd5b505050506040513d601f19601f820116820180604052508101906105f49190611719565b600554604051634cedbfc760e01b81526001600160a01b03878116600483015286811660248301528581166044830152606482018b9052608482018a905260a482018990523360c483015280841660e483015292935060009290911690634cedbfc790610104016020604051808303816000875af115801561067a573d6000803e3d6000fd5b505050506040513d601f19601f8201168201806040525081019061069e9190611719565b604051637e51dad560e11b81526001600160a01b0380831660048301529192509083169063fca3b5aa90602401600060405180830381600087803b1580156106e557600080fd5b505af11580156106f9573d6000803e3d6000fd5b5050505061070a8186868686610f9b565b5050505050505050505050565b6006546001600160a01b031633146107415760405162461bcd60e51b815260040161048d906116ca565b6001600160a01b0381166107a65760405162461bcd60e51b815260206004820152602660248201527f4f776e61626c653a206e65772041646d696e20697320746865207a65726f206160448201526564647265737360d01b606482015260840161048d565b6107af81611490565b50565b6040805160a081018252600080825260208201819052918101829052606081018290526080810182905290806107e88585610e12565b6001600160a01b039182166000908152600160208181526040808420948616845293815291839020835160a08101855281548616815291810154851692820192909252600282015484169281019290925260038101548316606083015260040154909116608082015295945050505050565b6006546001600160a01b031633146108845760405162461bcd60e51b815260040161048d906116ca565b60008190506000816001600160a01b031663293577506040518163ffffffff1660e01b8152600401602060405180830381865afa1580156108c9573d6000803e3d6000fd5b505050506040513d601f19601f820116820180604052508101906108ed9190611736565b905080600203610a3d5760405163c661065760e01b815260006004820152610a389084906001600160a01b0385169063c661065790602401602060405180830381865afa158015610942573d6000803e3d6000fd5b505050506040513d601f19601f820116820180604052508101906109669190611719565b60405163c661065760e01b8152600160048201526001600160a01b0386169063c661065790602401602060405180830381865afa1580156109ab573d6000803e3d6000fd5b505050506040513d601f19601f820116820180604052508101906109cf9190611719565b6000866001600160a01b031663fc0c546a6040518163ffffffff1660e01b8152600401602060405180830381865afa158015610a0f573d6000803e3d6000fd5b505050506040513d601f19601f82011682018060405250810190610a339190611719565b610f9b565b505050565b80600303610a385760405163c661065760e01b815260006004820152610a389084906001600160a01b0385169063c661065790602401602060405180830381865afa158015610a90573d6000803e3d6000fd5b505050506040513d601f19601f82011682018060405250810190610ab49190611719565b60405163c661065760e01b8152600160048201526001600160a01b0386169063c661065790602401602060405180830381865afa158015610af9573d6000803e3d6000fd5b505050506040513d601f19601f82011682018060405250810190610b1d9190611719565b60405163c661065760e01b8152600260048201526001600160a01b0387169063c661065790602401602060405180830381865afa158015610b62573d6000803e3d6000fd5b505050506040513d601f19601f82011682018060405250810190610b869190611719565b866001600160a01b031663fc0c546a6040518163ffffffff1660e01b8152600401602060405180830381865afa158015610a0f573d6000803e3d6000fd5b6006546001600160a01b03163314610bee5760405162461bcd60e51b815260040161048d906116ca565b6001600160a01b03851615801590610c0e57506001600160a01b03841615155b8015610c2c5750836001600160a01b0316856001600160a01b031614155b610c685760405162461bcd60e51b815260206004820152600d60248201526c24b63632b3b0b6103a37b5b2b760991b604482015260640161048d565b600080610c758787610e12565b600354604051635920110d60e11b81529294509092506000916001600160a01b039091169063b240221a90610cb49086908690869030906004016116ee565b6020604051808303816000875af1158015610cd3573d6000803e3d6000fd5b505050506040513d601f19601f82011682018060405250810190610cf79190611719565b60048054604051639013148d60e01b81526001600160a01b03878116938201939093528583166024820152604481018a905260648101899052608481018890523360a482015282841660c4820152929350600092911690639013148d9060e4016020604051808303816000875af1158015610d76573d6000803e3d6000fd5b505050506040513d601f19601f82011682018060405250810190610d9a9190611719565b604051637e51dad560e11b81526001600160a01b0380831660048301529192509083169063fca3b5aa90602401600060405180830381600087803b158015610de157600080fd5b505af1158015610df5573d6000803e3d6000fd5b50505050610e07818585600086610f9b565b505050505050505050565b600080826001600160a01b0316846001600160a01b031603610e6c5760405162461bcd60e51b81526020600482015260136024820152724944454e544943414c5f41444452455353455360681b604482015260640161048d565b826001600160a01b0316846001600160a01b031610610e8c578284610e8f565b83835b909590945092505050565b6000806000846001600160a01b0316866001600160a01b031614158015610ed35750836001600160a01b0316866001600160a01b031614155b8015610ef15750836001600160a01b0316856001600160a01b031614155b610f335760405162461bcd60e51b81526020600482015260136024820152724944454e544943414c5f41444452455353455360681b604482015260640161048d565b6000856001600160a01b0316876001600160a01b03161115610f555750939493845b846001600160a01b0316866001600160a01b03161115610f8e5750929392836001600160a01b038087169088161115610f8e5750939493845b5094959394509192915050565b6001600160a01b0380851660008181526020818152604080832088861680855290835281842088871680865290845282852080548d89166001600160a01b031991821681178355600180840180548416909a179099556002808401805484169096179095556003830180548316909417909355600482018054998b169982169990991790985560078054875292909452918420805490961690911790945583549093919061104a90849061174f565b90915550506001600160a01b03831615611441576040805160a08101825282546001600160a01b039081168252600184015481166020830152600284015481169282019290925260038301548216606082015260048301549091166080820152611441908690869086908060016000866001600160a01b03166001600160a01b031681526020019081526020016000206000856001600160a01b03166001600160a01b0316815260200190815260200160002060008201518160000160006101000a8154816001600160a01b0302191690836001600160a01b0316021790555060208201518160010160006101000a8154816001600160a01b0302191690836001600160a01b0316021790555060408201518160020160006101000a8154816001600160a01b0302191690836001600160a01b0316021790555060608201518160030160006101000a8154816001600160a01b0302191690836001600160a01b0316021790555060808201518160040160006101000a8154816001600160a01b0302191690836001600160a01b031602179055509050508060016000866001600160a01b03166001600160a01b031681526020019081526020016000206000846001600160a01b03166001600160a01b0316815260200190815260200160002060008201518160000160006101000a8154816001600160a01b0302191690836001600160a01b0316021790555060208201518160010160006101000a8154816001600160a01b0302191690836001600160a01b0316021790555060408201518160020160006101000a8154816001600160a01b0302191690836001600160a01b0316021790555060608201518160030160006101000a8154816001600160a01b0302191690836001600160a01b0316021790555060808201518160040160006101000a8154816001600160a01b0302191690836001600160a01b031602179055509050508060016000856001600160a01b03166001600160a01b031681526020019081526020016000206000846001600160a01b03166001600160a01b0316815260200190815260200160002060008201518160000160006101000a8154816001600160a01b0302191690836001600160a01b0316021790555060208201518160010160006101000a8154816001600160a01b0302191690836001600160a01b0316021790555060408201518160020160006101000a8154816001600160a01b0302191690836001600160a01b0316021790555060608201518160030160006101000a8154816001600160a01b0302191690836001600160a01b0316021790555060808201518160040160006101000a8154816001600160a01b0302191690836001600160a01b0316021790555090505050505050565b856001600160a01b03167f48dc7a1b156fe3e70ed5ed0afcb307661905edf536f15bb5786e327ea19335328686868660405161148094939291906116ee565b60405180910390a2505050505050565b600680546001600160a01b038381166001600160a01b0319831681179093556040519116919082907f2931ebb3d190545dcf6801c37aa686b74f2e1000e753d0fac6e471a2aa5a621390600090a35050565b6001600160a01b03811681146107af57600080fd5b60008060006060848603121561150c57600080fd5b8335611517816114e2565b92506020840135611527816114e2565b91506040840135611537816114e2565b809150509250925092565b6000806040838503121561155557600080fd5b8235611560816114e2565b91506020830135611570816114e2565b809150509250929050565b60008060008060008060c0878903121561159457600080fd5b863561159f816114e2565b955060208701356115af816114e2565b945060408701356115bf816114e2565b959894975094956060810135955060808101359460a0909101359350915050565b6000602082840312156115f257600080fd5b81356115fd816114e2565b9392505050565b60006020828403121561161657600080fd5b5035919050565b600080600080600060a0868803121561163557600080fd5b8535611640816114e2565b94506020860135611650816114e2565b94979496505050506040830135926060810135926080909101359150565b6000806000806080858703121561168457600080fd5b843561168f816114e2565b9350602085013561169f816114e2565b925060408501356116af816114e2565b915060608501356116bf816114e2565b939692955090935050565b6020808252600a908201526941646d696e206f6e6c7960b01b604082015260600190565b6001600160a01b03948516815292841660208401529083166040830152909116606082015260800190565b60006020828403121561172b57600080fd5b81516115fd816114e2565b60006020828403121561174857600080fd5b5051919050565b8082018082111561177057634e487b7160e01b600052601160045260246000fd5b9291505056fea264697066735822122007b32b6271e5a374039abf3907cf14c6c1bf1ef696fe28504a251dacdf84e50d64736f6c634300081a0033","linkReferences":{}},"methodIdentifiers":{"LPFactory()":"14c77a6d","SwapThreePoolDeployer()":"21420c4b","SwapTwoPoolDeployer()":"68fae3f3","addPairInfo(address)":"b3c0e846","admin()":"f851a440","createSwapPair(address,address,uint256,uint256,uint256)":"ec69a024","createThreePoolPair(address,address,address,uint256,uint256,uint256)":"4205381b","getPairInfo(address,address)":"400f7a1e","getThreePoolPairInfo(address,address)":"923093cb","initialize(address,address,address,address)":"f8c8765e","pairLength()":"fcc9136c","stableSwapPairInfo(address,address,address)":"38802f1a","swapPairContract(uint256)":"636e66a0","transferAdminship(address)":"5be7cc16"},"id":13}