{"abi":[{"type":"function","name":"FEE_DENOMINATOR","inputs":[],"outputs":[{"name":"","type":"uint256","internalType":"uint256"}],"stateMutability":"view"},{"type":"function","name":"N_COINS","inputs":[],"outputs":[{"name":"","type":"uint256","internalType":"uint256"}],"stateMutability":"view"},{"type":"function","name":"PRECISION","inputs":[],"outputs":[{"name":"","type":"uint256","internalType":"uint256"}],"stateMutability":"view"},{"type":"function","name":"PRECISION_MUL","inputs":[{"name":"_swap","type":"address","internalType":"address"}],"outputs":[{"name":"swapPRECISION_MUL","type":"uint256[2]","internalType":"uint256[2]"}],"stateMutability":"view"},{"type":"function","name":"RATES","inputs":[{"name":"_swap","type":"address","internalType":"address"}],"outputs":[{"name":"swapRATES","type":"uint256[2]","internalType":"uint256[2]"}],"stateMutability":"view"},{"type":"function","name":"_xp_mem","inputs":[{"name":"_swap","type":"address","internalType":"address"},{"name":"_balances","type":"uint256[2]","internalType":"uint256[2]"}],"outputs":[{"name":"result","type":"uint256[2]","internalType":"uint256[2]"}],"stateMutability":"view"},{"type":"function","name":"balances","inputs":[{"name":"_swap","type":"address","internalType":"address"}],"outputs":[{"name":"swapBalances","type":"uint256[2]","internalType":"uint256[2]"}],"stateMutability":"view"},{"type":"function","name":"calc_coins_amount","inputs":[{"name":"_swap","type":"address","internalType":"address"},{"name":"_amount","type":"uint256","internalType":"uint256"}],"outputs":[{"name":"","type":"uint256[2]","internalType":"uint256[2]"}],"stateMutability":"view"},{"type":"function","name":"get_D_mem","inputs":[{"name":"_swap","type":"address","internalType":"address"},{"name":"_balances","type":"uint256[2]","internalType":"uint256[2]"},{"name":"amp","type":"uint256","internalType":"uint256"}],"outputs":[{"name":"","type":"uint256","internalType":"uint256"}],"stateMutability":"view"},{"type":"function","name":"get_add_liquidity_fee","inputs":[{"name":"_swap","type":"address","internalType":"address"},{"name":"amounts","type":"uint256[2]","internalType":"uint256[2]"}],"outputs":[{"name":"liquidityFee","type":"uint256[2]","internalType":"uint256[2]"}],"stateMutability":"view"},{"type":"function","name":"get_add_liquidity_mint_amount","inputs":[{"name":"_swap","type":"address","internalType":"address"},{"name":"amounts","type":"uint256[2]","internalType":"uint256[2]"}],"outputs":[{"name":"","type":"uint256","internalType":"uint256"}],"stateMutability":"view"},{"type":"function","name":"get_dx","inputs":[{"name":"_swap","type":"address","internalType":"address"},{"name":"i","type":"uint256","internalType":"uint256"},{"name":"j","type":"uint256","internalType":"uint256"},{"name":"dy","type":"uint256","internalType":"uint256"},{"name":"max_dx","type":"uint256","internalType":"uint256"}],"outputs":[{"name":"","type":"uint256","internalType":"uint256"}],"stateMutability":"view"},{"type":"function","name":"get_exchange_fee","inputs":[{"name":"_swap","type":"address","internalType":"address"},{"name":"i","type":"uint256","internalType":"uint256"},{"name":"j","type":"uint256","internalType":"uint256"},{"name":"dx","type":"uint256","internalType":"uint256"}],"outputs":[{"name":"exFee","type":"uint256","internalType":"uint256"},{"name":"exAdminFee","type":"uint256","internalType":"uint256"}],"stateMutability":"view"},{"type":"function","name":"get_remove_liquidity_imbalance_fee","inputs":[{"name":"_swap","type":"address","internalType":"address"},{"name":"amounts","type":"uint256[2]","internalType":"uint256[2]"}],"outputs":[{"name":"liquidityFee","type":"uint256[2]","internalType":"uint256[2]"}],"stateMutability":"view"},{"type":"function","name":"get_remove_liquidity_one_coin_fee","inputs":[{"name":"_swap","type":"address","internalType":"address"},{"name":"_token_amount","type":"uint256","internalType":"uint256"},{"name":"i","type":"uint256","internalType":"uint256"}],"outputs":[{"name":"adminFee","type":"uint256","internalType":"uint256"}],"stateMutability":"view"},{"type":"function","name":"token","inputs":[{"name":"_swap","type":"address","internalType":"address"}],"outputs":[{"name":"","type":"address","internalType":"contract IERC20"}],"stateMutability":"view"}],"bytecode":{"object":"0x6080604052348015600f57600080fd5b5061248f8061001f6000396000f3fe608060405234801561001057600080fd5b50600436106101005760003560e01c80636c92118e11610097578063b6f03ac111610066578063b6f03ac11461022b578063ca4bc7141461023e578063d73792a914610251578063f74d92e71461025d57600080fd5b80636c92118e146101cb5780636d46a1db146101de578063aaf5eb6814610209578063ae6452b41461021857600080fd5b8063279a07cc116100d3578063279a07cc1461017c57806327e235e31461018f57806329357750146101a25780635779dcd8146101b857600080fd5b80630d098fa91461010557806315a4d7fe1461012e5780631f38b0c7146101415780632494acbd14610169575b600080fd5b6101186101133660046121ab565b610270565b60405161012591906121e1565b60405180910390f35b61011861013c366004612212565b6106d1565b61015461014f36600461223e565b610810565b60408051928352602083019190915201610125565b610118610177366004612279565b610a55565b61011861018a366004612279565b610af7565b61011861019d366004612279565b610b93565b6101aa600281565b604051908152602001610125565b6101aa6101c636600461229d565b610c2f565b6101186101d93660046121ab565b610cc7565b6101f16101ec366004612279565b610ff5565b6040516001600160a01b039091168152602001610125565b6101aa670de0b6b3a764000081565b6101186102263660046121ab565b611059565b6101aa6102393660046121ab565b6110e9565b6101aa61024c3660046122d2565b61153e565b6101aa6402540be40081565b6101aa61026b366004612316565b611782565b6102786120f7565b8260006102876001600261236c565b61029290600461237f565b6002836001600160a01b031663ddca3f436040518163ffffffff1660e01b8152600401602060405180830381865afa1580156102d2573d6000803e3d6000fd5b505050506040513d601f19601f820116820180604052508101906102f69190612396565b610300919061237f565b61030a91906123af565b90506000826001600160a01b031663fee3f7f96040518163ffffffff1660e01b8152600401602060405180830381865afa15801561034c573d6000803e3d6000fd5b505050506040513d601f19601f820116820180604052508101906103709190612396565b90506000836001600160a01b031663f446c1d06040518163ffffffff1660e01b8152600401602060405180830381865afa1580156103b2573d6000803e3d6000fd5b505050506040513d601f19601f820116820180604052508101906103d69190612396565b905060006103e388610ff5565b6001600160a01b03166318160ddd6040518163ffffffff1660e01b8152600401602060405180830381865afa158015610420573d6000803e3d6000fd5b505050506040513d601f19601f820116820180604052508101906104449190612396565b90506000806104528a610b93565b90508215610468576104658a8286611782565b91505b6000604051806040016040528083600060028110610488576104886123d1565b60200201518152602001836001600281106104a5576104a56123d1565b60200201519052905060005b600281101561055857846000036105015760008b82600281106104d6576104d66123d1565b6020020151116105015760405162461bcd60e51b81526004016104f8906123e7565b60405180910390fd5b8a8160028110610513576105136123d1565b602002015183826002811061052a5761052a6123d1565b60200201516105399190612429565b82826002811061054b5761054b6123d1565b60200201526001016104b1565b5060006105668c8388611782565b90508381116105b75760405162461bcd60e51b815260206004820152601a60248201527f4431206d7573742062652067726561746572207468616e20443000000000000060448201526064016104f8565b84156106c25760005b60028110156106c0576000858583600281106105de576105de6123d1565b60200201516105ed908561237f565b6105f791906123af565b9050600084836002811061060d5761060d6123d1565b60200201518211156106415784836002811061062b5761062b6123d1565b602002015161063a908361236c565b9050610666565b81858460028110610654576106546123d1565b6020020151610663919061236c565b90505b60006402540be400610678838e61237f565b61068291906123af565b90506402540be4006106948c8361237f565b61069e91906123af565b8e85600281106106b0576106b06123d1565b60200201525050506001016105c0565b505b50505050505050505092915050565b6106d96120f7565b60006106e484610ff5565b6001600160a01b03166318160ddd6040518163ffffffff1660e01b8152600401602060405180830381865afa158015610721573d6000803e3d6000fd5b505050506040513d601f19601f820116820180604052508101906107459190612396565b905061074f6120f7565b60005b60028110156108055760008386886001600160a01b0316634903b0d1856040518263ffffffff1660e01b815260040161078d91815260200190565b602060405180830381865afa1580156107aa573d6000803e3d6000fd5b505050506040513d601f19601f820116820180604052508101906107ce9190612396565b6107d8919061237f565b6107e291906123af565b9050808383600281106107f7576107f76123d1565b602002015250600101610752565b509150505b92915050565b600080858161081e82610b93565b9050600061082c8983611059565b905060006108398a610a55565b90506000670de0b6b3a7640000828b60028110610858576108586123d1565b6020020151610867908a61237f565b61087191906123af565b838b60028110610883576108836123d1565b60200201516108929190612429565b905060006108a38c8c8c858861179f565b90506000600182868d600281106108bc576108bc6123d1565b60200201516108cb919061236c565b6108d5919061236c565b905060006402540be400886001600160a01b031663ddca3f436040518163ffffffff1660e01b8152600401602060405180830381865afa15801561091d573d6000803e3d6000fd5b505050506040513d601f19601f820116820180604052508101906109419190612396565b61094b908461237f565b61095591906123af565b905060006402540be400896001600160a01b031663fee3f7f96040518163ffffffff1660e01b8152600401602060405180830381865afa15801561099d573d6000803e3d6000fd5b505050506040513d601f19601f820116820180604052508101906109c19190612396565b6109cb908461237f565b6109d591906123af565b9050858d600281106109e9576109e96123d1565b6020020151610a00670de0b6b3a76400008461237f565b610a0a91906123af565b9150858d60028110610a1e57610a1e6123d1565b6020020151610a35670de0b6b3a76400008361237f565b610a3f91906123af565b919f919e50909c50505050505050505050505050565b610a5d6120f7565b60005b6002811015610af1576040516318880f5d60e21b8152600481018290526001600160a01b038416906362203d7490602401602060405180830381865afa158015610aae573d6000803e3d6000fd5b505050506040513d601f19601f82011682018060405250810190610ad29190612396565b828260028110610ae457610ae46123d1565b6020020152600101610a60565b50919050565b610aff6120f7565b60005b6002811015610af157604051631f6be8d960e21b8152600481018290526001600160a01b03841690637dafa36490602401602060405180830381865afa158015610b50573d6000803e3d6000fd5b505050506040513d601f19601f82011682018060405250810190610b749190612396565b828260028110610b8657610b866123d1565b6020020152600101610b02565b610b9b6120f7565b60005b6002811015610af157604051634903b0d160e01b8152600481018290526001600160a01b03841690634903b0d190602401602060405180830381865afa158015610bec573d6000803e3d6000fd5b505050506040513d601f19601f82011682018060405250810190610c109190612396565b828260028110610c2257610c226123d1565b6020020152600101610b9e565b60008381610c3e828686611983565b9150506402540be400826001600160a01b031663fee3f7f96040518163ffffffff1660e01b8152600401602060405180830381865afa158015610c85573d6000803e3d6000fd5b505050506040513d601f19601f82011682018060405250810190610ca99190612396565b610cb3908361237f565b610cbd91906123af565b9695505050505050565b610ccf6120f7565b826000610cde6001600261236c565b610ce990600461237f565b6002836001600160a01b031663ddca3f436040518163ffffffff1660e01b8152600401602060405180830381865afa158015610d29573d6000803e3d6000fd5b505050506040513d601f19601f82011682018060405250810190610d4d9190612396565b610d57919061237f565b610d6191906123af565b90506000826001600160a01b031663fee3f7f96040518163ffffffff1660e01b8152600401602060405180830381865afa158015610da3573d6000803e3d6000fd5b505050506040513d601f19601f82011682018060405250810190610dc79190612396565b90506000836001600160a01b031663f446c1d06040518163ffffffff1660e01b8152600401602060405180830381865afa158015610e09573d6000803e3d6000fd5b505050506040513d601f19601f82011682018060405250810190610e2d9190612396565b90506000610e3a88610b93565b90506000604051806040016040528083600060028110610e5c57610e5c6123d1565b6020020151815260200183600160028110610e7957610e796123d1565b6020020151905290506000610e8f8a8486611782565b905060005b6002811015610ee257898160028110610eaf57610eaf6123d1565b6020020151838260028110610ec657610ec66123d1565b60200201818151610ed7919061236c565b905250600101610e94565b506000610ef08b8487611782565b905060005b60028110156106c257600083868360028110610f1357610f136123d1565b6020020151610f22908561237f565b610f2c91906123af565b90506000858360028110610f4257610f426123d1565b6020020151821115610f7657858360028110610f6057610f606123d1565b6020020151610f6f908361236c565b9050610f9b565b81868460028110610f8957610f896123d1565b6020020151610f98919061236c565b90505b60006402540be400610fad838d61237f565b610fb791906123af565b90506402540be400610fc98b8361237f565b610fd391906123af565b8d8560028110610fe557610fe56123d1565b6020020152505050600101610ef5565b6000816001600160a01b031663fc0c546a6040518163ffffffff1660e01b8152600401602060405180830381865afa158015611035573d6000803e3d6000fd5b505050506040513d601f19601f8201168201806040525081019061080a919061243c565b6110616120f7565b61106a83610a55565b905060005b60028110156110e257670de0b6b3a7640000838260028110611093576110936123d1565b60200201518383600281106110aa576110aa6123d1565b60200201516110b9919061237f565b6110c391906123af565b8282600281106110d5576110d56123d1565b602002015260010161106f565b5092915050565b6000826110f46120f7565b60006111026001600261236c565b61110d90600461237f565b6002846001600160a01b031663ddca3f436040518163ffffffff1660e01b8152600401602060405180830381865afa15801561114d573d6000803e3d6000fd5b505050506040513d601f19601f820116820180604052508101906111719190612396565b61117b919061237f565b61118591906123af565b90506000836001600160a01b031663f446c1d06040518163ffffffff1660e01b8152600401602060405180830381865afa1580156111c7573d6000803e3d6000fd5b505050506040513d601f19601f820116820180604052508101906111eb9190612396565b905060006111f888610ff5565b6001600160a01b03166318160ddd6040518163ffffffff1660e01b8152600401602060405180830381865afa158015611235573d6000803e3d6000fd5b505050506040513d601f19601f820116820180604052508101906112599190612396565b90506000806112678a610b93565b9050821561127d5761127a8a8286611782565b91505b600060405180604001604052808360006002811061129d5761129d6123d1565b60200201518152602001836001600281106112ba576112ba6123d1565b60200201519052905060005b6002811015611364578460000361130d5760008b82600281106112eb576112eb6123d1565b60200201511161130d5760405162461bcd60e51b81526004016104f8906123e7565b8a816002811061131f5761131f6123d1565b6020020151838260028110611336576113366123d1565b60200201516113459190612429565b828260028110611357576113576123d1565b60200201526001016112c6565b5060006113728c8388611782565b90508381116113c35760405162461bcd60e51b815260206004820152601a60248201527f4431206d7573742062652067726561746572207468616e20443000000000000060448201526064016104f8565b8085156114fa5760005b60028110156114eb576000868683600281106113eb576113eb6123d1565b60200201516113fa908661237f565b61140491906123af565b9050600085836002811061141a5761141a6123d1565b602002015182111561144e57858360028110611438576114386123d1565b6020020151611447908361236c565b9050611473565b81868460028110611461576114616123d1565b6020020151611470919061236c565b90505b6402540be400611483828d61237f565b61148d91906123af565b8c846002811061149f5761149f6123d1565b60200201528b83600281106114b6576114b66123d1565b60200201518684600281106114cd576114cd6123d1565b602002018181516114de919061236c565b90525050506001016113cd565b506114f78d8489611782565b90505b60008660000361150b57508161152d565b85611516818461236c565b611520908961237f565b61152a91906123af565b90505b9d9c50505050505050505050505050565b6000858161154b82610b93565b905060006115598983611059565b90506000836001600160a01b031663ddca3f436040518163ffffffff1660e01b8152600401602060405180830381865afa15801561159b573d6000803e3d6000fd5b505050506040513d601f19601f820116820180604052508101906115bf9190612396565b6115ce906402540be40061236c565b6115dd6402540be4008961237f565b6115e791906123af565b90508288600281106115fb576115fb6123d1565b6020020151811061163f5760405162461bcd60e51b815260206004820152600e60248201526d4578636573732062616c616e636560901b60448201526064016104f8565b600061164a8b610a55565b90506000670de0b6b3a7640000828b60028110611669576116696123d1565b6020020151611678908561237f565b61168291906123af565b848b60028110611694576116946123d1565b60200201516116a3919061236c565b905060006116b48d8c8e858961179f565b90506000858d600281106116ca576116ca6123d1565b60200201516116d9908361236c565b9050838d600281106116ed576116ed6123d1565b6020020151611704670de0b6b3a76400008361237f565b61170e91906123af565b611719906001612429565b90508981111561152d5760405162461bcd60e51b815260206004820152602e60248201527f45786368616e676520726573756c74656420696e20666577657220636f696e7360448201526d081d1a185b88195e1c1958dd195960921b60648201526084016104f8565b60006117976117918585611059565b83611d00565b949350505050565b6000808690506000816001600160a01b031663f446c1d06040518163ffffffff1660e01b8152600401602060405180830381865afa1580156117e5573d6000803e3d6000fd5b505050506040513d601f19601f820116820180604052508101906118099190612396565b905060006118178583611d00565b90508060008061182860028661237f565b90506000805b60028110156118a6578c8103611846578a9150611870565b8b811461186b5789816002811061185f5761185f6123d1565b60200201519150611870565b61189e565b61187a8285612429565b935061188760028361237f565b611891878761237f565b61189b91906123af565b94505b60010161182e565b506118b260028361237f565b6118bc868661237f565b6118c691906123af565b935060006118d483876123af565b6118de9085612429565b9050600086815b60ff81101561196f578192508884836002611900919061237f565b61190a9190612429565b611914919061236c565b8861191f848061237f565b6119299190612429565b61193391906123af565b915082821115611954576001611949848461236c565b111561196f57611967565b6001611960838561236c565b111561196f575b6001016118e5565b509f9e505050505050505050505050505050565b60008060008590506000816001600160a01b031663f446c1d06040518163ffffffff1660e01b8152600401602060405180830381865afa1580156119cb573d6000803e3d6000fd5b505050506040513d601f19601f820116820180604052508101906119ef9190612396565b905060006119ff6001600261236c565b611a0a90600461237f565b6002846001600160a01b031663ddca3f436040518163ffffffff1660e01b8152600401602060405180830381865afa158015611a4a573d6000803e3d6000fd5b505050506040513d601f19601f82011682018060405250810190611a6e9190612396565b611a78919061237f565b611a8291906123af565b90506000611a8f89610af7565b90506000611a9c8a611e7b565b90506000611aaa8286611d00565b90506000611ab78c610ff5565b6001600160a01b03166318160ddd6040518163ffffffff1660e01b8152600401602060405180830381865afa158015611af4573d6000803e3d6000fd5b505050506040513d601f19601f82011682018060405250810190611b189190612396565b611b22838d61237f565b611b2c91906123af565b611b36908361236c565b9050826000611b47888d8486611f57565b90506000868d60028110611b5d57611b5d6123d1565b602002015182878f60028110611b7557611b756123d1565b6020020151611b84919061236c565b611b8e91906123af565b905060005b6002811015611c7e5760008e8203611be4578387878a8560028110611bba57611bba6123d1565b6020020151611bc9919061237f565b611bd391906123af565b611bdd919061236c565b9050611c35565b8686898460028110611bf857611bf86123d1565b6020020151611c07919061237f565b611c1191906123af565b888360028110611c2357611c236123d1565b6020020151611c32919061236c565b90505b6402540be400611c45828c61237f565b611c4f91906123af565b858360028110611c6157611c616123d1565b60200201818151611c72919061236c565b90525050600101611b93565b506000611c8d8a8f8688611f57565b848f60028110611c9f57611c9f6123d1565b6020020151611cae919061236c565b9050878e60028110611cc257611cc26123d1565b6020020151611cd260018361236c565b611cdc91906123af565b905080611ce9818461236c565b9c509c505050505050505050505050935093915050565b60008060005b6002811015611d3a57848160028110611d2157611d216123d1565b6020020151611d309083612429565b9150600101611d06565b5080600003611d4d57600091505061080a565b60008181611d5c60028761237f565b905060005b60ff811015611e6f578260005b6002811015611db85760028a8260028110611d8b57611d8b6123d1565b6020020151611d9a919061237f565b611da4868461237f565b611dae91906123af565b9150600101611d6e565b508394508060026001611dcb9190612429565b611dd5919061237f565b84611de160018661236c565b611deb919061237f565b611df59190612429565b84611e0160028461237f565b611e0b898761237f565b611e159190612429565b611e1f919061237f565b611e2991906123af565b935084841115611e4f576001611e3f868661236c565b11611e4a5750611e6f565b611e66565b6001611e5b858761236c565b11611e665750611e6f565b50600101611d61565b50909695505050505050565b611e836120f7565b611e8c82610a55565b905060005b6002811015610af157604051634903b0d160e01b815260048101829052670de0b6b3a7640000906001600160a01b03851690634903b0d190602401602060405180830381865afa158015611ee9573d6000803e3d6000fd5b505050506040513d601f19601f82011682018060405250810190611f0d9190612396565b838360028110611f1f57611f1f6123d1565b6020020151611f2e919061237f565b611f3891906123af565b828260028110611f4a57611f4a6123d1565b6020020152600101611e91565b600060028410611fa05760405162461bcd60e51b81526020600482015260146024820152736465763a20692061626f7665204e5f434f494e5360601b60448201526064016104f8565b81600080611faf60028961237f565b90506000805b600281101561201e57888114611fe357878160028110611fd757611fd76123d1565b60200201519150611fe8565b612016565b611ff28285612429565b9350611fff60028361237f565b612009888761237f565b61201391906123af565b94505b600101611fb5565b5061202a60028361237f565b612034878661237f565b61203e91906123af565b9350600061204c83886123af565b6120569085612429565b9050600087815b60ff8110156120e7578192508984836002612078919061237f565b6120829190612429565b61208c919061236c565b88612097848061237f565b6120a19190612429565b6120ab91906123af565b9150828211156120cc5760016120c1848461236c565b11156120e7576120df565b60016120d8838561236c565b11156120e7575b60010161205d565b509b9a5050505050505050505050565b60405180604001604052806002906020820280368337509192915050565b6001600160a01b038116811461212a57600080fd5b50565b600082601f83011261213e57600080fd5b6040516040810181811067ffffffffffffffff8211171561216f57634e487b7160e01b600052604160045260246000fd5b806040525080604084018581111561218657600080fd5b845b818110156121a0578035835260209283019201612188565b509195945050505050565b600080606083850312156121be57600080fd5b82356121c981612115565b91506121d8846020850161212d565b90509250929050565b60408101818360005b60028110156122095781518352602092830192909101906001016121ea565b50505092915050565b6000806040838503121561222557600080fd5b823561223081612115565b946020939093013593505050565b6000806000806080858703121561225457600080fd5b843561225f81612115565b966020860135965060408601359560600135945092505050565b60006020828403121561228b57600080fd5b813561229681612115565b9392505050565b6000806000606084860312156122b257600080fd5b83356122bd81612115565b95602085013595506040909401359392505050565b600080600080600060a086880312156122ea57600080fd5b85356122f581612115565b97602087013597506040870135966060810135965060800135945092505050565b60008060006080848603121561232b57600080fd5b833561233681612115565b9250612345856020860161212d565b929592945050506060919091013590565b634e487b7160e01b600052601160045260246000fd5b8181038181111561080a5761080a612356565b808202811582820484141761080a5761080a612356565b6000602082840312156123a857600080fd5b5051919050565b6000826123cc57634e487b7160e01b600052601260045260246000fd5b500490565b634e487b7160e01b600052603260045260246000fd5b60208082526022908201527f496e697469616c206465706f73697420726571756972657320616c6c20636f696040820152616e7360f01b606082015260800190565b8082018082111561080a5761080a612356565b60006020828403121561244e57600080fd5b81516122968161211556fea2646970667358221220799f64833c923e19b6d8520f12125af699e321730db82e2e1d688f4efbf2c72a64736f6c634300081a0033","linkReferences":{}},"methodIdentifiers":{"FEE_DENOMINATOR()":"d73792a9","N_COINS()":"29357750","PRECISION()":"aaf5eb68","PRECISION_MUL(address)":"279a07cc","RATES(address)":"2494acbd","_xp_mem(address,uint256[2])":"ae6452b4","balances(address)":"27e235e3","calc_coins_amount(address,uint256)":"15a4d7fe","get_D_mem(address,uint256[2],uint256)":"f74d92e7","get_add_liquidity_fee(address,uint256[2])":"0d098fa9","get_add_liquidity_mint_amount(address,uint256[2])":"b6f03ac1","get_dx(address,uint256,uint256,uint256,uint256)":"ca4bc714","get_exchange_fee(address,uint256,uint256,uint256)":"1f38b0c7","get_remove_liquidity_imbalance_fee(address,uint256[2])":"6c92118e","get_remove_liquidity_one_coin_fee(address,uint256,uint256)":"5779dcd8","token(address)":"6d46a1db"},"id":22}