{"abi":[{"type":"receive","stateMutability":"payable"},{"type":"function","name":"computeAddress","inputs":[{"name":"addr","type":"address","internalType":"address"},{"name":"nonce","type":"uint256","internalType":"uint256"}],"outputs":[{"name":"","type":"address","internalType":"address"}],"stateMutability":"view"},{"type":"function","name":"deploy","inputs":[{"name":"amount","type":"uint256","internalType":"uint256"},{"name":"bytecode","type":"bytes","internalType":"bytes"}],"outputs":[{"name":"newContract","type":"address","internalType":"address"}],"stateMutability":"nonpayable"},{"type":"event","name":"ContractCreation","inputs":[{"name":"newContract","type":"address","indexed":false,"internalType":"address"}],"anonymous":false},{"type":"error","name":"Failed","inputs":[{"name":"emitter","type":"address","internalType":"address"}]},{"type":"error","name":"InsufficientBalance","inputs":[{"name":"emitter","type":"address","internalType":"address"}]},{"type":"error","name":"InvalidNonceValue","inputs":[{"name":"emitter","type":"address","internalType":"address"}]},{"type":"error","name":"ZeroBytecodeLength","inputs":[{"name":"emitter","type":"address","internalType":"address"}]}],"bytecode":{"object":"0x6080604052348015600f57600080fd5b506106db8061001f6000396000f3fe60806040526004361061002d5760003560e01c806336b5aa2d1461003957806361ff715f1461007557600080fd5b3661003457005b600080fd5b34801561004557600080fd5b50610059610054366004610566565b610095565b6040516001600160a01b03909116815260200160405180910390f35b34801561008157600080fd5b506100596100903660046105b4565b6104a8565b60006060602560fa1b6100b1600167ffffffffffffffff610677565b67ffffffffffffffff168411156100e257604051633c55ab3b60e01b81523060048201526024015b60405180910390fd5b8360000361013f57604051606b60f91b60208201526001600160f81b0319821660218201526001600160601b0319606087901b166022820152600160ff1b60368201526037015b6040516020818303038152906040529150610496565b607f841161018c57604051606b60f91b60208201526001600160f81b031980831660218301526001600160601b0319606088901b16602283015260f886901b166036820152603701610129565b60ff84116101e35760405160d760f81b60208201526001600160f81b031980831660218301526001600160601b0319606088901b166022830152608160f81b603683015260f886901b166037820152603801610129565b61ffff841161024357604051601b60fb1b60208201526001600160f81b0319821660218201526001600160601b0319606087901b166022820152604160f91b60368201526001600160f01b031960f086901b166037820152603901610129565b62ffffff84116102a45760405160d960f81b60208201526001600160f81b0319821660218201526001600160601b0319606087901b166022820152608360f81b60368201526001600160e81b031960e886901b166037820152603a01610129565b63ffffffff841161030657604051606d60f91b60208201526001600160f81b0319821660218201526001600160601b0319606087901b166022820152602160fa1b60368201526001600160e01b031960e086901b166037820152603b01610129565b64ffffffffff84116103695760405160db60f81b60208201526001600160f81b0319821660218201526001600160601b0319606087901b166022820152608560f81b60368201526001600160d81b031960d886901b166037820152603c01610129565b65ffffffffffff84116103cd57604051603760fa1b60208201526001600160f81b0319821660218201526001600160601b0319606087901b166022820152604360f91b60368201526001600160d01b031960d086901b166037820152603d01610129565b66ffffffffffffff84116104325760405160dd60f81b60208201526001600160f81b0319821660218201526001600160601b0319606087901b166022820152608760f81b60368201526001600160c81b031960c886901b166037820152603e01610129565b604051606f60f91b60208201526001600160f81b0319821660218201526001600160601b0319606087901b166022820152601160fb1b60368201526001600160c01b031960c086901b166037820152603f0160405160208183030381529060405291505b50805160209091012090505b92915050565b6000824710156104cd5760405163112fed8b60e31b81523060048201526024016100d9565b81516000036104f1576040516378506c0d60e01b81523060048201526024016100d9565b81516020830184f090506001600160a01b0381166105245760405163b05e40a960e01b81523060048201526024016100d9565b6040516001600160a01b03821681527f4db17dd5e4732fb6da34a148104a592783ca119a1e7bb8829eba6cbadef0b5119060200160405180910390a192915050565b6000806040838503121561057957600080fd5b82356001600160a01b038116811461059057600080fd5b946020939093013593505050565b634e487b7160e01b600052604160045260246000fd5b600080604083850312156105c757600080fd5b82359150602083013567ffffffffffffffff8111156105e557600080fd5b8301601f810185136105f657600080fd5b803567ffffffffffffffff8111156106105761061061059e565b604051601f8201601f19908116603f0116810167ffffffffffffffff8111828210171561063f5761063f61059e565b60405281815282820160200187101561065757600080fd5b816020840160208301376000602083830101528093505050509250929050565b67ffffffffffffffff82811682821603908111156104a257634e487b7160e01b600052601160045260246000fdfea26469706673582212201124e120a7ef24708140b1bf45af9dd51b51d473bc71f0c2aaae36be0e226ae464736f6c634300081a0033","linkReferences":{}},"methodIdentifiers":{"computeAddress(address,uint256)":"36b5aa2d","deploy(uint256,bytes)":"61ff715f"},"id":46}