{"abi":[{"type":"constructor","inputs":[],"stateMutability":"nonpayable"},{"type":"function","name":"A","inputs":[],"outputs":[{"name":"","type":"uint256","internalType":"uint256"}],"stateMutability":"view"},{"type":"function","name":"ADMIN_ACTIONS_DELAY","inputs":[],"outputs":[{"name":"","type":"uint256","internalType":"uint256"}],"stateMutability":"view"},{"type":"function","name":"FEE_DENOMINATOR","inputs":[],"outputs":[{"name":"","type":"uint256","internalType":"uint256"}],"stateMutability":"view"},{"type":"function","name":"KILL_DEADLINE_DT","inputs":[],"outputs":[{"name":"","type":"uint256","internalType":"uint256"}],"stateMutability":"view"},{"type":"function","name":"MAX_A","inputs":[],"outputs":[{"name":"","type":"uint256","internalType":"uint256"}],"stateMutability":"view"},{"type":"function","name":"MAX_ADMIN_FEE","inputs":[],"outputs":[{"name":"","type":"uint256","internalType":"uint256"}],"stateMutability":"view"},{"type":"function","name":"MAX_A_CHANGE","inputs":[],"outputs":[{"name":"","type":"uint256","internalType":"uint256"}],"stateMutability":"view"},{"type":"function","name":"MAX_DECIMAL","inputs":[],"outputs":[{"name":"","type":"uint256","internalType":"uint256"}],"stateMutability":"view"},{"type":"function","name":"MAX_FEE","inputs":[],"outputs":[{"name":"","type":"uint256","internalType":"uint256"}],"stateMutability":"view"},{"type":"function","name":"MAX_ROSE_gas","inputs":[],"outputs":[{"name":"","type":"uint256","internalType":"uint256"}],"stateMutability":"view"},{"type":"function","name":"MIN_RAMP_TIME","inputs":[],"outputs":[{"name":"","type":"uint256","internalType":"uint256"}],"stateMutability":"view"},{"type":"function","name":"MIN_ROSE_gas","inputs":[],"outputs":[{"name":"","type":"uint256","internalType":"uint256"}],"stateMutability":"view"},{"type":"function","name":"N_COINS","inputs":[],"outputs":[{"name":"","type":"uint256","internalType":"uint256"}],"stateMutability":"view"},{"type":"function","name":"PRECISION","inputs":[],"outputs":[{"name":"","type":"uint256","internalType":"uint256"}],"stateMutability":"view"},{"type":"function","name":"PRECISION_MUL","inputs":[{"name":"","type":"uint256","internalType":"uint256"}],"outputs":[{"name":"","type":"uint256","internalType":"uint256"}],"stateMutability":"view"},{"type":"function","name":"RATES","inputs":[{"name":"","type":"uint256","internalType":"uint256"}],"outputs":[{"name":"","type":"uint256","internalType":"uint256"}],"stateMutability":"view"},{"type":"function","name":"STABLESWAP_FACTORY","inputs":[],"outputs":[{"name":"","type":"address","internalType":"address"}],"stateMutability":"view"},{"type":"function","name":"add_liquidity","inputs":[{"name":"amounts","type":"uint256[3]","internalType":"uint256[3]"},{"name":"min_mint_amount","type":"uint256","internalType":"uint256"}],"outputs":[],"stateMutability":"payable"},{"type":"function","name":"admin_actions_deadline","inputs":[],"outputs":[{"name":"","type":"uint256","internalType":"uint256"}],"stateMutability":"view"},{"type":"function","name":"admin_balances","inputs":[{"name":"i","type":"uint256","internalType":"uint256"}],"outputs":[{"name":"","type":"uint256","internalType":"uint256"}],"stateMutability":"view"},{"type":"function","name":"admin_fee","inputs":[],"outputs":[{"name":"","type":"uint256","internalType":"uint256"}],"stateMutability":"view"},{"type":"function","name":"apply_new_fee","inputs":[],"outputs":[],"stateMutability":"nonpayable"},{"type":"function","name":"balances","inputs":[{"name":"","type":"uint256","internalType":"uint256"}],"outputs":[{"name":"","type":"uint256","internalType":"uint256"}],"stateMutability":"view"},{"type":"function","name":"calc_token_amount","inputs":[{"name":"amounts","type":"uint256[3]","internalType":"uint256[3]"},{"name":"deposit","type":"bool","internalType":"bool"}],"outputs":[{"name":"","type":"uint256","internalType":"uint256"}],"stateMutability":"view"},{"type":"function","name":"calc_withdraw_one_coin","inputs":[{"name":"_token_amount","type":"uint256","internalType":"uint256"},{"name":"i","type":"uint256","internalType":"uint256"}],"outputs":[{"name":"","type":"uint256","internalType":"uint256"}],"stateMutability":"view"},{"type":"function","name":"coins","inputs":[{"name":"","type":"uint256","internalType":"uint256"}],"outputs":[{"name":"","type":"address","internalType":"address"}],"stateMutability":"view"},{"type":"function","name":"commit_new_fee","inputs":[{"name":"new_fee","type":"uint256","internalType":"uint256"},{"name":"new_admin_fee","type":"uint256","internalType":"uint256"}],"outputs":[],"stateMutability":"nonpayable"},{"type":"function","name":"donate_admin_fees","inputs":[],"outputs":[],"stateMutability":"nonpayable"},{"type":"function","name":"exchange","inputs":[{"name":"i","type":"uint256","internalType":"uint256"},{"name":"j","type":"uint256","internalType":"uint256"},{"name":"dx","type":"uint256","internalType":"uint256"},{"name":"min_dy","type":"uint256","internalType":"uint256"}],"outputs":[],"stateMutability":"payable"},{"type":"function","name":"fee","inputs":[],"outputs":[{"name":"","type":"uint256","internalType":"uint256"}],"stateMutability":"view"},{"type":"function","name":"future_A","inputs":[],"outputs":[{"name":"","type":"uint256","internalType":"uint256"}],"stateMutability":"view"},{"type":"function","name":"future_A_time","inputs":[],"outputs":[{"name":"","type":"uint256","internalType":"uint256"}],"stateMutability":"view"},{"type":"function","name":"future_admin_fee","inputs":[],"outputs":[{"name":"","type":"uint256","internalType":"uint256"}],"stateMutability":"view"},{"type":"function","name":"future_fee","inputs":[],"outputs":[{"name":"","type":"uint256","internalType":"uint256"}],"stateMutability":"view"},{"type":"function","name":"get_dy","inputs":[{"name":"i","type":"uint256","internalType":"uint256"},{"name":"j","type":"uint256","internalType":"uint256"},{"name":"dx","type":"uint256","internalType":"uint256"}],"outputs":[{"name":"","type":"uint256","internalType":"uint256"}],"stateMutability":"view"},{"type":"function","name":"get_dy_underlying","inputs":[{"name":"i","type":"uint256","internalType":"uint256"},{"name":"j","type":"uint256","internalType":"uint256"},{"name":"dx","type":"uint256","internalType":"uint256"}],"outputs":[{"name":"","type":"uint256","internalType":"uint256"}],"stateMutability":"view"},{"type":"function","name":"get_virtual_price","inputs":[],"outputs":[{"name":"","type":"uint256","internalType":"uint256"}],"stateMutability":"view"},{"type":"function","name":"initial_A","inputs":[],"outputs":[{"name":"","type":"uint256","internalType":"uint256"}],"stateMutability":"view"},{"type":"function","name":"initial_A_time","inputs":[],"outputs":[{"name":"","type":"uint256","internalType":"uint256"}],"stateMutability":"view"},{"type":"function","name":"initialize","inputs":[{"name":"_coins","type":"address[3]","internalType":"address[3]"},{"name":"_A","type":"uint256","internalType":"uint256"},{"name":"_fee","type":"uint256","internalType":"uint256"},{"name":"_admin_fee","type":"uint256","internalType":"uint256"},{"name":"_owner","type":"address","internalType":"address"},{"name":"_LP","type":"address","internalType":"address"}],"outputs":[],"stateMutability":"nonpayable"},{"type":"function","name":"isInitialized","inputs":[],"outputs":[{"name":"","type":"bool","internalType":"bool"}],"stateMutability":"view"},{"type":"function","name":"is_killed","inputs":[],"outputs":[{"name":"","type":"bool","internalType":"bool"}],"stateMutability":"view"},{"type":"function","name":"kill_deadline","inputs":[],"outputs":[{"name":"","type":"uint256","internalType":"uint256"}],"stateMutability":"view"},{"type":"function","name":"kill_me","inputs":[],"outputs":[],"stateMutability":"nonpayable"},{"type":"function","name":"owner","inputs":[],"outputs":[{"name":"","type":"address","internalType":"address"}],"stateMutability":"view"},{"type":"function","name":"ramp_A","inputs":[{"name":"_future_A","type":"uint256","internalType":"uint256"},{"name":"_future_time","type":"uint256","internalType":"uint256"}],"outputs":[],"stateMutability":"nonpayable"},{"type":"function","name":"remove_liquidity","inputs":[{"name":"_amount","type":"uint256","internalType":"uint256"},{"name":"min_amounts","type":"uint256[3]","internalType":"uint256[3]"}],"outputs":[],"stateMutability":"nonpayable"},{"type":"function","name":"remove_liquidity_imbalance","inputs":[{"name":"amounts","type":"uint256[3]","internalType":"uint256[3]"},{"name":"max_burn_amount","type":"uint256","internalType":"uint256"}],"outputs":[],"stateMutability":"nonpayable"},{"type":"function","name":"remove_liquidity_one_coin","inputs":[{"name":"_token_amount","type":"uint256","internalType":"uint256"},{"name":"i","type":"uint256","internalType":"uint256"},{"name":"min_amount","type":"uint256","internalType":"uint256"}],"outputs":[],"stateMutability":"nonpayable"},{"type":"function","name":"renounceOwnership","inputs":[],"outputs":[],"stateMutability":"nonpayable"},{"type":"function","name":"revert_new_parameters","inputs":[],"outputs":[],"stateMutability":"nonpayable"},{"type":"function","name":"rose_gas","inputs":[],"outputs":[{"name":"","type":"uint256","internalType":"uint256"}],"stateMutability":"view"},{"type":"function","name":"set_rose_gas","inputs":[{"name":"_rose_gas","type":"uint256","internalType":"uint256"}],"outputs":[],"stateMutability":"nonpayable"},{"type":"function","name":"stop_rampget_A","inputs":[],"outputs":[],"stateMutability":"nonpayable"},{"type":"function","name":"token","inputs":[],"outputs":[{"name":"","type":"address","internalType":"contract IStableSwapLP"}],"stateMutability":"view"},{"type":"function","name":"transferOwnership","inputs":[{"name":"newOwner","type":"address","internalType":"address"}],"outputs":[],"stateMutability":"nonpayable"},{"type":"function","name":"unkill_me","inputs":[],"outputs":[],"stateMutability":"nonpayable"},{"type":"function","name":"withdraw_admin_fees","inputs":[],"outputs":[],"stateMutability":"nonpayable"},{"type":"event","name":"AddLiquidity","inputs":[{"name":"provider","type":"address","indexed":true,"internalType":"address"},{"name":"token_amounts","type":"uint256[3]","indexed":false,"internalType":"uint256[3]"},{"name":"fees","type":"uint256[3]","indexed":false,"internalType":"uint256[3]"},{"name":"invariant","type":"uint256","indexed":false,"internalType":"uint256"},{"name":"token_supply","type":"uint256","indexed":false,"internalType":"uint256"}],"anonymous":false},{"type":"event","name":"CommitNewFee","inputs":[{"name":"deadline","type":"uint256","indexed":true,"internalType":"uint256"},{"name":"fee","type":"uint256","indexed":false,"internalType":"uint256"},{"name":"admin_fee","type":"uint256","indexed":false,"internalType":"uint256"}],"anonymous":false},{"type":"event","name":"DonateAdminFees","inputs":[],"anonymous":false},{"type":"event","name":"Kill","inputs":[],"anonymous":false},{"type":"event","name":"NewFee","inputs":[{"name":"fee","type":"uint256","indexed":false,"internalType":"uint256"},{"name":"admin_fee","type":"uint256","indexed":false,"internalType":"uint256"}],"anonymous":false},{"type":"event","name":"OwnershipTransferred","inputs":[{"name":"previousOwner","type":"address","indexed":true,"internalType":"address"},{"name":"newOwner","type":"address","indexed":true,"internalType":"address"}],"anonymous":false},{"type":"event","name":"RampA","inputs":[{"name":"old_A","type":"uint256","indexed":false,"internalType":"uint256"},{"name":"new_A","type":"uint256","indexed":false,"internalType":"uint256"},{"name":"initial_time","type":"uint256","indexed":false,"internalType":"uint256"},{"name":"future_time","type":"uint256","indexed":false,"internalType":"uint256"}],"anonymous":false},{"type":"event","name":"RemoveLiquidity","inputs":[{"name":"provider","type":"address","indexed":true,"internalType":"address"},{"name":"token_amounts","type":"uint256[3]","indexed":false,"internalType":"uint256[3]"},{"name":"fees","type":"uint256[3]","indexed":false,"internalType":"uint256[3]"},{"name":"token_supply","type":"uint256","indexed":false,"internalType":"uint256"}],"anonymous":false},{"type":"event","name":"RemoveLiquidityImbalance","inputs":[{"name":"provider","type":"address","indexed":true,"internalType":"address"},{"name":"token_amounts","type":"uint256[3]","indexed":false,"internalType":"uint256[3]"},{"name":"fees","type":"uint256[3]","indexed":false,"internalType":"uint256[3]"},{"name":"invariant","type":"uint256","indexed":false,"internalType":"uint256"},{"name":"token_supply","type":"uint256","indexed":false,"internalType":"uint256"}],"anonymous":false},{"type":"event","name":"RemoveLiquidityOne","inputs":[{"name":"provider","type":"address","indexed":true,"internalType":"address"},{"name":"index","type":"uint256","indexed":false,"internalType":"uint256"},{"name":"token_amount","type":"uint256","indexed":false,"internalType":"uint256"},{"name":"coin_amount","type":"uint256","indexed":false,"internalType":"uint256"}],"anonymous":false},{"type":"event","name":"RevertParameters","inputs":[],"anonymous":false},{"type":"event","name":"SetROSEGas","inputs":[{"name":"rose_gas","type":"uint256","indexed":false,"internalType":"uint256"}],"anonymous":false},{"type":"event","name":"StopRampA","inputs":[{"name":"A","type":"uint256","indexed":false,"internalType":"uint256"},{"name":"t","type":"uint256","indexed":false,"internalType":"uint256"}],"anonymous":false},{"type":"event","name":"TokenExchange","inputs":[{"name":"buyer","type":"address","indexed":true,"internalType":"address"},{"name":"sold_id","type":"uint256","indexed":false,"internalType":"uint256"},{"name":"tokens_sold","type":"uint256","indexed":false,"internalType":"uint256"},{"name":"bought_id","type":"uint256","indexed":false,"internalType":"uint256"},{"name":"tokens_bought","type":"uint256","indexed":false,"internalType":"uint256"}],"anonymous":false},{"type":"event","name":"Unkill","inputs":[],"anonymous":false}],"bytecode":{"object":"0x60a0604052610fbd601055348015601557600080fd5b50601d336029565b60018055336080526079565b600080546001600160a01b038381166001600160a01b0319831681178455604051919092169283917f8be0079c531659141344cd1fd0a4f28419497f9722a3daafe3b4186f6b6457e09190a35050565b6080516146b661009b6000396000818161073e015261167e01526146b66000f3fe6080604052600436106103815760003560e01c80637dafa364116101d1578063ca8ca15411610102578063ecb586a5116100a0578063f3de03621161006f578063f3de036214610836578063f446c1d01461093e578063fc0c546a14610953578063fee3f7f91461097357600080fd5b8063ecb586a5146108c7578063edfb7801146108e7578063f1dc3cc9146108fe578063f2fde38b1461091e57600080fd5b8063e2e7d264116100dc578063e2e7d26414610865578063e369885314610885578063e38244621461089a578063e5d9e903146108b057600080fd5b8063ca8ca15414610821578063d73792a914610836578063ddca3f431461084f57600080fd5b8063aaf5eb681161016f578063b4b577ad11610149578063b4b577ad146107bd578063bb7b8b80146107d3578063bc063e1a146107e8578063c66106571461080157600080fd5b8063aaf5eb6814610776578063ab5ac06114610792578063b2b8a2c5146107a757600080fd5b80639c868ac0116101ab5780639c868ac0146106f25780639fdaea0c1461070c578063a6b0a7181461072c578063a97e1c921461076057600080fd5b80637dafa3641461068057806385f11d1e146106a05780638da5cb5b146106c057600080fd5b8063405e28f8116102b65780635409491a116102545780635b5a1467116102235780635b5a14671461061657806362203d74146106365780636d4366b714610656578063715018a61461066b57600080fd5b80635409491a146105b7578063556d6e9f146105cd57806358680d0b146105ed5780635b41b9081461060357600080fd5b80634eac4835116102905780634eac48351461054d5780634f12fe971461056d5780634fb08c5e14610582578063524c3901146105a257600080fd5b8063405e28f8146105045780634515cef31461051a5780634903b0d11461052d57600080fd5b80632a426896116103235780633883e119116102fd5780633883e1191461047e578063392e53cd1461049e57806339698415146104cd5780633c157e64146104e457600080fd5b80632a4268961461043e5780633046f9721461045457806330c540851461046957600080fd5b80632081066c1161035f5780632081066c146103dc578063226840fb146103f2578063270271a814610409578063293577501461042957600080fd5b806306e9481c1461038657806314052288146103b0578063193d983f146103c6575b600080fd5b34801561039257600080fd5b5061039d6201518081565b6040519081526020015b60405180910390f35b3480156103bc57600080fd5b5061039d60155481565b3480156103d257600080fd5b5061039d6159d881565b3480156103e857600080fd5b5061039d60145481565b3480156103fe57600080fd5b50610407610989565b005b34801561041557600080fd5b506104076104243660046140d1565b6109c1565b34801561043557600080fd5b5061039d600381565b34801561044a57600080fd5b5061039d60195481565b34801561046057600080fd5b50610407610a58565b34801561047557600080fd5b50610407610a95565b34801561048a57600080fd5b5061039d610499366004614189565b610be2565b3480156104aa57600080fd5b50601a546104bd90610100900460ff1681565b60405190151581526020016103a7565b3480156104d957600080fd5b5061039d620f424081565b3480156104f057600080fd5b506104076104ff3660046141c1565b610d9f565b34801561051057600080fd5b5061039d60165481565b6104076105283660046141e3565b610fac565b34801561053957600080fd5b5061039d6105483660046140d1565b611604565b34801561055957600080fd5b50610407610568366004614225565b61161b565b34801561057957600080fd5b50610407611a4e565b34801561058e57600080fd5b5061039d61059d3660046141c1565b611b58565b3480156105ae57600080fd5b50610407611b6e565b3480156105c357600080fd5b5061039d60125481565b3480156105d957600080fd5b5061039d6105e83660046142c7565b611c9d565b3480156105f957600080fd5b5061039d60175481565b6104076106113660046142f3565b611de7565b34801561062257600080fd5b506104076106313660046141c1565b6121b3565b34801561064257600080fd5b5061039d6106513660046140d1565b61230e565b34801561066257600080fd5b5061039d601281565b34801561067757600080fd5b5061040761231e565b34801561068c57600080fd5b5061039d61069b3660046140d1565b612332565b3480156106ac57600080fd5b5061039d6106bb3660046142c7565b612342565b3480156106cc57600080fd5b506000546001600160a01b03165b6040516001600160a01b0390911681526020016103a7565b3480156106fe57600080fd5b50601a546104bd9060ff1681565b34801561071857600080fd5b506104076107273660046141e3565b612420565b34801561073857600080fd5b506106da7f000000000000000000000000000000000000000000000000000000000000000081565b34801561076c57600080fd5b5061039d6108fc81565b34801561078257600080fd5b5061039d670de0b6b3a764000081565b34801561079e57600080fd5b5061039d600a81565b3480156107b357600080fd5b5061039d60105481565b3480156107c957600080fd5b5061039d60135481565b3480156107df57600080fd5b5061039d6129e1565b3480156107f457600080fd5b5061039d64012a05f20081565b34801561080d57600080fd5b506106da61081c3660046140d1565b612a9d565b34801561082d57600080fd5b50610407612abd565b34801561084257600080fd5b5061039d6402540be40081565b34801561085b57600080fd5b5061039d600e5481565b34801561087157600080fd5b5061039d6108803660046140d1565b612b1e565b34801561089157600080fd5b50610407612c19565b3480156108a657600080fd5b5061039d60185481565b3480156108bc57600080fd5b5061039d6203f48081565b3480156108d357600080fd5b506104076108e2366004614325565b612c9e565b3480156108f357600080fd5b5061039d624f1a0081565b34801561090a57600080fd5b506104076109193660046142c7565b612efa565b34801561092a57600080fd5b50610407610939366004614352565b6130b4565b34801561094a57600080fd5b5061039d61312a565b34801561095f57600080fd5b506011546106da906001600160a01b031681565b34801561097f57600080fd5b5061039d600f5481565b610991613139565b600060168190556040517f1b4883af197c705114490f8d84f9ce30bef6a6199f7b7b649e845577cf0769a19190a1565b6109c9613139565b6108fc81101580156109dd57506159d88111155b610a1c5760405162461bcd60e51b815260206004820152600b60248201526a496c6c6567616c2067617360a81b60448201526064015b60405180910390fd5b60108190556040518181527f535533646ff25874ff322c27a44e684b16c906ef818ae694d70794ec40860e2e906020015b60405180910390a150565b610a60613139565b601a805460ff191690556040517f061284ffa2814ace135f62907c78a7cff0f070efe7e6a0a42740ea1da2c8bdc890600090a1565b610a9d613139565b60005b6003811015610bdf57600073eeeeeeeeeeeeeeeeeeeeeeeeeeeeeeeeeeeeeeee60088360038110610ad357610ad361436d565b01546001600160a01b031603610b0957600b8260038110610af657610af661436d565b0154610b029047614399565b9050610ba9565b600b8260038110610b1c57610b1c61436d565b015460088360038110610b3157610b3161436d565b01546040516370a0823160e01b81523060048201526001600160a01b03909116906370a0823190602401602060405180830381865afa158015610b78573d6000803e3d6000fd5b505050506040513d601f19601f82011682018060405250810190610b9c91906143ac565b610ba69190614399565b90505b8015610bd657610bd660088360038110610bc557610bc561436d565b01546001600160a01b031682613193565b50600101610aa0565b50565b604080516060810191829052600091829190600b9060039082845b815481526020019060010190808311610bfd57505050505090506000610c216131d6565b90506000610c2f8383613277565b905060005b6003811015610ccb578515610c8557868160038110610c5557610c5561436d565b6020020151848260038110610c6c57610c6c61436d565b60200201818151610c7d91906143c5565b905250610cc3565b868160038110610c9757610c9761436d565b6020020151848260038110610cae57610cae61436d565b60200201818151610cbf9190614399565b9052505b600101610c34565b506000610cd88484613277565b90506000601160009054906101000a90046001600160a01b03166001600160a01b03166318160ddd6040518163ffffffff1660e01b8152600401602060405180830381865afa158015610d2f573d6000803e3d6000fd5b505050506040513d601f19601f82011682018060405250810190610d5391906143ac565b905060008715610d6e57610d678484614399565b9050610d7b565b610d788385614399565b90505b83610d8683836143d8565b610d9091906143ef565b96505050505050505b92915050565b610da7613139565b62015180601454610db891906143c5565b421015610df95760405162461bcd60e51b815260206004820152600f60248201526e646576203a20746f6f206561726c7960881b6044820152606401610a13565b610e0662015180426143c5565b811015610e4e5760405162461bcd60e51b81526020600482015260166024820152756465763a20696e73756666696369656e742074696d6560501b6044820152606401610a13565b6000610e586131d6565b9050600083118015610e6c5750620f424083105b610ec65760405162461bcd60e51b815260206004820152602560248201527f5f6675747572655f41206d757374206265206265747765656e203020616e64206044820152644d41585f4160d81b6064820152608401610a13565b808310158015610ee05750610edc600a826143d8565b8311155b80610eff57508083108015610eff575080610efc600a856143d8565b10155b610f4b5760405162461bcd60e51b815260206004820152601b60248201527f496c6c6567616c20706172616d65746572205f6675747572655f4100000000006044820152606401610a13565b60128190556013839055426014819055601583905560408051838152602081018690528082019290925260608201849052517fa2b71ec6df949300b59aab36b55e189697b750119dd349fcfa8c0f779e83c2549181900360800190a1505050565b610fb4613292565b601a5460ff1615610fd75760405162461bcd60e51b8152600401610a1390614411565b601154600160a01b900460ff166110065734156110065760405162461bcd60e51b8152600401610a1390614431565b61100e61401c565b600061101c60016003614399565b6110279060046143d8565b6003600e5461103691906143d8565b61104091906143ef565b600f5490915060006110506131d6565b90506000601160009054906101000a90046001600160a01b03166001600160a01b03166318160ddd6040518163ffffffff1660e01b8152600401602060405180830381865afa1580156110a7573d6000803e3d6000fd5b505050506040513d601f19601f820116820180604052508101906110cb91906143ac565b6040805160608101918290529192506000918291600b9060039082845b8154815260200190600101908083116110e857505050505090506000831115611118576111158185613277565b91505b60006040518060600160405280836000600381106111385761113861436d565b60200201518152602001836001600381106111555761115561436d565b60200201518152602001836002600381106111725761117261436d565b60200201519052905060005b600381101561125757846000036112005760008b82600381106111a3576111a361436d565b6020020151116112005760405162461bcd60e51b815260206004820152602260248201527f496e697469616c206465706f73697420726571756972657320616c6c20636f696044820152616e7360f01b6064820152608401610a13565b8a81600381106112125761121261436d565b60200201518382600381106112295761122961436d565b602002015161123891906143c5565b82826003811061124a5761124a61436d565b602002015260010161117e565b5060006112648287613277565b90508381116112b55760405162461bcd60e51b815260206004820152601a60248201527f4431206d7573742062652067726561746572207468616e2044300000000000006044820152606401610a13565b8085156114575760005b6003811015611445576000868683600381106112dd576112dd61436d565b60200201516112ec90866143d8565b6112f691906143ef565b9050600085836003811061130c5761130c61436d565b60200201518211156113405785836003811061132a5761132a61436d565b60200201516113399083614399565b9050611365565b818684600381106113535761135361436d565b60200201516113629190614399565b90505b6402540be400611375828e6143d8565b61137f91906143ef565b8d84600381106113915761139161436d565b60200201526402540be4008b8e85600381106113af576113af61436d565b60200201516113be91906143d8565b6113c891906143ef565b8684600381106113da576113da61436d565b60200201516113e99190614399565b600b84600381106113fc576113fc61436d565b01558c83600381106114105761141061436d565b60200201518684600381106114275761142761436d565b602002018181516114389190614399565b90525050506001016112bf565b506114508388613277565b9050611466565b611464600b84600361403a565b505b600086600003611477575081611499565b856114828184614399565b61148c90896143d8565b61149691906143ef565b90505b8b8110156114e05760405162461bcd60e51b8152602060048201526014602482015273536c697070616765207363726577656420796f7560601b6044820152606401610a13565b60005b600381101561153d5760008e82600381106115005761150061436d565b6020020151905060006008836003811061151c5761151c61436d565b01546001600160a01b0316905061153381836132eb565b50506001016114e3565b506011546040516340c10f1960e01b8152336004820152602481018390526001600160a01b03909116906340c10f1990604401600060405180830381600087803b15801561158a57600080fd5b505af115801561159e573d6000803e3d6000fd5b503392507f423f6495a08fc652425cf4ed0d1f9e37e571d9b9529b1c1c23cce780b2e7df0d91508f90508d866115d4868d6143c5565b6040516115e49493929190614483565b60405180910390a2505050505050505050505061160060018055565b5050565b600b816003811061161457600080fd5b0154905081565b601a54610100900460ff16156116735760405162461bcd60e51b815260206004820152601f60248201527f4f7065726174696f6e733a20416c726561647920696e697469616c697a6564006044820152606401610a13565b336001600160a01b037f000000000000000000000000000000000000000000000000000000000000000016146116eb5760405162461bcd60e51b815260206004820152601760248201527f4f7065726174696f6e733a204e6f7420666163746f72790000000000000000006044820152606401610a13565b620f42408511156117335760405162461bcd60e51b81526020600482015260126024820152715f412065786365656473206d6178696d756d60701b6044820152606401610a13565b64012a05f20084111561177f5760405162461bcd60e51b81526020600482015260146024820152735f6665652065786365656473206d6178696d756d60601b6044820152606401610a13565b6402540be4008311156117d45760405162461bcd60e51b815260206004820152601a60248201527f5f61646d696e5f6665652065786365656473206d6178696d756d0000000000006044820152606401610a13565b601a805461ff00191661010017905560005b60038110156119ef5760008782600381106118035761180361436d565b60200201516001600160a01b03160361184d5760405162461bcd60e51b815260206004820152600c60248201526b5a45524f204164647265737360a01b6044820152606401610a13565b600073eeeeeeeeeeeeeeeeeeeeeeeeeeeeeeeeeeeeeeee8883600381106118765761187661436d565b60200201516001600160a01b0316036118a457506011805460ff60a01b1916600160a01b1790556012611922565b8782600381106118b6576118b661436d565b60200201516001600160a01b031663313ce5676040518163ffffffff1660e01b8152600401602060405180830381865afa1580156118f8573d6000803e3d6000fd5b505050506040513d601f19601f8201168201806040525081019061191c91906144b1565b60ff1690505b601281111561197f5760405162461bcd60e51b8152602060048201526024808201527f546865206d6178696d756d20646563696d616c2063616e6e6f742065786365656044820152630c84062760e31b6064820152608401610a13565b61198a816012614399565b61199590600a6145bb565b600283600381106119a8576119a861436d565b0155600282600381106119bd576119bd61436d565b01546119d190670de0b6b3a76400006143d8565b600583600381106119e4576119e461436d565b0155506001016117e6565b506119fd6008876003614074565b5060128590556013859055600e849055600f839055611a1f624f1a00426143c5565b601955601180546001600160a01b0319166001600160a01b038316179055611a46826130b4565b505050505050565b611a56613139565b601654421015611aa15760405162461bcd60e51b81526020600482015260166024820152756465763a20696e73756666696369656e742074696d6560501b6044820152606401610a13565b601654600003611b025760405162461bcd60e51b815260206004820152602660248201527f61646d696e5f616374696f6e735f646561646c696e652073686f756c64206e6f60448201526507420626520360d41b6064820152608401610a13565b6000601655601754600e819055601854600f8190556040517fbe12859b636aed607d5230b2cc2711f68d70e51060e6cca1f575ef5d2fcc95d192611b4e92908252602082015260400190565b60405180910390a1565b600080611b658484613344565b50949350505050565b611b76613139565b60005b6003811015611c715773eeeeeeeeeeeeeeeeeeeeeeeeeeeeeeeeeeeeeeee60088260038110611baa57611baa61436d565b01546001600160a01b031603611bd55747600b8260038110611bce57611bce61436d565b0155611c69565b60088160038110611be857611be861436d565b01546040516370a0823160e01b81523060048201526001600160a01b03909116906370a0823190602401602060405180830381865afa158015611c2f573d6000803e3d6000fd5b505050506040513d601f19601f82011682018060405250810190611c5391906143ac565b600b8260038110611c6657611c6661436d565b01555b600101611b79565b506040517f2c7203581ca666b8c5094c11c03f0b19b3750234a9d281bcbc88a260bcb006de90600090a1565b60408051606081019182905260009182919060059060039082845b815481526020019060010190808311611cb857505050505090506000611cdc61363a565b90506000670de0b6b3a7640000838860038110611cfb57611cfb61436d565b6020020151611d0a90876143d8565b611d1491906143ef565b828860038110611d2657611d2661436d565b6020020151611d3591906143c5565b90506000611d45888884866136ea565b90506000848860038110611d5b57611d5b61436d565b6020020151670de0b6b3a7640000600184878c60038110611d7e57611d7e61436d565b6020020151611d8d9190614399565b611d979190614399565b611da191906143d8565b611dab91906143ef565b905060006402540be40082600e54611dc391906143d8565b611dcd91906143ef565b9050611dd98183614399565b9a9950505050505050505050565b611def613292565b601a5460ff1615611e125760405162461bcd60e51b8152600401610a1390614411565b601154600160a01b900460ff16611e41573415611e415760405162461bcd60e51b8152600401610a1390614431565b604080516060810191829052600091600b9060039082845b815481526020019060010190808311611e5957505050505090506000611e7e826138cc565b90506000670de0b6b3a764000060058860038110611e9e57611e9e61436d565b0154611eaa90876143d8565b611eb491906143ef565b828860038110611ec657611ec661436d565b6020020151611ed591906143c5565b90506000611ee5888884866136ea565b90506000600182858a60038110611efe57611efe61436d565b6020020151611f0d9190614399565b611f179190614399565b905060006402540be400600e5483611f2f91906143d8565b611f3991906143ef565b905060058960038110611f4e57611f4e61436d565b0154670de0b6b3a7640000611f638385614399565b611f6d91906143d8565b611f7791906143ef565b915086821015611fe05760405162461bcd60e51b815260206004820152602e60248201527f45786368616e676520726573756c74656420696e20666577657220636f696e7360448201526d081d1a185b88195e1c1958dd195960921b6064820152608401610a13565b60006402540be400600f5483611ff691906143d8565b61200091906143ef565b905060058a600381106120155761201561436d565b0154612029670de0b6b3a7640000836143d8565b61203391906143ef565b905088878c600381106120485761204861436d565b602002015161205791906143c5565b600b8c6003811061206a5761206a61436d565b01558083888c600381106120805761208061436d565b602002015161208f9190614399565b6120999190614399565b600b8b600381106120ac576120ac61436d565b0155600060088c600381106120c3576120c361436d565b01546001600160a01b0316905073eeeeeeeeeeeeeeeeeeeeeeeeeeeeeeeeeeeeeeed19810161211057348a1461210b5760405162461bcd60e51b8152600401610a1390614431565b612125565b6121256001600160a01b03821633308d613980565b600060088c6003811061213a5761213a61436d565b01546001600160a01b031690506121518186613193565b604080518e8152602081018d90529081018d90526060810186905233907fb2e76ae99761dc136e598d4a629bb347eccb9532a5f8bbd72e18467c3c34cc989060800160405180910390a25050505050505050506121ad60018055565b50505050565b6121bb613139565b6016541561220b5760405162461bcd60e51b815260206004820181905260248201527f61646d696e5f616374696f6e735f646561646c696e65206d75737420626520306044820152606401610a13565b64012a05f2008211156122605760405162461bcd60e51b815260206004820152601860248201527f6465763a206665652065786365656473206d6178696d756d00000000000000006044820152606401610a13565b6402540be4008111156122b55760405162461bcd60e51b815260206004820152601e60248201527f6465763a2061646d696e206665652065786365656473206d6178696d756d00006044820152606401610a13565b6122c26203f480426143c5565b60168190556017839055601882905560408051848152602081018490527f351fc5da2fbf480f2225debf3664a4bc90fa9923743aad58b4603f648e931fe0910160405180910390a25050565b6005816003811061161457600080fd5b612326613139565b61233060006139eb565b565b6002816003811061161457600080fd5b60008061234d61363a565b6040805160608101918290529192506000919060029060039082845b815481526020019060010190808311612369575050505050905060008187600381106123975761239761436d565b60200201516123a690866143d8565b8388600381106123b8576123b861436d565b60200201516123c791906143c5565b905060006123d7888884876136ea565b905060008388600381106123ed576123ed61436d565b6020020151600183878b600381106124075761240761436d565b60200201516124169190614399565b611da19190614399565b612428613292565b601a5460ff161561244b5760405162461bcd60e51b8152600401610a1390614411565b601154604080516318160ddd60e01b815290516000926001600160a01b0316916318160ddd9160048083019260209291908290030181865afa158015612495573d6000803e3d6000fd5b505050506040513d601f19601f820116820180604052508101906124b991906143ac565b9050600081116125045760405162461bcd60e51b81526020600482015260166024820152756465763a207a65726f20746f74616c20737570706c7960501b6044820152606401610a13565b600061251260016003614399565b61251d9060046143d8565b6003600e5461252c91906143d8565b61253691906143ef565b600f5490915060006125466131d6565b60408051606081019182905291925060009190600b9060039082845b8154815260200190600101908083116125625750505050509050600060405180606001604052808360006003811061259c5761259c61436d565b60200201518152602001836001600381106125b9576125b961436d565b60200201518152602001836002600381106125d6576125d661436d565b60200201519052905060006125eb8385613277565b905060005b600381101561263e5789816003811061260b5761260b61436d565b60200201518382600381106126225761262261436d565b602002018181516126339190614399565b9052506001016125f0565b50600061264b8386613277565b905061265561401c565b60005b60038110156127de576000848783600381106126765761267661436d565b602002015161268590866143d8565b61268f91906143ef565b905060008683600381106126a5576126a561436d565b60200201518211156126d9578683600381106126c3576126c361436d565b60200201516126d29083614399565b90506126fe565b818784600381106126ec576126ec61436d565b60200201516126fb9190614399565b90505b6402540be40061270e828d6143d8565b61271891906143ef565b84846003811061272a5761272a61436d565b60200201526402540be4008a8585600381106127485761274861436d565b602002015161275791906143d8565b61276191906143ef565b8784600381106127735761277361436d565b60200201516127829190614399565b600b84600381106127955761279561436d565b01558383600381106127a9576127a961436d565b60200201518784600381106127c0576127c061436d565b602002018181516127d19190614399565b9052505050600101612658565b5060006127eb8588613277565b90506000848b6127fb8483614399565b61280591906143d8565b61280f91906143ef565b90506000811161286d5760405162461bcd60e51b815260206004820152602360248201527f746f6b656e5f616d6f756e74206d75737420626520677265617465722074686160448201526206e20360ec1b6064820152608401610a13565b6128786001826143c5565b90508b8111156128c15760405162461bcd60e51b8152602060048201526014602482015273536c697070616765207363726577656420796f7560601b6044820152606401610a13565b60115460405163079cc67960e41b8152336004820152602481018390526001600160a01b03909116906379cc679090604401600060405180830381600087803b15801561290d57600080fd5b505af1158015612921573d6000803e3d6000fd5b5050505060005b60038110156129955760008e82600381106129455761294561436d565b6020020151111561298d5761298d600882600381106129665761296661436d565b01546001600160a01b03168f83600381106129835761298361436d565b6020020151613193565b600101612928565b506129a0818c614399565b9a50336001600160a01b03167f173599dbf9c6ca6f7c3b590df07ae98a45d74ff54065505141e7de6c46a624c28e85878f6040516115e49493929190614483565b6000806129fc6129ef61363a565b6129f76131d6565b613a3b565b90506000601160009054906101000a90046001600160a01b03166001600160a01b03166318160ddd6040518163ffffffff1660e01b8152600401602060405180830381865afa158015612a53573d6000803e3d6000fd5b505050506040513d601f19601f82011682018060405250810190612a7791906143ac565b905080612a8c670de0b6b3a7640000846143d8565b612a9691906143ef565b9250505090565b60088160038110612aad57600080fd5b01546001600160a01b0316905081565b612ac5613139565b6000612acf6131d6565b6012819055601381905542601481905560158190556040519192507f46e22fb3709ad289f62ce63d469248536dbc78d82b84a3d7e74ad606dc20193891610a4d91848252602082015260400190565b600073eeeeeeeeeeeeeeeeeeeeeeeeeeeeeeeeeeeeeeee60088360038110612b4857612b4861436d565b01546001600160a01b031603612b7757600b8260038110612b6b57612b6b61436d565b0154610d999047614399565b600b8260038110612b8a57612b8a61436d565b015460088360038110612b9f57612b9f61436d565b01546040516370a0823160e01b81523060048201526001600160a01b03909116906370a0823190602401602060405180830381865afa158015612be6573d6000803e3d6000fd5b505050506040513d601f19601f82011682018060405250810190612c0a91906143ac565b610d999190614399565b919050565b612c21613139565b4260195411612c665760405162461bcd60e51b8152602060048201526011602482015270457863656564656420646561646c696e6560781b6044820152606401610a13565b601a805460ff191660011790556040517fbe26733c2bf6ff3ea5ba8cfe744422bd49052ff9ed5685c9e81e6f9321dbaddd90600090a1565b612ca6613292565b601154604080516318160ddd60e01b815290516000926001600160a01b0316916318160ddd9160048083019260209291908290030181865afa158015612cf0573d6000803e3d6000fd5b505050506040513d601f19601f82011682018060405250810190612d1491906143ac565b9050612d1e61401c565b612d2661401c565b60005b6003811015612e415760008487600b8460038110612d4957612d4961436d565b0154612d5591906143d8565b612d5f91906143ef565b9050858260038110612d7357612d7361436d565b6020020151811015612de05760405162461bcd60e51b815260206004820152603060248201527f5769746864726177616c20726573756c74656420696e20666577657220636f6960448201526f1b9cc81d1a185b88195e1c1958dd195960821b6064820152608401610a13565b80600b8360038110612df457612df461436d565b016000828254612e049190614399565b90915550819050848360038110612e1d57612e1d61436d565b6020020152612e3860088360038110610bc557610bc561436d565b50600101612d29565b5060115460405163079cc67960e41b8152336004820152602481018790526001600160a01b03909116906379cc679090604401600060405180830381600087803b158015612e8e57600080fd5b505af1158015612ea2573d6000803e3d6000fd5b503392507fa49d4cf02656aebf8c771f5a8585638a2a15ee6c97cf7205d4208ed7c1df252d915084905083612ed78988614399565b604051612ee6939291906145c7565b60405180910390a250505061160060018055565b612f02613292565b601a5460ff1615612f255760405162461bcd60e51b8152600401610a1390614411565b600080612f328585613344565b9150915082821015612f865760405162461bcd60e51b815260206004820152601860248201527f4e6f7420656e6f75676820636f696e732072656d6f76656400000000000000006044820152606401610a13565b6402540be400600f5482612f9a91906143d8565b612fa491906143ef565b612fae90836143c5565b600b8560038110612fc157612fc161436d565b016000828254612fd19190614399565b909155505060115460405163079cc67960e41b8152336004820152602481018790526001600160a01b03909116906379cc679090604401600060405180830381600087803b15801561302257600080fd5b505af1158015613036573d6000803e3d6000fd5b50505050613061600885600381106130505761305061436d565b01546001600160a01b031683613193565b604080518581526020810187905290810183905233907f5ad056f2e28a8cec232015406b843668c1e36cda598127ec3b8c59b8c72773a09060600160405180910390a250506130af60018055565b505050565b6130bc613139565b6001600160a01b0381166131215760405162461bcd60e51b815260206004820152602660248201527f4f776e61626c653a206e6577206f776e657220697320746865207a65726f206160448201526564647265737360d01b6064820152608401610a13565b610bdf816139eb565b60006131346131d6565b905090565b6000546001600160a01b031633146123305760405162461bcd60e51b815260206004820181905260248201527f4f776e61626c653a2063616c6c6572206973206e6f7420746865206f776e65726044820152606401610a13565b73eeeeeeeeeeeeeeeeeeeeeeeeeeeeeeeeeeeeeeed196001600160a01b038316016131c2576116003382613bb6565b6116006001600160a01b0383163383613c54565b6015546013546000919042821115610d99576012546014548183111561323b576132008185614399565b61320a8242614399565b6132148486614399565b61321e91906143d8565b61322891906143ef565b61323290836143c5565b94505050505090565b6132458185614399565b61324f8242614399565b6132598585614399565b61326391906143d8565b61326d91906143ef565b6132329083614399565b600061328b613285846138cc565b83613a3b565b9392505050565b6002600154036132e45760405162461bcd60e51b815260206004820152601f60248201527f5265656e7472616e637947756172643a207265656e7472616e742063616c6c006044820152606401610a13565b6002600155565b73eeeeeeeeeeeeeeeeeeeeeeeeeeeeeeeeeeeeeeed196001600160a01b0383160161332f573481146116005760405162461bcd60e51b8152600401610a1390614431565b6116006001600160a01b038316333084613980565b60008060006133516131d6565b9050600061336160016003614399565b61336c9060046143d8565b6003600e5461337b91906143d8565b61338591906143ef565b6040805160608101918290529192506000919060029060039082845b8154815260200190600101908083116133a157505050505090506000601160009054906101000a90046001600160a01b03166001600160a01b03166318160ddd6040518163ffffffff1660e01b8152600401602060405180830381865afa158015613410573d6000803e3d6000fd5b505050506040513d601f19601f8201168201806040525081019061343491906143ac565b9050600061344061363a565b9050600061344e8287613a3b565b905060008361345d838d6143d8565b61346791906143ef565b6134719083614399565b9050826000613482898d8486613c84565b90506000878d600381106134985761349861436d565b602002015182878f600381106134b0576134b061436d565b60200201516134bf9190614399565b6134c991906143ef565b905060005b60038110156135b95760008e820361351f578387878a85600381106134f5576134f561436d565b602002015161350491906143d8565b61350e91906143ef565b6135189190614399565b9050613570565b86868984600381106135335761353361436d565b602002015161354291906143d8565b61354c91906143ef565b88836003811061355e5761355e61436d565b602002015161356d9190614399565b90505b6402540be400613580828d6143d8565b61358a91906143ef565b85836003811061359c5761359c61436d565b602002018181516135ad9190614399565b905250506001016134ce565b5060006135c88b8f8688613c84565b848f600381106135da576135da61436d565b60200201516135e99190614399565b9050888e600381106135fd576135fd61436d565b602002015161360d600183614399565b61361791906143ef565b9050806136248184614399565b9c509c5050505050505050505050509250929050565b61364261401c565b6040805160608101918290529060059060039082845b815481526020019060010190808311613658575050505050905060005b60038110156136e657670de0b6b3a7640000600b826003811061369a5761369a61436d565b01548383600381106136ae576136ae61436d565b60200201516136bd91906143d8565b6136c791906143ef565b8282600381106136d9576136d961436d565b6020020152600101613675565b5090565b60008385141580156136fc5750600385105b80156137085750600384105b6137485760405162461bcd60e51b815260206004820152601160248201527024b63632b3b0b6103830b930b6b2ba32b960791b6044820152606401610a13565b60006137526131d6565b905060006137608483613a3b565b9050806000806137716003866143d8565b90506000805b60038110156137ef578b810361378f578991506137b9565b8a81146137b4578881600381106137a8576137a861436d565b602002015191506137b9565b6137e7565b6137c382856143c5565b93506137d06003836143d8565b6137da87876143d8565b6137e491906143ef565b94505b600101613777565b506137fb6003836143d8565b61380586866143d8565b61380f91906143ef565b9350600061381d83876143ef565b61382790856143c5565b9050600086815b60ff8110156138b857819250888483600261384991906143d8565b61385391906143c5565b61385d9190614399565b8861386884806143d8565b61387291906143c5565b61387c91906143ef565b91508282111561389d5760016138928484614399565b11156138b8576138b0565b60016138a98385614399565b11156138b8575b60010161382e565b50985050505050505050505b949350505050565b6138d461401c565b6040805160608101918290529060059060039082845b8154815260200190600101908083116138ea575050505050905060005b600381101561397a57670de0b6b3a764000083826003811061392b5761392b61436d565b60200201518383600381106139425761394261436d565b602002015161395191906143d8565b61395b91906143ef565b82826003811061396d5761396d61436d565b6020020152600101613907565b50919050565b6040516001600160a01b03808516602483015283166044820152606481018290526121ad9085906323b872dd60e01b906084015b60408051601f198184030181529190526020810180516001600160e01b03166001600160e01b031990931692909217909152613e24565b600080546001600160a01b038381166001600160a01b0319831681178455604051919092169283917f8be0079c531659141344cd1fd0a4f28419497f9722a3daafe3b4186f6b6457e09190a35050565b60008060005b6003811015613a7557848160038110613a5c57613a5c61436d565b6020020151613a6b90836143c5565b9150600101613a41565b5080600003613a88576000915050610d99565b60008181613a976003876143d8565b905060005b60ff811015613baa578260005b6003811015613af35760038a8260038110613ac657613ac661436d565b6020020151613ad591906143d8565b613adf86846143d8565b613ae991906143ef565b9150600101613aa9565b508394508060036001613b0691906143c5565b613b1091906143d8565b84613b1c600186614399565b613b2691906143d8565b613b3091906143c5565b84613b3c6003846143d8565b613b4689876143d8565b613b5091906143c5565b613b5a91906143d8565b613b6491906143ef565b935084841115613b8a576001613b7a8686614399565b11613b855750613baa565b613ba1565b6001613b968587614399565b11613ba15750613baa565b50600101613a9c565b50909695505050505050565b6000826001600160a01b031660105483604051600060405180830381858888f193505050503d8060008114613c07576040519150601f19603f3d011682016040523d82523d6000602084013e613c0c565b606091505b50509050806130af5760405162461bcd60e51b81526020600482015260146024820152731493d4d1481d1c985b9cd9995c8819985a5b195960621b6044820152606401610a13565b6040516001600160a01b0383166024820152604481018290526130af90849063a9059cbb60e01b906064016139b4565b600060038410613ccd5760405162461bcd60e51b81526020600482015260146024820152736465763a20692061626f7665204e5f434f494e5360601b6044820152606401610a13565b81600080613cdc6003896143d8565b90506000805b6003811015613d4b57888114613d1057878160038110613d0457613d0461436d565b60200201519150613d15565b613d43565b613d1f82856143c5565b9350613d2c6003836143d8565b613d3688876143d8565b613d4091906143ef565b94505b600101613ce2565b50613d576003836143d8565b613d6187866143d8565b613d6b91906143ef565b93506000613d7983886143ef565b613d8390856143c5565b9050600087815b60ff811015613e14578192508984836002613da591906143d8565b613daf91906143c5565b613db99190614399565b88613dc484806143d8565b613dce91906143c5565b613dd891906143ef565b915082821115613df9576001613dee8484614399565b1115613e1457613e0c565b6001613e058385614399565b1115613e14575b600101613d8a565b509b9a5050505050505050505050565b6000613e79826040518060400160405280602081526020017f5361666545524332303a206c6f772d6c6576656c2063616c6c206661696c6564815250856001600160a01b0316613ef99092919063ffffffff16565b9050805160001480613e9a575080806020019051810190613e9a91906145f0565b6130af5760405162461bcd60e51b815260206004820152602a60248201527f5361666545524332303a204552433230206f7065726174696f6e20646964206e6044820152691bdd081cdd58d8d9595960b21b6064820152608401610a13565b60606138c4848460008585600080866001600160a01b03168587604051613f209190614631565b60006040518083038185875af1925050503d8060008114613f5d576040519150601f19603f3d011682016040523d82523d6000602084013e613f62565b606091505b5091509150613f7387838387613f7e565b979650505050505050565b60608315613fed578251600003613fe6576001600160a01b0385163b613fe65760405162461bcd60e51b815260206004820152601d60248201527f416464726573733a2063616c6c20746f206e6f6e2d636f6e74726163740000006044820152606401610a13565b50816138c4565b6138c483838151156140025781518083602001fd5b8060405162461bcd60e51b8152600401610a13919061464d565b60405180606001604052806003906020820280368337509192915050565b8260038101928215614068579160200282015b8281111561406857825182559160200191906001019061404d565b506136e69291506140bc565b8260038101928215614068579160200282015b8281111561406857825182546001600160a01b0319166001600160a01b03909116178255602090920191600190910190614087565b5b808211156136e657600081556001016140bd565b6000602082840312156140e357600080fd5b5035919050565b604051601f8201601f1916810167ffffffffffffffff8111828210171561412157634e487b7160e01b600052604160045260246000fd5b604052919050565b600082601f83011261413a57600080fd5b61414460606140ea565b80606084018581111561415657600080fd5b845b81811015614170578035845260209384019301614158565b509095945050505050565b8015158114610bdf57600080fd5b6000806080838503121561419c57600080fd5b6141a68484614129565b915060608301356141b68161417b565b809150509250929050565b600080604083850312156141d457600080fd5b50508035926020909101359150565b600080608083850312156141f657600080fd5b6142008484614129565b946060939093013593505050565b80356001600160a01b0381168114612c1457600080fd5b600080600080600080610100878903121561423f57600080fd5b87601f88011261424e57600080fd5b61425860606140ea565b80606089018a81111561426a57600080fd5b895b8181101561428b5761427d8161420e565b84526020938401930161426c565b50909750359550506080870135935060a087013592506142ad60c0880161420e565b91506142bb60e0880161420e565b90509295509295509295565b6000806000606084860312156142dc57600080fd5b505081359360208301359350604090920135919050565b6000806000806080858703121561430957600080fd5b5050823594602084013594506040840135936060013592509050565b6000806080838503121561433857600080fd5b823591506143498460208501614129565b90509250929050565b60006020828403121561436457600080fd5b61328b8261420e565b634e487b7160e01b600052603260045260246000fd5b634e487b7160e01b600052601160045260246000fd5b81810381811115610d9957610d99614383565b6000602082840312156143be57600080fd5b5051919050565b80820180821115610d9957610d99614383565b8082028115828204841417610d9957610d99614383565b60008261440c57634e487b7160e01b600052601260045260246000fd5b500490565b60208082526006908201526512da5b1b195960d21b604082015260600190565b602080825260159082015274496e636f6e73697374656e74207175616e7469747960581b604082015260600190565b8060005b60038110156121ad578151845260209384019390910190600101614464565b61010081016144928287614460565b61449f6060830186614460565b60c082019390935260e0015292915050565b6000602082840312156144c357600080fd5b815160ff8116811461328b57600080fd5b6001815b600184111561450f578085048111156144f3576144f3614383565b600184161561450157908102905b60019390931c9280026144d8565b935093915050565b60008261452657506001610d99565b8161453357506000610d99565b816001811461454957600281146145535761456f565b6001915050610d99565b60ff84111561456457614564614383565b50506001821b610d99565b5060208310610133831016604e8410600b8410161715614592575081810a610d99565b61459f60001984846144d4565b80600019048211156145b3576145b3614383565b029392505050565b600061328b8383614517565b60e081016145d58286614460565b6145e26060830185614460565b8260c0830152949350505050565b60006020828403121561460257600080fd5b815161328b8161417b565b60005b83811015614628578181015183820152602001614610565b50506000910152565b6000825161464381846020870161460d565b9190910192915050565b602081526000825180602084015261466c81604085016020870161460d565b601f01601f1916919091016040019291505056fea2646970667358221220ddaca6c9e9933b2cbb9b5f19a5bd5558bdba1b1c637f04b45374a6b73c5d342164736f6c634300081a0033","linkReferences":{}},"methodIdentifiers":{"A()":"f446c1d0","ADMIN_ACTIONS_DELAY()":"e5d9e903","FEE_DENOMINATOR()":"d73792a9","KILL_DEADLINE_DT()":"edfb7801","MAX_A()":"39698415","MAX_ADMIN_FEE()":"f3de0362","MAX_A_CHANGE()":"ab5ac061","MAX_DECIMAL()":"6d4366b7","MAX_FEE()":"bc063e1a","MAX_ROSE_gas()":"193d983f","MIN_RAMP_TIME()":"06e9481c","MIN_ROSE_gas()":"a97e1c92","N_COINS()":"29357750","PRECISION()":"aaf5eb68","PRECISION_MUL(uint256)":"7dafa364","RATES(uint256)":"62203d74","STABLESWAP_FACTORY()":"a6b0a718","add_liquidity(uint256[3],uint256)":"4515cef3","admin_actions_deadline()":"405e28f8","admin_balances(uint256)":"e2e7d264","admin_fee()":"fee3f7f9","apply_new_fee()":"4f12fe97","balances(uint256)":"4903b0d1","calc_token_amount(uint256[3],bool)":"3883e119","calc_withdraw_one_coin(uint256,uint256)":"4fb08c5e","coins(uint256)":"c6610657","commit_new_fee(uint256,uint256)":"5b5a1467","donate_admin_fees()":"524c3901","exchange(uint256,uint256,uint256,uint256)":"5b41b908","fee()":"ddca3f43","future_A()":"b4b577ad","future_A_time()":"14052288","future_admin_fee()":"e3824462","future_fee()":"58680d0b","get_dy(uint256,uint256,uint256)":"556d6e9f","get_dy_underlying(uint256,uint256,uint256)":"85f11d1e","get_virtual_price()":"bb7b8b80","initial_A()":"5409491a","initial_A_time()":"2081066c","initialize(address[3],uint256,uint256,uint256,address,address)":"4eac4835","isInitialized()":"392e53cd","is_killed()":"9c868ac0","kill_deadline()":"2a426896","kill_me()":"e3698853","owner()":"8da5cb5b","ramp_A(uint256,uint256)":"3c157e64","remove_liquidity(uint256,uint256[3])":"ecb586a5","remove_liquidity_imbalance(uint256[3],uint256)":"9fdaea0c","remove_liquidity_one_coin(uint256,uint256,uint256)":"f1dc3cc9","renounceOwnership()":"715018a6","revert_new_parameters()":"226840fb","rose_gas()":"b2b8a2c5","set_rose_gas(uint256)":"270271a8","stop_rampget_A()":"ca8ca154","token()":"fc0c546a","transferOwnership(address)":"f2fde38b","unkill_me()":"3046f972","withdraw_admin_fees()":"30c54085"},"id":18}