{"abi":[{"type":"receive","stateMutability":"payable"},{"type":"function","name":"computeAddress","inputs":[{"name":"addr","type":"address","internalType":"address"},{"name":"nonce","type":"uint256","internalType":"uint256"}],"outputs":[{"name":"","type":"address","internalType":"address"}],"stateMutability":"view"},{"type":"function","name":"deploy","inputs":[{"name":"amount","type":"uint256","internalType":"uint256"},{"name":"bytecode","type":"bytes","internalType":"bytes"}],"outputs":[{"name":"newContract","type":"address","internalType":"address"}],"stateMutability":"nonpayable"},{"type":"function","name":"deployContract","inputs":[{"name":"path","type":"string","internalType":"string"},{"name":"fileName","type":"string","internalType":"string"}],"outputs":[{"name":"","type":"address","internalType":"address"}],"stateMutability":"nonpayable"},{"type":"function","name":"deployContract","inputs":[{"name":"path","type":"string","internalType":"string"},{"name":"fileName","type":"string","internalType":"string"},{"name":"args","type":"bytes","internalType":"bytes"}],"outputs":[{"name":"","type":"address","internalType":"address"}],"stateMutability":"nonpayable"},{"type":"event","name":"ContractCreation","inputs":[{"name":"newContract","type":"address","indexed":false,"internalType":"address"}],"anonymous":false},{"type":"error","name":"DeploymentFailed","inputs":[{"name":"emitter","type":"address","internalType":"address"}]},{"type":"error","name":"Failed","inputs":[{"name":"emitter","type":"address","internalType":"address"}]},{"type":"error","name":"InsufficientBalance","inputs":[{"name":"emitter","type":"address","internalType":"address"}]},{"type":"error","name":"InvalidNonceValue","inputs":[{"name":"emitter","type":"address","internalType":"address"}]},{"type":"error","name":"ZeroBytecodeLength","inputs":[{"name":"emitter","type":"address","internalType":"address"}]}],"bytecode":{"object":"0x6080604052600080546001600160a01b031916737109709ecfa91a80626ff3989d68f67f5b1dd12d179055348015603557600080fd5b50610d2a806100456000396000f3fe6080604052600436106100435760003560e01c806336b5aa2d1461004f57806361ff715f1461008b578063e0bdf583146100ab578063ee0e6fd3146100cb57600080fd5b3661004a57005b600080fd5b34801561005b57600080fd5b5061006f61006a3660046108b7565b6100eb565b6040516001600160a01b03909116815260200160405180910390f35b34801561009757600080fd5b5061006f6100a636600461099a565b6104fc565b3480156100b757600080fd5b5061006f6100c6366004610a1b565b6105ba565b3480156100d757600080fd5b5061006f6100e6366004610a78565b610723565b60006060602560fa1b61010660016001600160401b03610b3b565b6001600160401b031684111561013657604051633c55ab3b60e01b81523060048201526024015b60405180910390fd5b8360000361019357604051606b60f91b60208201526001600160f81b0319821660218201526001600160601b0319606087901b166022820152600160ff1b60368201526037015b60405160208183030381529060405291506104ea565b607f84116101e057604051606b60f91b60208201526001600160f81b031980831660218301526001600160601b0319606088901b16602283015260f886901b16603682015260370161017d565b60ff84116102375760405160d760f81b60208201526001600160f81b031980831660218301526001600160601b0319606088901b166022830152608160f81b603683015260f886901b16603782015260380161017d565b61ffff841161029757604051601b60fb1b60208201526001600160f81b0319821660218201526001600160601b0319606087901b166022820152604160f91b60368201526001600160f01b031960f086901b16603782015260390161017d565b62ffffff84116102f85760405160d960f81b60208201526001600160f81b0319821660218201526001600160601b0319606087901b166022820152608360f81b60368201526001600160e81b031960e886901b166037820152603a0161017d565b63ffffffff841161035a57604051606d60f91b60208201526001600160f81b0319821660218201526001600160601b0319606087901b166022820152602160fa1b60368201526001600160e01b031960e086901b166037820152603b0161017d565b64ffffffffff84116103bd5760405160db60f81b60208201526001600160f81b0319821660218201526001600160601b0319606087901b166022820152608560f81b60368201526001600160d81b031960d886901b166037820152603c0161017d565b65ffffffffffff841161042157604051603760fa1b60208201526001600160f81b0319821660218201526001600160601b0319606087901b166022820152604360f91b60368201526001600160d01b031960d086901b166037820152603d0161017d565b66ffffffffffffff84116104865760405160dd60f81b60208201526001600160f81b0319821660218201526001600160601b0319606087901b166022820152608760f81b60368201526001600160c81b031960c886901b166037820152603e0161017d565b604051606f60f91b60208201526001600160f81b0319821660218201526001600160601b0319606087901b166022820152601160fb1b60368201526001600160c01b031960c086901b166037820152603f0160405160208183030381529060405291505b50805160209091012090505b92915050565b6000824710156105215760405163112fed8b60e31b815230600482015260240161012d565b8151600003610545576040516378506c0d60e01b815230600482015260240161012d565b81516020830184f090506001600160a01b0381166105785760405163b05e40a960e01b815230600482015260240161012d565b6040516001600160a01b03821681527f4db17dd5e4732fb6da34a148104a592783ca119a1e7bb8829eba6cbadef0b5119060200160405180910390a192915050565b60408051600280825260608201909252600091829190816020015b60608152602001906001900390816105d5579050509050604051806040016040528060058152602001643b3cb832b960d91b8152508160008151811061061d5761061d610b68565b6020026020010181905250838360405160200161063b929190610ba2565b6040516020818303038152906040528160018151811061065d5761065d610b68565b602090810291909101015260008054604051638916046760e01b81526001600160a01b0390911690638916046790610699908590600401610bdf565b6000604051808303816000875af11580156106b8573d6000803e3d6000fd5b505050506040513d6000823e601f3d908101601f191682016040526106e09190810190610c5f565b905060006106ef6000836104fc565b90506001600160a01b03811661071a57604051639deffc1b60e01b815230600482015260240161012d565b95945050505050565b60408051600280825260608201909252600091829190816020015b606081526020019060019003908161073e579050509050604051806040016040528060058152602001643b3cb832b960d91b8152508160008151811061078657610786610b68565b602002602001018190525085856040516020016107a4929190610ba2565b604051602081830303815290604052816001815181106107c6576107c6610b68565b602090810291909101015260008054604051638916046760e01b81526001600160a01b0390911690638916046790610802908590600401610bdf565b6000604051808303816000875af1158015610821573d6000803e3d6000fd5b505050506040513d6000823e601f3d908101601f191682016040526108499190810190610c5f565b9050600081868660405160200161086293929190610ccc565b604051602081830303815290604052905060006108806000836104fc565b90506001600160a01b0381166108ab57604051639deffc1b60e01b815230600482015260240161012d565b98975050505050505050565b600080604083850312156108ca57600080fd5b82356001600160a01b03811681146108e157600080fd5b946020939093013593505050565b634e487b7160e01b600052604160045260246000fd5b604051601f8201601f191681016001600160401b038111828210171561092d5761092d6108ef565b604052919050565b60006001600160401b0382111561094e5761094e6108ef565b50601f01601f191660200190565b600061096f61096a84610935565b610905565b905082815283838301111561098357600080fd5b828260208301376000602084830101529392505050565b600080604083850312156109ad57600080fd5b8235915060208301356001600160401b038111156109ca57600080fd5b8301601f810185136109db57600080fd5b6109ea8582356020840161095c565b9150509250929050565b600082601f830112610a0557600080fd5b610a148383356020850161095c565b9392505050565b60008060408385031215610a2e57600080fd5b82356001600160401b03811115610a4457600080fd5b610a50858286016109f4565b92505060208301356001600160401b03811115610a6c57600080fd5b6109ea858286016109f4565b60008060008060608587031215610a8e57600080fd5b84356001600160401b03811115610aa457600080fd5b610ab0878288016109f4565b94505060208501356001600160401b03811115610acc57600080fd5b610ad8878288016109f4565b93505060408501356001600160401b03811115610af457600080fd5b8501601f81018713610b0557600080fd5b80356001600160401b03811115610b1b57600080fd5b876020828401011115610b2d57600080fd5b949793965060200194505050565b6001600160401b0382811682821603908111156104f657634e487b7160e01b600052601160045260246000fd5b634e487b7160e01b600052603260045260246000fd5b60005b83811015610b99578181015183820152602001610b81565b50506000910152565b60008351610bb4818460208801610b7e565b835190830190610bc8818360208801610b7e565b622e767960e81b9101908152600301949350505050565b6000602082016020835280845180835260408501915060408160051b86010192506020860160005b82811015610c5357603f1987860301845281518051808752610c30816020890160208501610b7e565b601f01601f19169590950160209081019550938401939190910190600101610c07565b50929695505050505050565b600060208284031215610c7157600080fd5b81516001600160401b03811115610c8757600080fd5b8201601f81018413610c9857600080fd5b8051610ca661096a82610935565b818152856020838501011115610cbb57600080fd5b61071a826020830160208601610b7e565b60008451610cde818460208901610b7e565b820183858237600093019283525090939250505056fea264697066735822122060fede187587aa3106355aa3a8625475e256bf6779b2bc1c9e2ad44f2a0bab9064736f6c634300081a0033","linkReferences":{}},"methodIdentifiers":{"computeAddress(address,uint256)":"36b5aa2d","deploy(uint256,bytes)":"61ff715f","deployContract(string,string)":"e0bdf583","deployContract(string,string,bytes)":"ee0e6fd3"},"id":47}