{"abi":[{"type":"constructor","inputs":[],"stateMutability":"nonpayable"},{"type":"function","name":"allowance","inputs":[{"name":"owner","type":"address","internalType":"address"},{"name":"spender","type":"address","internalType":"address"}],"outputs":[{"name":"","type":"uint256","internalType":"uint256"}],"stateMutability":"view"},{"type":"function","name":"approve","inputs":[{"name":"spender","type":"address","internalType":"address"},{"name":"amount","type":"uint256","internalType":"uint256"}],"outputs":[{"name":"","type":"bool","internalType":"bool"}],"stateMutability":"nonpayable"},{"type":"function","name":"balanceOf","inputs":[{"name":"account","type":"address","internalType":"address"}],"outputs":[{"name":"","type":"uint256","internalType":"uint256"}],"stateMutability":"view"},{"type":"function","name":"burnFrom","inputs":[{"name":"_to","type":"address","internalType":"address"},{"name":"_amount","type":"uint256","internalType":"uint256"}],"outputs":[],"stateMutability":"nonpayable"},{"type":"function","name":"decimals","inputs":[],"outputs":[{"name":"","type":"uint8","internalType":"uint8"}],"stateMutability":"view"},{"type":"function","name":"decreaseAllowance","inputs":[{"name":"spender","type":"address","internalType":"address"},{"name":"subtractedValue","type":"uint256","internalType":"uint256"}],"outputs":[{"name":"","type":"bool","internalType":"bool"}],"stateMutability":"nonpayable"},{"type":"function","name":"increaseAllowance","inputs":[{"name":"spender","type":"address","internalType":"address"},{"name":"addedValue","type":"uint256","internalType":"uint256"}],"outputs":[{"name":"","type":"bool","internalType":"bool"}],"stateMutability":"nonpayable"},{"type":"function","name":"mint","inputs":[{"name":"_to","type":"address","internalType":"address"},{"name":"_amount","type":"uint256","internalType":"uint256"}],"outputs":[],"stateMutability":"nonpayable"},{"type":"function","name":"minter","inputs":[],"outputs":[{"name":"","type":"address","internalType":"address"}],"stateMutability":"view"},{"type":"function","name":"name","inputs":[],"outputs":[{"name":"","type":"string","internalType":"string"}],"stateMutability":"view"},{"type":"function","name":"setMinter","inputs":[{"name":"_newMinter","type":"address","internalType":"address"}],"outputs":[],"stateMutability":"nonpayable"},{"type":"function","name":"symbol","inputs":[],"outputs":[{"name":"","type":"string","internalType":"string"}],"stateMutability":"view"},{"type":"function","name":"totalSupply","inputs":[],"outputs":[{"name":"","type":"uint256","internalType":"uint256"}],"stateMutability":"view"},{"type":"function","name":"transfer","inputs":[{"name":"to","type":"address","internalType":"address"},{"name":"amount","type":"uint256","internalType":"uint256"}],"outputs":[{"name":"","type":"bool","internalType":"bool"}],"stateMutability":"nonpayable"},{"type":"function","name":"transferFrom","inputs":[{"name":"from","type":"address","internalType":"address"},{"name":"to","type":"address","internalType":"address"},{"name":"amount","type":"uint256","internalType":"uint256"}],"outputs":[{"name":"","type":"bool","internalType":"bool"}],"stateMutability":"nonpayable"},{"type":"event","name":"Approval","inputs":[{"name":"owner","type":"address","indexed":true,"internalType":"address"},{"name":"spender","type":"address","indexed":true,"internalType":"address"},{"name":"value","type":"uint256","indexed":false,"internalType":"uint256"}],"anonymous":false},{"type":"event","name":"Transfer","inputs":[{"name":"from","type":"address","indexed":true,"internalType":"address"},{"name":"to","type":"address","indexed":true,"internalType":"address"},{"name":"value","type":"uint256","indexed":false,"internalType":"uint256"}],"anonymous":false}],"bytecode":{"object":"0x608060405234801561001057600080fd5b506040518060400160405280600e81526020016d537461626c6553776170204c507360901b815250604051806040016040528060098152602001680537461626c652d4c560bc1b8152508160039081610069919061012f565b506004610076828261012f565b5050600580546001600160a01b03191633179055506101ed565b634e487b7160e01b600052604160045260246000fd5b600181811c908216806100ba57607f821691505b6020821081036100da57634e487b7160e01b600052602260045260246000fd5b50919050565b601f82111561012a57806000526020600020601f840160051c810160208510156101075750805b601f840160051c820191505b818110156101275760008155600101610113565b50505b505050565b81516001600160401b0381111561014857610148610090565b61015c8161015684546100a6565b846100e0565b6020601f82116001811461019057600083156101785750848201515b600019600385901b1c1916600184901b178455610127565b600084815260208120601f198516915b828110156101c057878501518255602094850194600190920191016101a0565b50848210156101de5786840151600019600387901b60f8161c191681555b50505050600190811b01905550565b610bcf806101fc6000396000f3fe608060405234801561001057600080fd5b50600436106100f55760003560e01c806340c10f1911610097578063a457c2d711610066578063a457c2d714610206578063a9059cbb14610219578063dd62ed3e1461022c578063fca3b5aa1461023f57600080fd5b806340c10f19146101ad57806370a08231146101c257806379cc6790146101eb57806395d89b41146101fe57600080fd5b806318160ddd116100d357806318160ddd1461016657806323b872dd14610178578063313ce5671461018b578063395093511461019a57600080fd5b806306fdde03146100fa5780630754617214610118578063095ea7b314610143575b600080fd5b610102610252565b60405161010f91906109f4565b60405180910390f35b60055461012b906001600160a01b031681565b6040516001600160a01b03909116815260200161010f565b610156610151366004610a5e565b6102e4565b604051901515815260200161010f565b6002545b60405190815260200161010f565b610156610186366004610a88565b6102fe565b6040516012815260200161010f565b6101566101a8366004610a5e565b610322565b6101c06101bb366004610a5e565b610344565b005b61016a6101d0366004610ac5565b6001600160a01b031660009081526020819052604090205490565b6101c06101f9366004610a5e565b610385565b6101026103b9565b610156610214366004610a5e565b6103c8565b610156610227366004610a5e565b610443565b61016a61023a366004610ae7565b610451565b6101c061024d366004610ac5565b61047c565b60606003805461026190610b1a565b80601f016020809104026020016040519081016040528092919081815260200182805461028d90610b1a565b80156102da5780601f106102af576101008083540402835291602001916102da565b820191906000526020600020905b8154815290600101906020018083116102bd57829003601f168201915b5050505050905090565b6000336102f28185856104c8565b60019150505b92915050565b60003361030c8582856105ed565b610317858585610667565b506001949350505050565b6000336102f28185856103358383610451565b61033f9190610b54565b6104c8565b6005546001600160a01b031633146103775760405162461bcd60e51b815260040161036e90610b75565b60405180910390fd5b610381828261080b565b5050565b6005546001600160a01b031633146103af5760405162461bcd60e51b815260040161036e90610b75565b61038182826108ca565b60606004805461026190610b1a565b600033816103d68286610451565b9050838110156104365760405162461bcd60e51b815260206004820152602560248201527f45524332303a2064656372656173656420616c6c6f77616e63652062656c6f77604482015264207a65726f60d81b606482015260840161036e565b61031782868684036104c8565b6000336102f2818585610667565b6001600160a01b03918216600090815260016020908152604080832093909416825291909152205490565b6005546001600160a01b031633146104a65760405162461bcd60e51b815260040161036e90610b75565b600580546001600160a01b0319166001600160a01b0392909216919091179055565b6001600160a01b03831661052a5760405162461bcd60e51b8152602060048201526024808201527f45524332303a20617070726f76652066726f6d20746865207a65726f206164646044820152637265737360e01b606482015260840161036e565b6001600160a01b03821661058b5760405162461bcd60e51b815260206004820152602260248201527f45524332303a20617070726f766520746f20746865207a65726f206164647265604482015261737360f01b606482015260840161036e565b6001600160a01b0383811660008181526001602090815260408083209487168084529482529182902085905590518481527f8c5be1e5ebec7d5bd14f71427d1e84f3dd0314c0f7b2291e5b200ac8c7c3b92591015b60405180910390a3505050565b60006105f98484610451565b9050600019811461066157818110156106545760405162461bcd60e51b815260206004820152601d60248201527f45524332303a20696e73756666696369656e7420616c6c6f77616e6365000000604482015260640161036e565b61066184848484036104c8565b50505050565b6001600160a01b0383166106cb5760405162461bcd60e51b815260206004820152602560248201527f45524332303a207472616e736665722066726f6d20746865207a65726f206164604482015264647265737360d81b606482015260840161036e565b6001600160a01b03821661072d5760405162461bcd60e51b815260206004820152602360248201527f45524332303a207472616e7366657220746f20746865207a65726f206164647260448201526265737360e81b606482015260840161036e565b6001600160a01b038316600090815260208190526040902054818110156107a55760405162461bcd60e51b815260206004820152602660248201527f45524332303a207472616e7366657220616d6f756e7420657863656564732062604482015265616c616e636560d01b606482015260840161036e565b6001600160a01b03848116600081815260208181526040808320878703905593871680835291849020805487019055925185815290927fddf252ad1be2c89b69c2b068fc378daa952ba7f163c4a11628f55a4df523b3ef910160405180910390a3610661565b6001600160a01b0382166108615760405162461bcd60e51b815260206004820152601f60248201527f45524332303a206d696e7420746f20746865207a65726f206164647265737300604482015260640161036e565b80600260008282546108739190610b54565b90915550506001600160a01b038216600081815260208181526040808320805486019055518481527fddf252ad1be2c89b69c2b068fc378daa952ba7f163c4a11628f55a4df523b3ef910160405180910390a35050565b6001600160a01b03821661092a5760405162461bcd60e51b815260206004820152602160248201527f45524332303a206275726e2066726f6d20746865207a65726f206164647265736044820152607360f81b606482015260840161036e565b6001600160a01b0382166000908152602081905260409020548181101561099e5760405162461bcd60e51b815260206004820152602260248201527f45524332303a206275726e20616d6f756e7420657863656564732062616c616e604482015261636560f01b606482015260840161036e565b6001600160a01b0383166000818152602081815260408083208686039055600280548790039055518581529192917fddf252ad1be2c89b69c2b068fc378daa952ba7f163c4a11628f55a4df523b3ef91016105e0565b602081526000825180602084015260005b81811015610a225760208186018101516040868401015201610a05565b506000604082850101526040601f19601f83011684010191505092915050565b80356001600160a01b0381168114610a5957600080fd5b919050565b60008060408385031215610a7157600080fd5b610a7a83610a42565b946020939093013593505050565b600080600060608486031215610a9d57600080fd5b610aa684610a42565b9250610ab460208501610a42565b929592945050506040919091013590565b600060208284031215610ad757600080fd5b610ae082610a42565b9392505050565b60008060408385031215610afa57600080fd5b610b0383610a42565b9150610b1160208401610a42565b90509250929050565b600181811c90821680610b2e57607f821691505b602082108103610b4e57634e487b7160e01b600052602260045260246000fd5b50919050565b808201808211156102f857634e487b7160e01b600052601160045260246000fd5b6020808252600a90820152692737ba1036b4b73a32b960b11b60408201526060019056fea26469706673582212202288d74a2e1d6746baa2a46f914be0b5e56766c25fed0a626c052e64226495ec64736f6c634300081a0033","linkReferences":{}},"methodIdentifiers":{"allowance(address,address)":"dd62ed3e","approve(address,uint256)":"095ea7b3","balanceOf(address)":"70a08231","burnFrom(address,uint256)":"79cc6790","decimals()":"313ce567","decreaseAllowance(address,uint256)":"a457c2d7","increaseAllowance(address,uint256)":"39509351","mint(address,uint256)":"40c10f19","minter()":"07546172","name()":"06fdde03","setMinter(address)":"fca3b5aa","symbol()":"95d89b41","totalSupply()":"18160ddd","transfer(address,uint256)":"a9059cbb","transferFrom(address,address,uint256)":"23b872dd"},"id":14}