{"abi":[{"type":"constructor","inputs":[],"stateMutability":"nonpayable"},{"type":"function","name":"N_COINS","inputs":[],"outputs":[{"name":"","type":"uint256","internalType":"uint256"}],"stateMutability":"view"},{"type":"function","name":"createSwapPair","inputs":[{"name":"_tokenA","type":"address","internalType":"address"},{"name":"_tokenB","type":"address","internalType":"address"},{"name":"_A","type":"uint256","internalType":"uint256"},{"name":"_fee","type":"uint256","internalType":"uint256"},{"name":"_admin_fee","type":"uint256","internalType":"uint256"},{"name":"_admin","type":"address","internalType":"address"},{"name":"_LP","type":"address","internalType":"address"}],"outputs":[{"name":"","type":"address","internalType":"address"}],"stateMutability":"nonpayable"},{"type":"function","name":"owner","inputs":[],"outputs":[{"name":"","type":"address","internalType":"address"}],"stateMutability":"view"},{"type":"function","name":"pauseContract","inputs":[],"outputs":[],"stateMutability":"nonpayable"},{"type":"function","name":"paused","inputs":[],"outputs":[{"name":"","type":"bool","internalType":"bool"}],"stateMutability":"view"},{"type":"function","name":"renounceOwnership","inputs":[],"outputs":[],"stateMutability":"nonpayable"},{"type":"function","name":"transferOwnership","inputs":[{"name":"newOwner","type":"address","internalType":"address"}],"outputs":[],"stateMutability":"nonpayable"},{"type":"function","name":"unPauseContract","inputs":[],"outputs":[],"stateMutability":"nonpayable"},{"type":"event","name":"OwnershipTransferred","inputs":[{"name":"previousOwner","type":"address","indexed":true,"internalType":"address"},{"name":"newOwner","type":"address","indexed":true,"internalType":"address"}],"anonymous":false},{"type":"event","name":"Paused","inputs":[{"name":"account","type":"address","indexed":false,"internalType":"address"}],"anonymous":false},{"type":"event","name":"Unpaused","inputs":[{"name":"account","type":"address","indexed":false,"internalType":"address"}],"anonymous":false}],"bytecode":{"object":"0x6080604052348015600f57600080fd5b506017336028565b6000805460ff60a01b191690556078565b600080546001600160a01b038381166001600160a01b0319831681178455604051919092169283917f8be0079c531659141344cd1fd0a4f28419497f9722a3daafe3b4186f6b6457e09190a35050565b614e8a806100876000396000f3fe608060405234801561001057600080fd5b50600436106100885760003560e01c80638da5cb5b1161005b5780638da5cb5b146100d75780639013148d146100fc578063bac152031461010f578063f2fde38b1461011757600080fd5b8063293577501461008d578063439766ce146100a85780635c975abb146100b2578063715018a6146100cf575b600080fd5b610095600281565b6040519081526020015b60405180910390f35b6100b061012a565b005b600054600160a01b900460ff16604051901515815260200161009f565b6100b061013c565b6000546001600160a01b03165b6040516001600160a01b03909116815260200161009f565b6100e461010a36600461064c565b61014e565b6100b061032f565b6100b06101253660046106bd565b61033f565b6101326103b8565b61013a610412565b565b6101446103b8565b61013a6000610472565b60006101586103b8565b6001600160a01b0388161580159061017857506001600160a01b03871615155b80156101965750866001600160a01b0316886001600160a01b031614155b6101d75760405162461bcd60e51b815260206004820152600d60248201526c24b63632b3b0b6103a37b5b2b760991b60448201526064015b60405180910390fd5b6000806101e48a8a6104c2565b9150915060006040518060400160405280846001600160a01b03166001600160a01b03168152602001836001600160a01b03166001600160a01b0316815250905060006040518060200161023790610623565b601f1982820381018352601f9091011660408190526bffffffffffffffffffffffff19606087811b8216602084015286811b8216603484015233901b16604882015242605c82015246607c820152909150600090609c016040516020818303038152906040528051906020012090506000818351602085016000f59050806001600160a01b0316634239b1c1858e8e8e8e8e6040518763ffffffff1660e01b81526004016102ea969594939291906106df565b600060405180830381600087803b15801561030457600080fd5b505af1158015610318573d6000803e3d6000fd5b509298505050505050505050979650505050505050565b6103376103b8565b61013a61054a565b6103476103b8565b6001600160a01b0381166103ac5760405162461bcd60e51b815260206004820152602660248201527f4f776e61626c653a206e6577206f776e657220697320746865207a65726f206160448201526564647265737360d01b60648201526084016101ce565b6103b581610472565b50565b6000546001600160a01b0316331461013a5760405162461bcd60e51b815260206004820181905260248201527f4f776e61626c653a2063616c6c6572206973206e6f7420746865206f776e657260448201526064016101ce565b61041a610586565b6000805460ff60a01b1916600160a01b1790557f62e78cea01bee320cd4e420270b5ea74000d11b0c9f74754ebdbfc544b05a2586104553390565b6040516001600160a01b03909116815260200160405180910390a1565b600080546001600160a01b038381166001600160a01b0319831681178455604051919092169283917f8be0079c531659141344cd1fd0a4f28419497f9722a3daafe3b4186f6b6457e09190a35050565b600080826001600160a01b0316846001600160a01b03160361051c5760405162461bcd60e51b81526020600482015260136024820152724944454e544943414c5f41444452455353455360681b60448201526064016101ce565b826001600160a01b0316846001600160a01b03161061053c57828461053f565b83835b909590945092505050565b6105526105d3565b6000805460ff60a01b191690557f5db9ee0a495bf2e6ff9c91a7834c1ba4fdd244a5e8aa4e537bd38aeae4b073aa33610455565b600054600160a01b900460ff161561013a5760405162461bcd60e51b815260206004820152601060248201526f14185d5cd8589b194e881c185d5cd95960821b60448201526064016101ce565b600054600160a01b900460ff1661013a5760405162461bcd60e51b815260206004820152601460248201527314185d5cd8589b194e881b9bdd081c185d5cd95960621b60448201526064016101ce565b61470d8061074883390190565b80356001600160a01b038116811461064757600080fd5b919050565b600080600080600080600060e0888a03121561066757600080fd5b61067088610630565b965061067e60208901610630565b95506040880135945060608801359350608088013592506106a160a08901610630565b91506106af60c08901610630565b905092959891949750929550565b6000602082840312156106cf57600080fd5b6106d882610630565b9392505050565b60e08101818860005b60028110156107105781516001600160a01b03168352602092830192909101906001016106e8565b5050506040820196909652606081019490945260808401929092526001600160a01b0390811660a08401521660c09091015291905056fe60a0604052610fbd600c55348015601557600080fd5b50601d336029565b60018055336080526079565b600080546001600160a01b038381166001600160a01b0319831681178455604051919092169283917f8be0079c531659141344cd1fd0a4f28419497f9722a3daafe3b4186f6b6457e09190a35050565b60805161467261009b6000396000818161071e015261149001526146726000f3fe6080604052600436106103815760003560e01c80637dafa364116101d1578063d73792a911610102578063ed8e84f3116100a0578063f3de03621161006f578063f3de036214610816578063f446c1d01461093e578063fc0c546a14610953578063fee3f7f91461097357600080fd5b8063ed8e84f3146108c7578063edfb7801146108e7578063f1dc3cc9146108fe578063f2fde38b1461091e57600080fd5b8063e3103273116100dc578063e310327314610865578063e369885314610885578063e38244621461089a578063e5d9e903146108b057600080fd5b8063d73792a914610816578063ddca3f431461082f578063e2e7d2641461084557600080fd5b8063ab5ac0611161016f578063bb7b8b8011610149578063bb7b8b80146107b3578063bc063e1a146107c8578063c6610657146107e1578063ca8ca1541461080157600080fd5b8063ab5ac06114610772578063b2b8a2c514610787578063b4b577ad1461079d57600080fd5b80639c868ac0116101ab5780639c868ac0146106f2578063a6b0a7181461070c578063a97e1c9214610740578063aaf5eb681461075657600080fd5b80637dafa3641461068057806385f11d1e146106a05780638da5cb5b146106c057600080fd5b8063405e28f8116102b6578063556d6e9f116102545780635b5a1467116102235780635b5a14671461061657806362203d74146106365780636d4366b714610656578063715018a61461066b57600080fd5b8063556d6e9f146105ad57806358680d0b146105cd5780635b36389c146105e35780635b41b9081461060357600080fd5b80634f12fe97116102905780634f12fe971461054d5780634fb08c5e14610562578063524c3901146105825780635409491a1461059757600080fd5b8063405e28f8146104f75780634239b1c11461050d5780634903b0d11461052d57600080fd5b8063293577501161032357806330c54085116102fd57806330c540851461047c578063392e53cd1461049157806339698415146104c05780633c157e64146104d757600080fd5b8063293577501461043c5780632a426896146104515780633046f9721461046757600080fd5b8063193d983f1161035f578063193d983f146103db5780632081066c146103f1578063226840fb14610407578063270271a81461041c57600080fd5b806306e9481c146103865780630b4c7e4d146103b057806314052288146103c5575b600080fd5b34801561039257600080fd5b5061039d6201518081565b6040519081526020015b60405180910390f35b6103c36103be366004614120565b610989565b005b3480156103d157600080fd5b5061039d60115481565b3480156103e757600080fd5b5061039d6159d881565b3480156103fd57600080fd5b5061039d60105481565b34801561041357600080fd5b506103c3610fcc565b34801561042857600080fd5b506103c361043736600461414b565b611004565b34801561044857600080fd5b5061039d600281565b34801561045d57600080fd5b5061039d60155481565b34801561047357600080fd5b506103c3611096565b34801561048857600080fd5b506103c36110d3565b34801561049d57600080fd5b506016546104b090610100900460ff1681565b60405190151581526020016103a7565b3480156104cc57600080fd5b5061039d620f424081565b3480156104e357600080fd5b506103c36104f2366004614164565b611220565b34801561050357600080fd5b5061039d60125481565b34801561051957600080fd5b506103c361052836600461419d565b61142d565b34801561053957600080fd5b5061039d61054836600461414b565b61185f565b34801561055957600080fd5b506103c3611876565b34801561056e57600080fd5b5061039d61057d366004614164565b611980565b34801561058e57600080fd5b506103c3611998565b3480156105a357600080fd5b5061039d600e5481565b3480156105b957600080fd5b5061039d6105c836600461423e565b611ac7565b3480156105d957600080fd5b5061039d60135481565b3480156105ef57600080fd5b506103c36105fe36600461426a565b611c10565b6103c3610611366004614297565b611e6c565b34801561062257600080fd5b506103c3610631366004614164565b612237565b34801561064257600080fd5b5061039d61065136600461414b565b612392565b34801561066257600080fd5b5061039d601281565b34801561067757600080fd5b506103c36123a2565b34801561068c57600080fd5b5061039d61069b36600461414b565b6123b6565b3480156106ac57600080fd5b5061039d6106bb36600461423e565b6123c6565b3480156106cc57600080fd5b506000546001600160a01b03165b6040516001600160a01b0390911681526020016103a7565b3480156106fe57600080fd5b506016546104b09060ff1681565b34801561071857600080fd5b506106da7f000000000000000000000000000000000000000000000000000000000000000081565b34801561074c57600080fd5b5061039d6108fc81565b34801561076257600080fd5b5061039d670de0b6b3a764000081565b34801561077e57600080fd5b5061039d600a81565b34801561079357600080fd5b5061039d600c5481565b3480156107a957600080fd5b5061039d600f5481565b3480156107bf57600080fd5b5061039d6124a2565b3480156107d457600080fd5b5061039d64012a05f20081565b3480156107ed57600080fd5b506106da6107fc36600461414b565b61255e565b34801561080d57600080fd5b506103c361257e565b34801561082257600080fd5b5061039d6402540be40081565b34801561083b57600080fd5b5061039d600a5481565b34801561085157600080fd5b5061039d61086036600461414b565b6125df565b34801561087157600080fd5b506103c3610880366004614120565b6126da565b34801561089157600080fd5b506103c3612c7d565b3480156108a657600080fd5b5061039d60145481565b3480156108bc57600080fd5b5061039d6203f48081565b3480156108d357600080fd5b5061039d6108e23660046142d7565b612d02565b3480156108f357600080fd5b5061039d624f1a0081565b34801561090a57600080fd5b506103c361091936600461423e565b612ebc565b34801561092a57600080fd5b506103c361093936600461430f565b613076565b34801561094a57600080fd5b5061039d6130ec565b34801561095f57600080fd5b50600d546106da906001600160a01b031681565b34801561097f57600080fd5b5061039d600b5481565b6109916130fb565b60165460ff16156109bd5760405162461bcd60e51b81526004016109b49061432a565b60405180910390fd5b600d54600160a01b900460ff166109ec5734156109ec5760405162461bcd60e51b81526004016109b49061434a565b6109f4613fda565b6000610a026001600261438f565b610a0d9060046143a2565b6002600a54610a1c91906143a2565b610a2691906143b9565b600b549091506000610a36613154565b90506000600d60009054906101000a90046001600160a01b03166001600160a01b03166318160ddd6040518163ffffffff1660e01b8152600401602060405180830381865afa158015610a8d573d6000803e3d6000fd5b505050506040513d601f19601f82011682018060405250810190610ab191906143db565b6040805180820191829052919250600091829160089060029082845b815481526020019060010190808311610acd57505050505090506000831115610afd57610afa81856131f5565b91505b6000604051806040016040528083600060028110610b1d57610b1d6143f4565b6020020151815260200183600160028110610b3a57610b3a6143f4565b60200201519052905060005b6002811015610c1f5784600003610bc85760008b8260028110610b6b57610b6b6143f4565b602002015111610bc85760405162461bcd60e51b815260206004820152602260248201527f496e697469616c206465706f73697420726571756972657320616c6c20636f696044820152616e7360f01b60648201526084016109b4565b8a8160028110610bda57610bda6143f4565b6020020151838260028110610bf157610bf16143f4565b6020020151610c00919061440a565b828260028110610c1257610c126143f4565b6020020152600101610b46565b506000610c2c82876131f5565b9050838111610c7d5760405162461bcd60e51b815260206004820152601a60248201527f4431206d7573742062652067726561746572207468616e20443000000000000060448201526064016109b4565b808515610e1f5760005b6002811015610e0d57600086868360028110610ca557610ca56143f4565b6020020151610cb490866143a2565b610cbe91906143b9565b90506000858360028110610cd457610cd46143f4565b6020020151821115610d0857858360028110610cf257610cf26143f4565b6020020151610d01908361438f565b9050610d2d565b81868460028110610d1b57610d1b6143f4565b6020020151610d2a919061438f565b90505b6402540be400610d3d828e6143a2565b610d4791906143b9565b8d8460028110610d5957610d596143f4565b60200201526402540be4008b8e8560028110610d7757610d776143f4565b6020020151610d8691906143a2565b610d9091906143b9565b868460028110610da257610da26143f4565b6020020151610db1919061438f565b60088460028110610dc457610dc46143f4565b01558c8360028110610dd857610dd86143f4565b6020020151868460028110610def57610def6143f4565b60200201818151610e00919061438f565b9052505050600101610c87565b50610e1883886131f5565b9050610e2e565b610e2c6008846002613ff8565b505b600086600003610e3f575081610e61565b85610e4a818461438f565b610e5490896143a2565b610e5e91906143b9565b90505b8b811015610ea85760405162461bcd60e51b8152602060048201526014602482015273536c697070616765207363726577656420796f7560601b60448201526064016109b4565b60005b6002811015610f055760008e8260028110610ec857610ec86143f4565b60200201519050600060068360028110610ee457610ee46143f4565b01546001600160a01b03169050610efb8183613210565b5050600101610eab565b50600d546040516340c10f1960e01b8152336004820152602481018390526001600160a01b03909116906340c10f1990604401600060405180830381600087803b158015610f5257600080fd5b505af1158015610f66573d6000803e3d6000fd5b503392507f26f55a85081d24974e85c6c00045d0f0453991e95873f52bff0d21af4079a76891508f90508d86610f9c868d61440a565b604051610fac9493929190614440565b60405180910390a25050505050505050505050610fc860018055565b5050565b610fd4613269565b600060128190556040517f1b4883af197c705114490f8d84f9ce30bef6a6199f7b7b649e845577cf0769a19190a1565b61100c613269565b6108fc811015801561102057506159d88111155b61105a5760405162461bcd60e51b815260206004820152600b60248201526a496c6c6567616c2067617360a81b60448201526064016109b4565b600c8190556040518181527f535533646ff25874ff322c27a44e684b16c906ef818ae694d70794ec40860e2e906020015b60405180910390a150565b61109e613269565b6016805460ff191690556040517f061284ffa2814ace135f62907c78a7cff0f070efe7e6a0a42740ea1da2c8bdc890600090a1565b6110db613269565b60005b600281101561121d57600073eeeeeeeeeeeeeeeeeeeeeeeeeeeeeeeeeeeeeeee60068360028110611111576111116143f4565b01546001600160a01b0316036111475760088260028110611134576111346143f4565b0154611140904761438f565b90506111e7565b6008826002811061115a5761115a6143f4565b01546006836002811061116f5761116f6143f4565b01546040516370a0823160e01b81523060048201526001600160a01b03909116906370a0823190602401602060405180830381865afa1580156111b6573d6000803e3d6000fd5b505050506040513d601f19601f820116820180604052508101906111da91906143db565b6111e4919061438f565b90505b80156112145761121460068360028110611203576112036143f4565b01546001600160a01b0316826132c3565b506001016110de565b50565b611228613269565b62015180601054611239919061440a565b42101561127a5760405162461bcd60e51b815260206004820152600f60248201526e646576203a20746f6f206561726c7960881b60448201526064016109b4565b611287620151804261440a565b8110156112cf5760405162461bcd60e51b81526020600482015260166024820152756465763a20696e73756666696369656e742074696d6560501b60448201526064016109b4565b60006112d9613154565b90506000831180156112ed5750620f424083105b6113475760405162461bcd60e51b815260206004820152602560248201527f5f6675747572655f41206d757374206265206265747765656e203020616e64206044820152644d41585f4160d81b60648201526084016109b4565b808310158015611361575061135d600a826143a2565b8311155b806113805750808310801561138057508061137d600a856143a2565b10155b6113cc5760405162461bcd60e51b815260206004820152601b60248201527f496c6c6567616c20706172616d65746572205f6675747572655f41000000000060448201526064016109b4565b600e819055600f839055426010819055601183905560408051838152602081018690528082019290925260608201849052517fa2b71ec6df949300b59aab36b55e189697b750119dd349fcfa8c0f779e83c2549181900360800190a1505050565b601654610100900460ff16156114855760405162461bcd60e51b815260206004820152601f60248201527f4f7065726174696f6e733a20416c726561647920696e697469616c697a65640060448201526064016109b4565b336001600160a01b037f000000000000000000000000000000000000000000000000000000000000000016146114fd5760405162461bcd60e51b815260206004820152601760248201527f4f7065726174696f6e733a204e6f7420666163746f727900000000000000000060448201526064016109b4565b620f42408511156115455760405162461bcd60e51b81526020600482015260126024820152715f412065786365656473206d6178696d756d60701b60448201526064016109b4565b64012a05f2008411156115915760405162461bcd60e51b81526020600482015260146024820152735f6665652065786365656473206d6178696d756d60601b60448201526064016109b4565b6402540be4008311156115e65760405162461bcd60e51b815260206004820152601a60248201527f5f61646d696e5f6665652065786365656473206d6178696d756d00000000000060448201526064016109b4565b6016805461ff00191661010017905560005b6002811015611800576000878260028110611615576116156143f4565b60200201516001600160a01b03160361165f5760405162461bcd60e51b815260206004820152600c60248201526b5a45524f204164647265737360a01b60448201526064016109b4565b600073eeeeeeeeeeeeeeeeeeeeeeeeeeeeeeeeeeeeeeee888360028110611688576116886143f4565b60200201516001600160a01b0316036116b65750600d805460ff60a01b1916600160a01b1790556012611734565b8782600281106116c8576116c86143f4565b60200201516001600160a01b031663313ce5676040518163ffffffff1660e01b8152600401602060405180830381865afa15801561170a573d6000803e3d6000fd5b505050506040513d601f19601f8201168201806040525081019061172e919061446d565b60ff1690505b60128111156117915760405162461bcd60e51b8152602060048201526024808201527f546865206d6178696d756d20646563696d616c2063616e6e6f742065786365656044820152630c84062760e31b60648201526084016109b4565b61179c81601261438f565b6117a790600a614577565b600283600281106117ba576117ba6143f4565b01556002828181106117ce576117ce6143f4565b01546117e290670de0b6b3a76400006143a2565b600483600281106117f5576117f56143f4565b0155506001016115f8565b5061180e6006876002614032565b50600e859055600f859055600a849055600b839055611830624f1a004261440a565b601555600d80546001600160a01b0319166001600160a01b03831617905561185782613076565b505050505050565b6008816002811061186f57600080fd5b0154905081565b61187e613269565b6012544210156118c95760405162461bcd60e51b81526020600482015260166024820152756465763a20696e73756666696369656e742074696d6560501b60448201526064016109b4565b60125460000361192a5760405162461bcd60e51b815260206004820152602660248201527f61646d696e5f616374696f6e735f646561646c696e652073686f756c64206e6f60448201526507420626520360d41b60648201526084016109b4565b6000601255601354600a819055601454600b8190556040517fbe12859b636aed607d5230b2cc2711f68d70e51060e6cca1f575ef5d2fcc95d19261197692908252602082015260400190565b60405180910390a1565b60008061198d8484613306565b509150505b92915050565b6119a0613269565b60005b6002811015611a9b5773eeeeeeeeeeeeeeeeeeeeeeeeeeeeeeeeeeeeeeee600682600281106119d4576119d46143f4565b01546001600160a01b0316036119ff5747600882600281106119f8576119f86143f4565b0155611a93565b60068160028110611a1257611a126143f4565b01546040516370a0823160e01b81523060048201526001600160a01b03909116906370a0823190602401602060405180830381865afa158015611a59573d6000803e3d6000fd5b505050506040513d601f19601f82011682018060405250810190611a7d91906143db565b60088260028110611a9057611a906143f4565b01555b6001016119a3565b506040517f2c7203581ca666b8c5094c11c03f0b19b3750234a9d281bcbc88a260bcb006de90600090a1565b604080518082019182905260009182919060049060029082845b815481526020019060010190808311611ae157505050505090506000611b056135fa565b90506000670de0b6b3a7640000838860028110611b2457611b246143f4565b6020020151611b3390876143a2565b611b3d91906143b9565b828860028110611b4f57611b4f6143f4565b6020020151611b5e919061440a565b90506000611b6e888884866136a9565b90506000848860028110611b8457611b846143f4565b6020020151670de0b6b3a7640000600184878c60028110611ba757611ba76143f4565b6020020151611bb6919061438f565b611bc0919061438f565b611bca91906143a2565b611bd491906143b9565b905060006402540be40082600a54611bec91906143a2565b611bf691906143b9565b9050611c02818361438f565b9a9950505050505050505050565b611c186130fb565b600d54604080516318160ddd60e01b815290516000926001600160a01b0316916318160ddd9160048083019260209291908290030181865afa158015611c62573d6000803e3d6000fd5b505050506040513d601f19601f82011682018060405250810190611c8691906143db565b9050611c90613fda565b611c98613fda565b60005b6002811015611db3576000848760088460028110611cbb57611cbb6143f4565b0154611cc791906143a2565b611cd191906143b9565b9050858260028110611ce557611ce56143f4565b6020020151811015611d525760405162461bcd60e51b815260206004820152603060248201527f5769746864726177616c20726573756c74656420696e20666577657220636f6960448201526f1b9cc81d1a185b88195e1c1958dd195960821b60648201526084016109b4565b8060088360028110611d6657611d666143f4565b016000828254611d76919061438f565b90915550819050848360028110611d8f57611d8f6143f4565b6020020152611daa60068360028110611203576112036143f4565b50600101611c9b565b50600d5460405163079cc67960e41b8152336004820152602481018790526001600160a01b03909116906379cc679090604401600060405180830381600087803b158015611e0057600080fd5b505af1158015611e14573d6000803e3d6000fd5b503392507f7c363854ccf79623411f8995b362bce5eddff18c927edc6f5dbbb5e05819a82c915084905083611e49898861438f565b604051611e5893929190614583565b60405180910390a2505050610fc860018055565b611e746130fb565b60165460ff1615611e975760405162461bcd60e51b81526004016109b49061432a565b600d54600160a01b900460ff16611ec6573415611ec65760405162461bcd60e51b81526004016109b49061434a565b604080518082019182905260009160089060029082845b815481526020019060010190808311611edd57505050505090506000611f028261388b565b90506000670de0b6b3a764000060048860028110611f2257611f226143f4565b0154611f2e90876143a2565b611f3891906143b9565b828860028110611f4a57611f4a6143f4565b6020020151611f59919061440a565b90506000611f69888884866136a9565b90506000600182858a60028110611f8257611f826143f4565b6020020151611f91919061438f565b611f9b919061438f565b905060006402540be400600a5483611fb391906143a2565b611fbd91906143b9565b905060048960028110611fd257611fd26143f4565b0154670de0b6b3a7640000611fe7838561438f565b611ff191906143a2565b611ffb91906143b9565b9150868210156120645760405162461bcd60e51b815260206004820152602e60248201527f45786368616e676520726573756c74656420696e20666577657220636f696e7360448201526d081d1a185b88195e1c1958dd195960921b60648201526084016109b4565b60006402540be400600b548361207a91906143a2565b61208491906143b9565b905060048a60028110612099576120996143f4565b01546120ad670de0b6b3a7640000836143a2565b6120b791906143b9565b905088878c600281106120cc576120cc6143f4565b60200201516120db919061440a565b60088c600281106120ee576120ee6143f4565b01558083888c60028110612104576121046143f4565b6020020151612113919061438f565b61211d919061438f565b60088b60028110612130576121306143f4565b0155600060068c60028110612147576121476143f4565b01546001600160a01b0316905073eeeeeeeeeeeeeeeeeeeeeeeeeeeeeeeeeeeeeeed19810161219457348a1461218f5760405162461bcd60e51b81526004016109b49061434a565b6121a9565b6121a96001600160a01b03821633308d61393e565b600060068c600281106121be576121be6143f4565b01546001600160a01b031690506121d581866132c3565b604080518e8152602081018d90529081018d90526060810186905233907fb2e76ae99761dc136e598d4a629bb347eccb9532a5f8bbd72e18467c3c34cc989060800160405180910390a250505050505050505061223160018055565b50505050565b61223f613269565b6012541561228f5760405162461bcd60e51b815260206004820181905260248201527f61646d696e5f616374696f6e735f646561646c696e65206d757374206265203060448201526064016109b4565b64012a05f2008211156122e45760405162461bcd60e51b815260206004820152601860248201527f6465763a206665652065786365656473206d6178696d756d000000000000000060448201526064016109b4565b6402540be4008111156123395760405162461bcd60e51b815260206004820152601e60248201527f6465763a2061646d696e206665652065786365656473206d6178696d756d000060448201526064016109b4565b6123466203f4804261440a565b60128190556013839055601482905560408051848152602081018490527f351fc5da2fbf480f2225debf3664a4bc90fa9923743aad58b4603f648e931fe0910160405180910390a25050565b6004816002811061186f57600080fd5b6123aa613269565b6123b460006139a9565b565b6002816002811061186f57600080fd5b6000806123d16135fa565b604080518082019182905291925060009190600290819081845b8154815260200190600101908083116123eb57505050505090506000818760028110612419576124196143f4565b602002015161242890866143a2565b83886002811061243a5761243a6143f4565b6020020151612449919061440a565b90506000612459888884876136a9565b9050600083886002811061246f5761246f6143f4565b6020020151600183878b60028110612489576124896143f4565b6020020151612498919061438f565b611bca919061438f565b6000806124bd6124b06135fa565b6124b8613154565b6139f9565b90506000600d60009054906101000a90046001600160a01b03166001600160a01b03166318160ddd6040518163ffffffff1660e01b8152600401602060405180830381865afa158015612514573d6000803e3d6000fd5b505050506040513d601f19601f8201168201806040525081019061253891906143db565b90508061254d670de0b6b3a7640000846143a2565b61255791906143b9565b9250505090565b6006816002811061256e57600080fd5b01546001600160a01b0316905081565b612586613269565b6000612590613154565b600e819055600f81905542601081905560118190556040519192507f46e22fb3709ad289f62ce63d469248536dbc78d82b84a3d7e74ad606dc2019389161108b91848252602082015260400190565b600073eeeeeeeeeeeeeeeeeeeeeeeeeeeeeeeeeeeeeeee60068360028110612609576126096143f4565b01546001600160a01b031603612638576008826002811061262c5761262c6143f4565b0154611992904761438f565b6008826002811061264b5761264b6143f4565b015460068360028110612660576126606143f4565b01546040516370a0823160e01b81523060048201526001600160a01b03909116906370a0823190602401602060405180830381865afa1580156126a7573d6000803e3d6000fd5b505050506040513d601f19601f820116820180604052508101906126cb91906143db565b611992919061438f565b919050565b6126e26130fb565b60165460ff16156127055760405162461bcd60e51b81526004016109b49061432a565b600d54604080516318160ddd60e01b815290516000926001600160a01b0316916318160ddd9160048083019260209291908290030181865afa15801561274f573d6000803e3d6000fd5b505050506040513d601f19601f8201168201806040525081019061277391906143db565b9050600081116127be5760405162461bcd60e51b81526020600482015260166024820152756465763a207a65726f20746f74616c20737570706c7960501b60448201526064016109b4565b60006127cc6001600261438f565b6127d79060046143a2565b6002600a546127e691906143a2565b6127f091906143b9565b600b549091506000612800613154565b60408051808201918290529192506000919060089060029082845b81548152602001906001019080831161281b57505050505090506000604051806040016040528083600060028110612855576128556143f4565b6020020151815260200183600160028110612872576128726143f4565b602002015190529050600061288783856131f5565b905060005b60028110156128da578981600281106128a7576128a76143f4565b60200201518382600281106128be576128be6143f4565b602002018181516128cf919061438f565b90525060010161288c565b5060006128e783866131f5565b90506128f1613fda565b60005b6002811015612a7a57600084878360028110612912576129126143f4565b602002015161292190866143a2565b61292b91906143b9565b90506000868360028110612941576129416143f4565b60200201518211156129755786836002811061295f5761295f6143f4565b602002015161296e908361438f565b905061299a565b81878460028110612988576129886143f4565b6020020151612997919061438f565b90505b6402540be4006129aa828d6143a2565b6129b491906143b9565b8484600281106129c6576129c66143f4565b60200201526402540be4008a8585600281106129e4576129e46143f4565b60200201516129f391906143a2565b6129fd91906143b9565b878460028110612a0f57612a0f6143f4565b6020020151612a1e919061438f565b60088460028110612a3157612a316143f4565b0155838360028110612a4557612a456143f4565b6020020151878460028110612a5c57612a5c6143f4565b60200201818151612a6d919061438f565b90525050506001016128f4565b506000612a8785886131f5565b90506000848b612a97848361438f565b612aa191906143a2565b612aab91906143b9565b905060008111612b095760405162461bcd60e51b815260206004820152602360248201527f746f6b656e5f616d6f756e74206d75737420626520677265617465722074686160448201526206e20360ec1b60648201526084016109b4565b612b1460018261440a565b90508b811115612b5d5760405162461bcd60e51b8152602060048201526014602482015273536c697070616765207363726577656420796f7560601b60448201526064016109b4565b600d5460405163079cc67960e41b8152336004820152602481018390526001600160a01b03909116906379cc679090604401600060405180830381600087803b158015612ba957600080fd5b505af1158015612bbd573d6000803e3d6000fd5b5050505060005b6002811015612c315760008e8260028110612be157612be16143f4565b60200201511115612c2957612c2960068260028110612c0257612c026143f4565b01546001600160a01b03168f8360028110612c1f57612c1f6143f4565b60200201516132c3565b600101612bc4565b50612c3c818c61438f565b9a50336001600160a01b03167f2b5508378d7e19e0d5fa338419034731416c4f5b219a10379956f764317fd47e8e85878f604051610fac9493929190614440565b612c85613269565b4260155411612cca5760405162461bcd60e51b8152602060048201526011602482015270457863656564656420646561646c696e6560781b60448201526064016109b4565b6016805460ff191660011790556040517fbe26733c2bf6ff3ea5ba8cfe744422bd49052ff9ed5685c9e81e6f9321dbaddd90600090a1565b604080518082019182905260009182919060089060029082845b815481526020019060010190808311612d1c57505050505090506000612d40613154565b90506000612d4e83836131f5565b905060005b6002811015612dea578515612da457868160028110612d7457612d746143f4565b6020020151848260028110612d8b57612d8b6143f4565b60200201818151612d9c919061440a565b905250612de2565b868160028110612db657612db66143f4565b6020020151848260028110612dcd57612dcd6143f4565b60200201818151612dde919061438f565b9052505b600101612d53565b506000612df784846131f5565b90506000600d60009054906101000a90046001600160a01b03166001600160a01b03166318160ddd6040518163ffffffff1660e01b8152600401602060405180830381865afa158015612e4e573d6000803e3d6000fd5b505050506040513d601f19601f82011682018060405250810190612e7291906143db565b905060008715612e8d57612e86848461438f565b9050612e9a565b612e97838561438f565b90505b83612ea583836143a2565b612eaf91906143b9565b9998505050505050505050565b612ec46130fb565b60165460ff1615612ee75760405162461bcd60e51b81526004016109b49061432a565b600080612ef48585613306565b9150915082821015612f485760405162461bcd60e51b815260206004820152601860248201527f4e6f7420656e6f75676820636f696e732072656d6f766564000000000000000060448201526064016109b4565b6402540be400600b5482612f5c91906143a2565b612f6691906143b9565b612f70908361440a565b60088560028110612f8357612f836143f4565b016000828254612f93919061438f565b9091555050600d5460405163079cc67960e41b8152336004820152602481018790526001600160a01b03909116906379cc679090604401600060405180830381600087803b158015612fe457600080fd5b505af1158015612ff8573d6000803e3d6000fd5b5050505061302360068560028110613012576130126143f4565b01546001600160a01b0316836132c3565b604080518581526020810187905290810183905233907f5ad056f2e28a8cec232015406b843668c1e36cda598127ec3b8c59b8c72773a09060600160405180910390a2505061307160018055565b505050565b61307e613269565b6001600160a01b0381166130e35760405162461bcd60e51b815260206004820152602660248201527f4f776e61626c653a206e6577206f776e657220697320746865207a65726f206160448201526564647265737360d01b60648201526084016109b4565b61121d816139a9565b60006130f6613154565b905090565b60026001540361314d5760405162461bcd60e51b815260206004820152601f60248201527f5265656e7472616e637947756172643a207265656e7472616e742063616c6c0060448201526064016109b4565b6002600155565b601154600f54600091904282111561199257600e54601054818311156131b95761317e818561438f565b613188824261438f565b613192848661438f565b61319c91906143a2565b6131a691906143b9565b6131b0908361440a565b94505050505090565b6131c3818561438f565b6131cd824261438f565b6131d7858561438f565b6131e191906143a2565b6131eb91906143b9565b6131b0908361438f565b60006132096132038461388b565b836139f9565b9392505050565b73eeeeeeeeeeeeeeeeeeeeeeeeeeeeeeeeeeeeeeed196001600160a01b0383160161325457348114610fc85760405162461bcd60e51b81526004016109b49061434a565b610fc86001600160a01b03831633308461393e565b6000546001600160a01b031633146123b45760405162461bcd60e51b815260206004820181905260248201527f4f776e61626c653a2063616c6c6572206973206e6f7420746865206f776e657260448201526064016109b4565b73eeeeeeeeeeeeeeeeeeeeeeeeeeeeeeeeeeeeeeed196001600160a01b038316016132f257610fc83382613b74565b610fc86001600160a01b0383163383613c12565b6000806000613313613154565b905060006133236001600261438f565b61332e9060046143a2565b6002600a5461333d91906143a2565b61334791906143b9565b604080518082019182905291925060009190600290819081845b81548152602001906001019080831161336157505050505090506000600d60009054906101000a90046001600160a01b03166001600160a01b03166318160ddd6040518163ffffffff1660e01b8152600401602060405180830381865afa1580156133d0573d6000803e3d6000fd5b505050506040513d601f19601f820116820180604052508101906133f491906143db565b905060006134006135fa565b9050600061340e82876139f9565b905060008361341d838d6143a2565b61342791906143b9565b613431908361438f565b9050826000613442898d8486613c42565b90506000878d60028110613458576134586143f4565b602002015182878f60028110613470576134706143f4565b602002015161347f919061438f565b61348991906143b9565b905060005b60028110156135795760008e82036134df578387878a85600281106134b5576134b56143f4565b60200201516134c491906143a2565b6134ce91906143b9565b6134d8919061438f565b9050613530565b86868984600281106134f3576134f36143f4565b602002015161350291906143a2565b61350c91906143b9565b88836002811061351e5761351e6143f4565b602002015161352d919061438f565b90505b6402540be400613540828d6143a2565b61354a91906143b9565b85836002811061355c5761355c6143f4565b6020020181815161356d919061438f565b9052505060010161348e565b5060006135888b8f8688613c42565b848f6002811061359a5761359a6143f4565b60200201516135a9919061438f565b9050888e600281106135bd576135bd6143f4565b60200201516135cd60018361438f565b6135d791906143b9565b9050806135e4818461438f565b9c509c5050505050505050505050509250929050565b613602613fda565b60408051808201918290529060049060029082845b815481526020019060010190808311613617575050505050905060005b60028110156136a557670de0b6b3a764000060088260028110613659576136596143f4565b015483836002811061366d5761366d6143f4565b602002015161367c91906143a2565b61368691906143b9565b828260028110613698576136986143f4565b6020020152600101613634565b5090565b60008385141580156136bb5750600285105b80156136c75750600284105b6137075760405162461bcd60e51b815260206004820152601160248201527024b63632b3b0b6103830b930b6b2ba32b960791b60448201526064016109b4565b6000613711613154565b9050600061371f84836139f9565b9050806000806137306002866143a2565b90506000805b60028110156137ae578b810361374e57899150613778565b8a811461377357888160028110613767576137676143f4565b60200201519150613778565b6137a6565b613782828561440a565b935061378f6002836143a2565b61379987876143a2565b6137a391906143b9565b94505b600101613736565b506137ba6002836143a2565b6137c486866143a2565b6137ce91906143b9565b935060006137dc83876143b9565b6137e6908561440a565b9050600086815b60ff81101561387757819250888483600261380891906143a2565b613812919061440a565b61381c919061438f565b8861382784806143a2565b613831919061440a565b61383b91906143b9565b91508282111561385c576001613851848461438f565b11156138775761386f565b6001613868838561438f565b1115613877575b6001016137ed565b50985050505050505050505b949350505050565b613893613fda565b60408051808201918290529060049060029082845b8154815260200190600101908083116138a8575050505050905060005b600281101561393857670de0b6b3a76400008382600281106138e9576138e96143f4565b6020020151838360028110613900576139006143f4565b602002015161390f91906143a2565b61391991906143b9565b82826002811061392b5761392b6143f4565b60200201526001016138c5565b50919050565b6040516001600160a01b03808516602483015283166044820152606481018290526122319085906323b872dd60e01b906084015b60408051601f198184030181529190526020810180516001600160e01b03166001600160e01b031990931692909217909152613de2565b600080546001600160a01b038381166001600160a01b0319831681178455604051919092169283917f8be0079c531659141344cd1fd0a4f28419497f9722a3daafe3b4186f6b6457e09190a35050565b60008060005b6002811015613a3357848160028110613a1a57613a1a6143f4565b6020020151613a29908361440a565b91506001016139ff565b5080600003613a46576000915050611992565b60008181613a556002876143a2565b905060005b60ff811015613b68578260005b6002811015613ab15760028a8260028110613a8457613a846143f4565b6020020151613a9391906143a2565b613a9d86846143a2565b613aa791906143b9565b9150600101613a67565b508394508060026001613ac4919061440a565b613ace91906143a2565b84613ada60018661438f565b613ae491906143a2565b613aee919061440a565b84613afa6002846143a2565b613b0489876143a2565b613b0e919061440a565b613b1891906143a2565b613b2291906143b9565b935084841115613b48576001613b38868661438f565b11613b435750613b68565b613b5f565b6001613b54858761438f565b11613b5f5750613b68565b50600101613a5a565b50909695505050505050565b6000826001600160a01b0316600c5483604051600060405180830381858888f193505050503d8060008114613bc5576040519150601f19603f3d011682016040523d82523d6000602084013e613bca565b606091505b50509050806130715760405162461bcd60e51b81526020600482015260146024820152731493d4d1481d1c985b9cd9995c8819985a5b195960621b60448201526064016109b4565b6040516001600160a01b03831660248201526044810182905261307190849063a9059cbb60e01b90606401613972565b600060028410613c8b5760405162461bcd60e51b81526020600482015260146024820152736465763a20692061626f7665204e5f434f494e5360601b60448201526064016109b4565b81600080613c9a6002896143a2565b90506000805b6002811015613d0957888114613cce57878160028110613cc257613cc26143f4565b60200201519150613cd3565b613d01565b613cdd828561440a565b9350613cea6002836143a2565b613cf488876143a2565b613cfe91906143b9565b94505b600101613ca0565b50613d156002836143a2565b613d1f87866143a2565b613d2991906143b9565b93506000613d3783886143b9565b613d41908561440a565b9050600087815b60ff811015613dd2578192508984836002613d6391906143a2565b613d6d919061440a565b613d77919061438f565b88613d8284806143a2565b613d8c919061440a565b613d9691906143b9565b915082821115613db7576001613dac848461438f565b1115613dd257613dca565b6001613dc3838561438f565b1115613dd2575b600101613d48565b509b9a5050505050505050505050565b6000613e37826040518060400160405280602081526020017f5361666545524332303a206c6f772d6c6576656c2063616c6c206661696c6564815250856001600160a01b0316613eb79092919063ffffffff16565b9050805160001480613e58575080806020019051810190613e5891906145ac565b6130715760405162461bcd60e51b815260206004820152602a60248201527f5361666545524332303a204552433230206f7065726174696f6e20646964206e6044820152691bdd081cdd58d8d9595960b21b60648201526084016109b4565b6060613883848460008585600080866001600160a01b03168587604051613ede91906145ed565b60006040518083038185875af1925050503d8060008114613f1b576040519150601f19603f3d011682016040523d82523d6000602084013e613f20565b606091505b5091509150613f3187838387613f3c565b979650505050505050565b60608315613fab578251600003613fa4576001600160a01b0385163b613fa45760405162461bcd60e51b815260206004820152601d60248201527f416464726573733a2063616c6c20746f206e6f6e2d636f6e747261637400000060448201526064016109b4565b5081613883565b6138838383815115613fc05781518083602001fd5b8060405162461bcd60e51b81526004016109b49190614609565b60405180604001604052806002906020820280368337509192915050565b8260028101928215614026579160200282015b8281111561402657825182559160200191906001019061400b565b506136a592915061407a565b8260028101928215614026579160200282015b8281111561402657825182546001600160a01b0319166001600160a01b03909116178255602090920191600190910190614045565b5b808211156136a5576000815560010161407b565b604051601f8201601f1916810167ffffffffffffffff811182821017156140c657634e487b7160e01b600052604160045260246000fd5b604052919050565b600082601f8301126140df57600080fd5b6140e9604061408f565b8060408401858111156140fb57600080fd5b845b818110156141155780358452602093840193016140fd565b509095945050505050565b6000806060838503121561413357600080fd5b61413d84846140ce565b946040939093013593505050565b60006020828403121561415d57600080fd5b5035919050565b6000806040838503121561417757600080fd5b50508035926020909101359150565b80356001600160a01b03811681146126d557600080fd5b60008060008060008060e087890312156141b657600080fd5b87601f8801126141c557600080fd5b6141cf604061408f565b80604089018a8111156141e157600080fd5b895b81811015614202576141f481614186565b8452602093840193016141e3565b5090975035955050606087013593506080870135925061422460a08801614186565b915061423260c08801614186565b90509295509295509295565b60008060006060848603121561425357600080fd5b505081359360208301359350604090920135919050565b6000806060838503121561427d57600080fd5b8235915061428e84602085016140ce565b90509250929050565b600080600080608085870312156142ad57600080fd5b5050823594602084013594506040840135936060013592509050565b801515811461121d57600080fd5b600080606083850312156142ea57600080fd5b6142f484846140ce565b91506040830135614304816142c9565b809150509250929050565b60006020828403121561432157600080fd5b61320982614186565b60208082526006908201526512da5b1b195960d21b604082015260600190565b602080825260159082015274496e636f6e73697374656e74207175616e7469747960581b604082015260600190565b634e487b7160e01b600052601160045260246000fd5b8181038181111561199257611992614379565b808202811582820484141761199257611992614379565b6000826143d657634e487b7160e01b600052601260045260246000fd5b500490565b6000602082840312156143ed57600080fd5b5051919050565b634e487b7160e01b600052603260045260246000fd5b8082018082111561199257611992614379565b8060005b6002811015612231578151845260209384019390910190600101614421565b60c0810161444e828761441d565b61445b604083018661441d565b608082019390935260a0015292915050565b60006020828403121561447f57600080fd5b815160ff8116811461320957600080fd5b6001815b60018411156144cb578085048111156144af576144af614379565b60018416156144bd57908102905b60019390931c928002614494565b935093915050565b6000826144e257506001611992565b816144ef57506000611992565b8160018114614505576002811461450f5761452b565b6001915050611992565b60ff84111561452057614520614379565b50506001821b611992565b5060208310610133831016604e8410600b841016171561454e575081810a611992565b61455b6000198484614490565b806000190482111561456f5761456f614379565b029392505050565b600061320983836144d3565b60a08101614591828661441d565b61459e604083018561441d565b826080830152949350505050565b6000602082840312156145be57600080fd5b8151613209816142c9565b60005b838110156145e45781810151838201526020016145cc565b50506000910152565b600082516145ff8184602087016145c9565b9190910192915050565b60208152600082518060208401526146288160408501602087016145c9565b601f01601f1916919091016040019291505056fea264697066735822122072e3b6f79ca9d1dd0d5590643cdd041e6edb14957bcac4ec9d7058f90878e28464736f6c634300081a0033a2646970667358221220663f619045a87fd8314258ecca16143387babebe931156b375d0eb402bae8f1464736f6c634300081a0033","linkReferences":{}},"methodIdentifiers":{"N_COINS()":"29357750","createSwapPair(address,address,uint256,uint256,uint256,address,address)":"9013148d","owner()":"8da5cb5b","pauseContract()":"439766ce","paused()":"5c975abb","renounceOwnership()":"715018a6","transferOwnership(address)":"f2fde38b","unPauseContract()":"bac15203"},"id":17}