{"abi":[{"type":"function","name":"getStableAmountsIn","inputs":[{"name":"stableSwapFactory","type":"address","internalType":"address"},{"name":"stableSwapInfo","type":"address","internalType":"address"},{"name":"path","type":"address[]","internalType":"address[]"},{"name":"flag","type":"uint256[]","internalType":"uint256[]"},{"name":"amountOut","type":"uint256","internalType":"uint256"}],"outputs":[{"name":"amounts","type":"uint256[]","internalType":"uint256[]"}],"stateMutability":"view"},{"type":"function","name":"getStableAmountsOut","inputs":[{"name":"stableSwapFactory","type":"address","internalType":"address"},{"name":"path","type":"address[]","internalType":"address[]"},{"name":"flag","type":"uint256[]","internalType":"uint256[]"},{"name":"amountIn","type":"uint256","internalType":"uint256"}],"outputs":[{"name":"amounts","type":"uint256[]","internalType":"uint256[]"}],"stateMutability":"view"},{"type":"function","name":"getStableInfo","inputs":[{"name":"stableSwapFactory","type":"address","internalType":"address"},{"name":"input","type":"address","internalType":"address"},{"name":"output","type":"address","internalType":"address"},{"name":"flag","type":"uint256","internalType":"uint256"}],"outputs":[{"name":"i","type":"uint256","internalType":"uint256"},{"name":"j","type":"uint256","internalType":"uint256"},{"name":"swapContract","type":"address","internalType":"address"}],"stateMutability":"view"}],"bytecode":{"object":"0x610c75610039600b82828239805160001a607314602c57634e487b7160e01b600052600060045260246000fd5b30600052607381538281f3fe730000000000000000000000000000000000000000301460806040526004361061004b5760003560e01c80635923cab31461005057806386be32f914610079578063b735aecd1461008c575b600080fd5b61006361005e3660046108a5565b6100c3565b604051610070919061093b565b60405180910390f35b61006361008736600461097e565b6102d7565b61009f61009a366004610a01565b6104af565b6040805193845260208401929092526001600160a01b031690820152606001610070565b825160609060028110156100f25760405162461bcd60e51b81526004016100e990610a52565b60405180910390fd5b8067ffffffffffffffff81111561010b5761010b610766565b604051908082528060200260200182016040528015610134578160200160208202803683370190505b5091508282610144600184610aac565b8151811061015457610154610ac5565b6020908102919091010152600061016c600183610aac565b90505b80156102cc576000610182600183610aac565b905060008060006101e08c8b868151811061019f5761019f610ac5565b60200260200101518c88815181106101b9576101b9610ac5565b60200260200101518c88815181106101d3576101d3610ac5565b60200260200101516104af565b9250925092508a6001600160a01b031663ca4bc7148285858b8a8151811061020a5761020a610ac5565b60209081029190910101516040516001600160e01b031960e087901b1681526001600160a01b039094166004850152602484019290925260448301526064820152600019608482015260a401602060405180830381865afa158015610273573d6000803e3d6000fd5b505050506040513d601f19601f820116820180604052508101906102979190610adb565b8785815181106102a9576102a9610ac5565b6020026020010181815250505050505080806102c490610af4565b91505061016f565b505095945050505050565b825160609060028110156102fd5760405162461bcd60e51b81526004016100e990610a52565b8067ffffffffffffffff81111561031657610316610766565b60405190808252806020026020018201604052801561033f578160200160208202803683370190505b509150828260008151811061035657610356610ac5565b60200260200101818152505060005b610370600183610aac565b8110156104a55760008060006103d28a8a868151811061039257610392610ac5565b60200260200101518b8760016103a89190610b0b565b815181106103b8576103b8610ac5565b60200260200101518b88815181106101d3576101d3610ac5565b925092509250806001600160a01b031663556d6e9f84848988815181106103fb576103fb610ac5565b60200260200101516040518463ffffffff1660e01b8152600401610432939291909283526020830191909152604082015260600190565b602060405180830381865afa15801561044f573d6000803e3d6000fd5b505050506040513d601f19601f820116820180604052508101906104739190610adb565b8661047f866001610b0b565b8151811061048f5761048f610ac5565b6020908102919091010152505050600101610365565b5050949350505050565b60008060008360020361058257604051632007bd0f60e11b81526001600160a01b03878116600483015286811660248301526000919089169063400f7a1e90604401608060405180830381865afa15801561050e573d6000803e3d6000fd5b505050506040513d601f19601f820116820180604052508101906105329190610b1e565b905080602001516001600160a01b0316876001600160a01b03161461055857600161055b565b60005b60ff169350831561056d576000610570565b60015b60ff16925080600001519150506106e2565b836003036106e25760405163923093cb60e01b81526001600160a01b03878116600483015286811660248301526000919089169063923093cb9060440160a060405180830381865afa1580156105dc573d6000803e3d6000fd5b505050506040513d601f19601f820116820180604052508101906106009190610ba5565b905080602001516001600160a01b0316876001600160a01b0316036106285760009350610670565b80604001516001600160a01b0316876001600160a01b03160361064e5760019350610670565b80606001516001600160a01b0316876001600160a01b03160361067057600293505b80602001516001600160a01b0316866001600160a01b03160361069657600092506106de565b80604001516001600160a01b0316866001600160a01b0316036106bc57600192506106de565b80606001516001600160a01b0316866001600160a01b0316036106de57600292505b5190505b6001600160a01b0381166107445760405162461bcd60e51b815260206004820152602360248201527f676574537461626c65496e666f3a20696e76616c696420706f6f6c206164647260448201526265737360e81b60648201526084016100e9565b9450945094915050565b6001600160a01b038116811461076357600080fd5b50565b634e487b7160e01b600052604160045260246000fd5b604051601f8201601f1916810167ffffffffffffffff811182821017156107a5576107a5610766565b604052919050565b600067ffffffffffffffff8211156107c7576107c7610766565b5060051b60200190565b600082601f8301126107e257600080fd5b81356107f56107f0826107ad565b61077c565b8082825260208201915060208360051b86010192508583111561081757600080fd5b602085015b8381101561083d57803561082f8161074e565b83526020928301920161081c565b5095945050505050565b600082601f83011261085857600080fd5b81356108666107f0826107ad565b8082825260208201915060208360051b86010192508583111561088857600080fd5b602085015b8381101561083d57803583526020928301920161088d565b600080600080600060a086880312156108bd57600080fd5b85356108c88161074e565b945060208601356108d88161074e565b9350604086013567ffffffffffffffff8111156108f457600080fd5b610900888289016107d1565b935050606086013567ffffffffffffffff81111561091d57600080fd5b61092988828901610847565b95989497509295608001359392505050565b602080825282518282018190526000918401906040840190835b81811015610973578351835260209384019390920191600101610955565b509095945050505050565b6000806000806080858703121561099457600080fd5b843561099f8161074e565b9350602085013567ffffffffffffffff8111156109bb57600080fd5b6109c7878288016107d1565b935050604085013567ffffffffffffffff8111156109e457600080fd5b6109f087828801610847565b949793965093946060013593505050565b60008060008060808587031215610a1757600080fd5b8435610a228161074e565b93506020850135610a328161074e565b92506040850135610a428161074e565b9396929550929360600135925050565b60208082526024908201527f676574537461626c65416d6f756e7473496e3a20696e636f7272656374206c656040820152630dccee8d60e31b606082015260800190565b634e487b7160e01b600052601160045260246000fd5b81810381811115610abf57610abf610a96565b92915050565b634e487b7160e01b600052603260045260246000fd5b600060208284031215610aed57600080fd5b5051919050565b600081610b0357610b03610a96565b506000190190565b80820180821115610abf57610abf610a96565b60006080828403128015610b3157600080fd5b506040516080810167ffffffffffffffff81118282101715610b5557610b55610766565b6040528251610b638161074e565b81526020830151610b738161074e565b60208201526040830151610b868161074e565b60408201526060830151610b998161074e565b60608201529392505050565b600060a0828403128015610bb857600080fd5b5060405160a0810167ffffffffffffffff81118282101715610bdc57610bdc610766565b6040528251610bea8161074e565b81526020830151610bfa8161074e565b60208201526040830151610c0d8161074e565b60408201526060830151610c208161074e565b60608201526080830151610c338161074e565b6080820152939250505056fea2646970667358221220fccb7a168be5e8dfa293542ed211f2d3c0cfa9a64ae1db3dae13e0532466445f64736f6c634300081a0033","linkReferences":{}},"methodIdentifiers":{"getStableAmountsIn(address,address,address[],uint256[],uint256)":"5923cab3","getStableAmountsOut(address,address[],uint256[],uint256)":"86be32f9","getStableInfo(address,address,address,uint256)":"b735aecd"},"id":11}