{"abi":[{"type":"constructor","inputs":[{"name":"_twoPoolInfo","type":"address","internalType":"contract IStableSwapInfo"},{"name":"_threePoolInfo","type":"address","internalType":"contract IStableSwapInfo"}],"stateMutability":"nonpayable"},{"type":"function","name":"get_dx","inputs":[{"name":"_swap","type":"address","internalType":"address"},{"name":"i","type":"uint256","internalType":"uint256"},{"name":"j","type":"uint256","internalType":"uint256"},{"name":"dy","type":"uint256","internalType":"uint256"},{"name":"max_dx","type":"uint256","internalType":"uint256"}],"outputs":[{"name":"dx","type":"uint256","internalType":"uint256"}],"stateMutability":"view"},{"type":"function","name":"threePoolInfo","inputs":[],"outputs":[{"name":"","type":"address","internalType":"contract IStableSwapInfo"}],"stateMutability":"view"},{"type":"function","name":"twoPoolInfo","inputs":[],"outputs":[{"name":"","type":"address","internalType":"contract IStableSwapInfo"}],"stateMutability":"view"}],"bytecode":{"object":"0x60c0604052348015600f57600080fd5b50604051610404380380610404833981016040819052602c91605d565b6001600160a01b039182166080521660a052608b565b80516001600160a01b0381168114605857600080fd5b919050565b60008060408385031215606f57600080fd5b6076836042565b91506082602084016042565b90509250929050565b60805160a0516103486100bc60003960008181608f0152610231015260008181604b015261017c01526103486000f3fe608060405234801561001057600080fd5b50600436106100415760003560e01c8063049315131461004657806367036ce51461008a578063ca4bc714146100b1575b600080fd5b61006d7f000000000000000000000000000000000000000000000000000000000000000081565b6040516001600160a01b0390911681526020015b60405180910390f35b61006d7f000000000000000000000000000000000000000000000000000000000000000081565b6100c46100bf3660046102a9565b6100d2565b604051908152602001610081565b600080866001600160a01b031663293577506040518163ffffffff1660e01b8152600401602060405180830381865afa158015610113573d6000803e3d6000fd5b505050506040513d601f19601f8201168201806040525081019061013791906102f9565b9050806002036101ee57604051633292f1c560e21b81526001600160a01b038881166004830152602482018890526044820187905260648201869052608482018590527f0000000000000000000000000000000000000000000000000000000000000000169063ca4bc7149060a401602060405180830381865afa1580156101c3573d6000803e3d6000fd5b505050506040513d601f19601f820116820180604052508101906101e791906102f9565b915061029f565b8060030361029f57604051633292f1c560e21b81526001600160a01b038881166004830152602482018890526044820187905260648201869052608482018590527f0000000000000000000000000000000000000000000000000000000000000000169063ca4bc7149060a401602060405180830381865afa158015610278573d6000803e3d6000fd5b505050506040513d601f19601f8201168201806040525081019061029c91906102f9565b91505b5095945050505050565b600080600080600060a086880312156102c157600080fd5b85356001600160a01b03811681146102d857600080fd5b97602087013597506040870135966060810135965060800135945092505050565b60006020828403121561030b57600080fd5b505191905056fea26469706673582212205ac742fae2d4e76001fcd8729b84c0abd64a8f3476e0b92241e3aa67a608072764736f6c634300081a0033","linkReferences":{}},"methodIdentifiers":{"get_dx(address,uint256,uint256,uint256,uint256)":"ca4bc714","threePoolInfo()":"67036ce5","twoPoolInfo()":"04931513"},"id":20}