{"abi":[{"type":"constructor","inputs":[{"name":"_stableSwapFactory","type":"address","internalType":"address"},{"name":"_stableSwapInfo","type":"address","internalType":"address"}],"stateMutability":"nonpayable"},{"type":"receive","stateMutability":"payable"},{"type":"function","name":"ROSE","inputs":[],"outputs":[{"name":"","type":"address","internalType":"address"}],"stateMutability":"view"},{"type":"function","name":"WROSE","inputs":[],"outputs":[{"name":"","type":"address","internalType":"address"}],"stateMutability":"view"},{"type":"function","name":"exactInputStableSwap","inputs":[{"name":"path","type":"address[]","internalType":"address[]"},{"name":"flag","type":"uint256[]","internalType":"uint256[]"},{"name":"amountIn","type":"uint256","internalType":"uint256"},{"name":"amountOutMin","type":"uint256","internalType":"uint256"},{"name":"to","type":"address","internalType":"address"}],"outputs":[{"name":"amountOut","type":"uint256","internalType":"uint256"}],"stateMutability":"payable"},{"type":"function","name":"getInputStableSwap","inputs":[{"name":"path","type":"address[]","internalType":"address[]"},{"name":"flag","type":"uint256[]","internalType":"uint256[]"},{"name":"amountOut","type":"uint256","internalType":"uint256"},{"name":"amountInMax","type":"uint256","internalType":"uint256"}],"outputs":[{"name":"amountIn","type":"uint256","internalType":"uint256"}],"stateMutability":"view"},{"type":"function","name":"getOutputStableSwap","inputs":[{"name":"path","type":"address[]","internalType":"address[]"},{"name":"flag","type":"uint256[]","internalType":"uint256[]"},{"name":"amountIn","type":"uint256","internalType":"uint256"},{"name":"amountOutMin","type":"uint256","internalType":"uint256"}],"outputs":[{"name":"amountOut","type":"uint256","internalType":"uint256"}],"stateMutability":"view"},{"type":"function","name":"isKill","inputs":[],"outputs":[{"name":"","type":"bool","internalType":"bool"}],"stateMutability":"view"},{"type":"function","name":"kill","inputs":[],"outputs":[],"stateMutability":"nonpayable"},{"type":"function","name":"owner","inputs":[],"outputs":[{"name":"","type":"address","internalType":"address"}],"stateMutability":"view"},{"type":"function","name":"renounceOwnership","inputs":[],"outputs":[],"stateMutability":"nonpayable"},{"type":"function","name":"setStableSwap","inputs":[{"name":"_factory","type":"address","internalType":"address"},{"name":"_info","type":"address","internalType":"address"}],"outputs":[],"stateMutability":"nonpayable"},{"type":"function","name":"stableSwapFactory","inputs":[],"outputs":[{"name":"","type":"address","internalType":"address"}],"stateMutability":"view"},{"type":"function","name":"stableSwapInfo","inputs":[],"outputs":[{"name":"","type":"address","internalType":"address"}],"stateMutability":"view"},{"type":"function","name":"transferOwnership","inputs":[{"name":"newOwner","type":"address","internalType":"address"}],"outputs":[],"stateMutability":"nonpayable"},{"type":"function","name":"unKill","inputs":[],"outputs":[],"stateMutability":"nonpayable"},{"type":"event","name":"OwnershipTransferred","inputs":[{"name":"previousOwner","type":"address","indexed":true,"internalType":"address"},{"name":"newOwner","type":"address","indexed":true,"internalType":"address"}],"anonymous":false},{"type":"event","name":"SetStableSwap","inputs":[{"name":"factory","type":"address","indexed":true,"internalType":"address"},{"name":"info","type":"address","indexed":true,"internalType":"address"}],"anonymous":false},{"type":"event","name":"StableExchange","inputs":[{"name":"buyer","type":"address","indexed":true,"internalType":"address"},{"name":"amountIn","type":"uint256","indexed":false,"internalType":"uint256"},{"name":"token1","type":"address","indexed":true,"internalType":"address"},{"name":"amountOut","type":"uint256","indexed":false,"internalType":"uint256"},{"name":"token2","type":"address","indexed":true,"internalType":"address"},{"name":"recipient","type":"address","indexed":false,"internalType":"address"}],"anonymous":false}],"bytecode":{"object":"0x608060405234801561001057600080fd5b506040516118a03803806118a083398101604081905261002f916100e0565b61003833610074565b60018055600380546001600160a01b039384166001600160a01b0319909116179055600480546001600160a81b03191691909216179055610113565b600080546001600160a01b038381166001600160a01b0319831681178455604051919092169283917f8be0079c531659141344cd1fd0a4f28419497f9722a3daafe3b4186f6b6457e09190a35050565b80516001600160a01b03811681146100db57600080fd5b919050565b600080604083850312156100f357600080fd5b6100fc836100c4565b915061010a602084016100c4565b90509250929050565b61177e806101226000396000f3fe6080604052600436106100e15760003560e01c80638da5cb5b1161007f578063b455423111610059578063b45542311461023f578063b85aa7af14610252578063c7ef47d714610272578063f2fde38b146102a357600080fd5b80638da5cb5b146101d3578063904174f1146101f1578063aa0ad5e11461021f57600080fd5b806331b2cc45116100bb57806331b2cc451461016957806341c0e1b51461018957806357c799611461019e578063715018a6146101be57600080fd5b806315b6dd82146100ed578063191d30ae1461013257806324dec0341461014957600080fd5b366100e857005b600080fd5b3480156100f957600080fd5b5061011573eeeeeeeeeeeeeeeeeeeeeeeeeeeeeeeeeeeeeeee81565b6040516001600160a01b0390911681526020015b60405180910390f35b34801561013e57600080fd5b506101476102c3565b005b34801561015557600080fd5b50610147610164366004611284565b6102da565b34801561017557600080fd5b50600254610115906001600160a01b031681565b34801561019557600080fd5b50610147610369565b3480156101aa57600080fd5b50600354610115906001600160a01b031681565b3480156101ca57600080fd5b50610147610386565b3480156101df57600080fd5b506000546001600160a01b0316610115565b3480156101fd57600080fd5b5061021161020c366004611309565b61039a565b604051908152602001610129565b34801561022b57600080fd5b5061021161023a366004611309565b6104c9565b61021161024d36600461138c565b6105e6565b34801561025e57600080fd5b50600454610115906001600160a01b031681565b34801561027e57600080fd5b5060045461029390600160a01b900460ff1681565b6040519015158152602001610129565b3480156102af57600080fd5b506101476102be366004611428565b6109ea565b6102cb610a63565b6004805460ff60a01b19169055565b6102e2610a63565b6001600160a01b0382161580159061030257506001600160a01b03811615155b61030b57600080fd5b600380546001600160a01b03199081166001600160a01b03858116918217909355600480549092169284169283179091556040517f26e41379222b54b0470031bc11852ad23058ffb8983f7cc0e18257d6f7afca9d90600090a35050565b610371610a63565b6004805460ff60a01b1916600160a01b179055565b61038e610a63565b6103986000610abd565b565b6003546040516386be32f960e01b815260009173__$d75017e8592c813c72614beebf2a3b9fe6$__916386be32f9916103eb916001600160a01b03909116908b908b908b908b908b906004016114c8565b600060405180830381865af4158015610408573d6000803e3d6000fd5b505050506040513d6000823e601f3d908101601f19168201604052610430919081019061152a565b61043b60018861160d565b8151811061044b5761044b611626565b60200260200101519050818110156104bf5760405162461bcd60e51b815260206004820152602c60248201527f54686520616d6f756e74206f6620746f6b656e20697320736d616c6c6572207460448201526b1a185b88195e1c1958dd195960a21b60648201526084015b60405180910390fd5b9695505050505050565b60035460048054604051635923cab360e01b815260009373__$d75017e8592c813c72614beebf2a3b9fe6$__93635923cab393610520936001600160a01b0393841693909116918d918d918d918d918d910161163c565b600060405180830381865af415801561053d573d6000803e3d6000fd5b505050506040513d6000823e601f3d908101601f19168201604052610565919081019061152a565b60008151811061057757610577611626565b60200260200101519050818111156104bf5760405162461bcd60e51b815260206004820152602c60248201527f54686520616d6f756e74206f6620746f6b656e2069732067726561746572207460448201526b1a185b88195e1c1958dd195960a21b60648201526084016104b6565b60006105f0610b0d565b600454600160a01b900460ff161561063f5760405162461bcd60e51b815260206004820152601260248201527110dbdb9d1c9858dd081a5cc81ada5b1b195960721b60448201526064016104b6565b60008888600081811061065457610654611626565b90506020020160208101906106699190611428565b90506000898961067a60018261160d565b81811061068957610689611626565b905060200201602081019061069e9190611428565b90506000866107425750600173eeeeeeeeeeeeeeeeeeeeeeeeeeeeeeeeeeeeeeed196001600160a01b038416016106d757479650610742565b6040516370a0823160e01b81523060048201526001600160a01b038416906370a0823190602401602060405180830381865afa15801561071b573d6000803e3d6000fd5b505050506040513d601f19601f8201168201806040525081019061073f9190611691565b96505b806107c15773eeeeeeeeeeeeeeeeeeeeeeeeeeeeeeeeeeeeeeed196001600160a01b038416016107b557863410156107b05760405162461bcd60e51b8152602060048201526011602482015270496e76616c6964206d73672e76616c756560781b60448201526064016104b6565b6107c1565b6107c18333308a610b66565b61082e8b8b8080602002602001604051908101604052809392919081815260200183836020028082843760009201919091525050604080516020808f0282810182019093528e82529093508e92508d918291850190849080828437600092019190915250610bc792505050565b73eeeeeeeeeeeeeeeeeeeeeeeeeeeeeeeeeeeeeeed196001600160a01b0383160161085b574793506108c6565b6040516370a0823160e01b81523060048201526001600160a01b038316906370a0823190602401602060405180830381865afa15801561089f573d6000803e3d6000fd5b505050506040513d601f19601f820116820180604052508101906108c39190611691565b93505b858410156108d357600080fd5b6000196001600160a01b038616016108ed57339450610903565b6001196001600160a01b03861601610903573094505b6001600160a01b038516301461091f5761091f82308787610b66565b8a8a61092c60018261160d565b81811061093b5761093b611626565b90506020020160208101906109509190611428565b6001600160a01b03168b8b600081811061096c5761096c611626565b90506020020160208101906109819190611428565b604080518a8152602081018890526001600160a01b038981169282019290925291169033907f813e980c7d6e80d4a991ca81010827af0ccda6cc436935598108dfe2df67a3109060600160405180910390a45050506109df60018055565b979650505050505050565b6109f2610a63565b6001600160a01b038116610a575760405162461bcd60e51b815260206004820152602660248201527f4f776e61626c653a206e6577206f776e657220697320746865207a65726f206160448201526564647265737360d01b60648201526084016104b6565b610a6081610abd565b50565b6000546001600160a01b031633146103985760405162461bcd60e51b815260206004820181905260248201527f4f776e61626c653a2063616c6c6572206973206e6f7420746865206f776e657260448201526064016104b6565b600080546001600160a01b038381166001600160a01b0319831681178455604051919092169283917f8be0079c531659141344cd1fd0a4f28419497f9722a3daafe3b4186f6b6457e09190a35050565b600260015403610b5f5760405162461bcd60e51b815260206004820152601f60248201527f5265656e7472616e637947756172643a207265656e7472616e742063616c6c0060448201526064016104b6565b6002600155565b306001600160a01b03841603610bb55773eeeeeeeeeeeeeeeeeeeeeeeeeeeeeeeeeeeeeeed196001600160a01b03851601610baa57610ba58282610ec4565b610bc1565b610ba5848383610f6c565b610bc18484848461106c565b50505050565b6000815160018451610bd9919061160d565b14610be357600080fd5b60005b8251811015610bc157600080858381518110610c0457610c04611626565b602002602001015186846001610c1a91906116aa565b81518110610c2a57610c2a611626565b602002602001015191509150600080600073__$d75017e8592c813c72614beebf2a3b9fe6$__63b735aecd600360009054906101000a90046001600160a01b031687878c8b81518110610c7f57610c7f611626565b60209081029190910101516040516001600160e01b031960e087901b1681526001600160a01b0394851660048201529284166024840152921660448201526064810191909152608401606060405180830381865af4158015610ce5573d6000803e3d6000fd5b505050506040513d601f19601f82011682018060405250810190610d0991906116bd565b9194509250905073eeeeeeeeeeeeeeeeeeeeeeeeeeeeeeeeeeeeeeed196001600160a01b03861601610daa57604051630b68372160e31b8152600481018490526024810183905247604482018190526000606483015297506001600160a01b03821690635b41b9089089906084016000604051808303818588803b158015610d9057600080fd5b505af1158015610da4573d6000803e3d6000fd5b50505050505b6001600160a01b03851673eeeeeeeeeeeeeeeeeeeeeeeeeeeeeeeeeeeeeeee14610eb3576040516370a0823160e01b81523060048201526001600160a01b038616906370a0823190602401602060405180830381865afa158015610e12573d6000803e3d6000fd5b505050506040513d601f19601f82011682018060405250810190610e369190611691565b9650610e43858289611176565b604051630b68372160e31b8152600481018490526024810183905260448101889052600060648201526001600160a01b03821690635b41b90890608401600060405180830381600087803b158015610e9a57600080fd5b505af1158015610eae573d6000803e3d6000fd5b505050505b505060019093019250610be6915050565b604080516000808252602082019092526001600160a01b038416908390604051610eee91906116f7565b60006040518083038185875af1925050503d8060008114610f2b576040519150601f19603f3d011682016040523d82523d6000602084013e610f30565b606091505b5050905080610f675760405162461bcd60e51b815260206004820152600360248201526253544560e81b60448201526064016104b6565b505050565b604080516001600160a01b038481166024830152604480830185905283518084039091018152606490920183526020820180516001600160e01b031663a9059cbb60e01b1790529151600092839290871691610fc891906116f7565b6000604051808303816000865af19150503d8060008114611005576040519150601f19603f3d011682016040523d82523d6000602084013e61100a565b606091505b50915091508180156110345750805115806110345750808060200190518101906110349190611726565b6110655760405162461bcd60e51b815260206004820152600260248201526114d560f21b60448201526064016104b6565b5050505050565b604080516001600160a01b0385811660248301528481166044830152606480830185905283518084039091018152608490920183526020820180516001600160e01b03166323b872dd60e01b17905291516000928392908816916110d091906116f7565b6000604051808303816000865af19150503d806000811461110d576040519150601f19603f3d011682016040523d82523d6000602084013e611112565b606091505b509150915081801561113c57508051158061113c57508080602001905181019061113c9190611726565b61116e5760405162461bcd60e51b815260206004820152600360248201526229aa2360e91b60448201526064016104b6565b505050505050565b604080516001600160a01b038481166024830152604480830185905283518084039091018152606490920183526020820180516001600160e01b031663095ea7b360e01b17905291516000928392908716916111d291906116f7565b6000604051808303816000865af19150503d806000811461120f576040519150601f19603f3d011682016040523d82523d6000602084013e611214565b606091505b509150915081801561123e57508051158061123e57508080602001905181019061123e9190611726565b6110655760405162461bcd60e51b8152602060048201526002602482015261534160f01b60448201526064016104b6565b6001600160a01b0381168114610a6057600080fd5b6000806040838503121561129757600080fd5b82356112a28161126f565b915060208301356112b28161126f565b809150509250929050565b60008083601f8401126112cf57600080fd5b50813567ffffffffffffffff8111156112e757600080fd5b6020830191508360208260051b850101111561130257600080fd5b9250929050565b6000806000806000806080878903121561132257600080fd5b863567ffffffffffffffff81111561133957600080fd5b61134589828a016112bd565b909750955050602087013567ffffffffffffffff81111561136557600080fd5b61137189828a016112bd565b979a9699509760408101359660609091013595509350505050565b600080600080600080600060a0888a0312156113a757600080fd5b873567ffffffffffffffff8111156113be57600080fd5b6113ca8a828b016112bd565b909850965050602088013567ffffffffffffffff8111156113ea57600080fd5b6113f68a828b016112bd565b909650945050604088013592506060880135915060808801356114188161126f565b8091505092959891949750929550565b60006020828403121561143a57600080fd5b81356114458161126f565b9392505050565b81835260208301925060008160005b8481101561148c57813561146e8161126f565b6001600160a01b03168652602095860195919091019060010161145b565b5093949350505050565b81835260006001600160fb1b038311156114af57600080fd5b8260051b80836020870137939093016020019392505050565b6001600160a01b03871681526080602082018190526000906114ed908301878961144c565b8281036040840152611500818688611496565b915050826060830152979650505050505050565b634e487b7160e01b600052604160045260246000fd5b60006020828403121561153c57600080fd5b815167ffffffffffffffff81111561155357600080fd5b8201601f8101841361156457600080fd5b805167ffffffffffffffff81111561157e5761157e611514565b8060051b604051601f19603f830116810181811067ffffffffffffffff821117156115ab576115ab611514565b6040529182526020818401810192908101878411156115c957600080fd5b6020850194505b838510156115ec578451808252602095860195909350016115d0565b509695505050505050565b634e487b7160e01b600052601160045260246000fd5b81810381811115611620576116206115f7565b92915050565b634e487b7160e01b600052603260045260246000fd5b6001600160a01b0388811682528716602082015260a060408201819052600090611669908301878961144c565b828103606084015261167c818688611496565b91505082608083015298975050505050505050565b6000602082840312156116a357600080fd5b5051919050565b80820180821115611620576116206115f7565b6000806000606084860312156116d257600080fd5b83516020850151604086015191945092506116ec8161126f565b809150509250925092565b6000825160005b8181101561171857602081860181015185830152016116fe565b506000920191825250919050565b60006020828403121561173857600080fd5b8151801515811461144557600080fdfea2646970667358221220b93d40a63464403de5ef1b7458c0c9a2263120aa4b3c92a474af6682ff7feb0d64736f6c634300081a0033","linkReferences":{"contracts/libraries/SmartRouterHelper.sol":{"SmartRouterHelper":[{"start":1233,"length":20},{"start":1540,"length":20},{"start":3423,"length":20}]}}},"methodIdentifiers":{"ROSE()":"15b6dd82","WROSE()":"31b2cc45","exactInputStableSwap(address[],uint256[],uint256,uint256,address)":"b4554231","getInputStableSwap(address[],uint256[],uint256,uint256)":"aa0ad5e1","getOutputStableSwap(address[],uint256[],uint256,uint256)":"904174f1","isKill()":"c7ef47d7","kill()":"41c0e1b5","owner()":"8da5cb5b","renounceOwnership()":"715018a6","setStableSwap(address,address)":"24dec034","stableSwapFactory()":"57c79961","stableSwapInfo()":"b85aa7af","transferOwnership(address)":"f2fde38b","unKill()":"191d30ae"},"id":0}